{
	"contracts/Vote/Vote.sol": {
		"Vote": {
			"abi": [
				{
					"inputs": [
						{
							"internalType": "string[]",
							"name": "nameList",
							"type": "string[]"
						}
					],
					"stateMutability": "nonpayable",
					"type": "constructor"
				},
				{
					"anonymous": false,
					"inputs": [
						{
							"indexed": false,
							"internalType": "string",
							"name": "",
							"type": "string"
						}
					],
					"name": "voteSuccess",
					"type": "event"
				},
				{
					"inputs": [
						{
							"internalType": "uint256",
							"name": "",
							"type": "uint256"
						}
					],
					"name": "board",
					"outputs": [
						{
							"internalType": "string",
							"name": "name",
							"type": "string"
						},
						{
							"internalType": "uint256",
							"name": "totalAmount",
							"type": "uint256"
						}
					],
					"stateMutability": "view",
					"type": "function"
				},
				{
					"inputs": [
						{
							"internalType": "address",
							"name": "to",
							"type": "address"
						}
					],
					"name": "delegate",
					"outputs": [],
					"stateMutability": "nonpayable",
					"type": "function"
				},
				{
					"inputs": [],
					"name": "getBoardInfo",
					"outputs": [
						{
							"components": [
								{
									"internalType": "string",
									"name": "name",
									"type": "string"
								},
								{
									"internalType": "uint256",
									"name": "totalAmount",
									"type": "uint256"
								}
							],
							"internalType": "struct Vote.Board[]",
							"name": "",
							"type": "tuple[]"
						}
					],
					"stateMutability": "view",
					"type": "function"
				},
				{
					"inputs": [],
					"name": "host",
					"outputs": [
						{
							"internalType": "address",
							"name": "",
							"type": "address"
						}
					],
					"stateMutability": "view",
					"type": "function"
				},
				{
					"inputs": [
						{
							"internalType": "address[]",
							"name": "addressList",
							"type": "address[]"
						}
					],
					"name": "mandate",
					"outputs": [],
					"stateMutability": "nonpayable",
					"type": "function"
				},
				{
					"inputs": [
						{
							"internalType": "uint256",
							"name": "targetId",
							"type": "uint256"
						}
					],
					"name": "vote",
					"outputs": [],
					"stateMutability": "nonpayable",
					"type": "function"
				},
				{
					"inputs": [
						{
							"internalType": "address",
							"name": "",
							"type": "address"
						}
					],
					"name": "voters",
					"outputs": [
						{
							"internalType": "uint256",
							"name": "amount",
							"type": "uint256"
						},
						{
							"internalType": "bool",
							"name": "isVoted",
							"type": "bool"
						},
						{
							"internalType": "address",
							"name": "delegator",
							"type": "address"
						},
						{
							"internalType": "uint256",
							"name": "targetId",
							"type": "uint256"
						}
					],
					"stateMutability": "view",
					"type": "function"
				}
			],
			"devdoc": {
				"kind": "dev",
				"methods": {},
				"version": 1
			},
			"evm": {
				"assembly": "    /* \"contracts/Vote/Vote.sol\":60:5207  contract Vote {... */\n  mstore(0x40, 0x80)\n    /* \"contracts/Vote/Vote.sol\":1107:1825  constructor(string [] memory nameList){... */\n  callvalue\n  dup1\n  iszero\n  tag_1\n  jumpi\n  0x00\n  dup1\n  revert\ntag_1:\n  pop\n  mload(0x40)\n  sub(codesize, bytecodeSize)\n  dup1\n  bytecodeSize\n  dup4\n  codecopy\n  dup2\n  dup2\n  add\n  0x40\n  mstore\n  dup2\n  add\n  swap1\n  tag_2\n  swap2\n  swap1\n  tag_3\n  jump\t// in\ntag_2:\n    /* \"contracts/Vote/Vote.sol\":1163:1173  msg.sender */\n  caller\n    /* \"contracts/Vote/Vote.sol\":1156:1160  host */\n  0x00\n  dup1\n    /* \"contracts/Vote/Vote.sol\":1156:1173  host = msg.sender */\n  0x0100\n  exp\n  dup2\n  sload\n  dup2\n  0xffffffffffffffffffffffffffffffffffffffff\n  mul\n  not\n  and\n  swap1\n  dup4\n  0xffffffffffffffffffffffffffffffffffffffff\n  and\n  mul\n  or\n  swap1\n  sstore\n  pop\n    /* \"contracts/Vote/Vote.sol\":1245:1246  1 */\n  0x01\n    /* \"contracts/Vote/Vote.sol\":1225:1231  voters */\n  dup1\n    /* \"contracts/Vote/Vote.sol\":1225:1237  voters[host] */\n  0x00\n    /* \"contracts/Vote/Vote.sol\":1232:1236  host */\n  dup1\n  0x00\n  swap1\n  sload\n  swap1\n  0x0100\n  exp\n  swap1\n  div\n  0xffffffffffffffffffffffffffffffffffffffff\n  and\n    /* \"contracts/Vote/Vote.sol\":1225:1237  voters[host] */\n  0xffffffffffffffffffffffffffffffffffffffff\n  and\n  0xffffffffffffffffffffffffffffffffffffffff\n  and\n  dup2\n  mstore\n  0x20\n  add\n  swap1\n  dup2\n  mstore\n  0x20\n  add\n  0x00\n  keccak256\n    /* \"contracts/Vote/Vote.sol\":1225:1244  voters[host].amount */\n  0x00\n  add\n    /* \"contracts/Vote/Vote.sol\":1225:1246  voters[host].amount=1 */\n  dup2\n  swap1\n  sstore\n  pop\n    /* \"contracts/Vote/Vote.sol\":1527:1536  uint256 i */\n  0x00\n    /* \"contracts/Vote/Vote.sol\":1522:1816  for (uint256 i =0; i < nameList.length; i++){... */\ntag_6:\n    /* \"contracts/Vote/Vote.sol\":1545:1553  nameList */\n  dup2\n    /* \"contracts/Vote/Vote.sol\":1545:1560  nameList.length */\n  mload\n    /* \"contracts/Vote/Vote.sol\":1541:1542  i */\n  dup2\n    /* \"contracts/Vote/Vote.sol\":1541:1560  i < nameList.length */\n  lt\n    /* \"contracts/Vote/Vote.sol\":1522:1816  for (uint256 i =0; i < nameList.length; i++){... */\n  iszero\n  tag_7\n  jumpi\n    /* \"contracts/Vote/Vote.sol\":1665:1687  Board memory boardItem */\n  0x00\n    /* \"contracts/Vote/Vote.sol\":1690:1710  Board(nameList[i],0) */\n  mload(0x40)\n  dup1\n  0x40\n  add\n  0x40\n  mstore\n  dup1\n    /* \"contracts/Vote/Vote.sol\":1696:1704  nameList */\n  dup5\n    /* \"contracts/Vote/Vote.sol\":1705:1706  i */\n  dup5\n    /* \"contracts/Vote/Vote.sol\":1696:1707  nameList[i] */\n  dup2\n  mload\n  dup2\n  lt\n  tag_9\n  jumpi\n  tag_10\n  tag_11\n  jump\t// in\ntag_10:\ntag_9:\n  0x20\n  mul\n  0x20\n  add\n  add\n  mload\n    /* \"contracts/Vote/Vote.sol\":1690:1710  Board(nameList[i],0) */\n  dup2\n  mstore\n  0x20\n  add\n    /* \"contracts/Vote/Vote.sol\":1708:1709  0 */\n  0x00\n    /* \"contracts/Vote/Vote.sol\":1690:1710  Board(nameList[i],0) */\n  dup2\n  mstore\n  pop\n    /* \"contracts/Vote/Vote.sol\":1665:1710  Board memory boardItem = Board(nameList[i],0) */\n  swap1\n  pop\n    /* \"contracts/Vote/Vote.sol\":1783:1788  board */\n  0x02\n    /* \"contracts/Vote/Vote.sol\":1794:1803  boardItem */\n  dup2\n    /* \"contracts/Vote/Vote.sol\":1783:1804  board.push(boardItem) */\n  swap1\n  dup1\n  0x01\n  dup2\n  sload\n  add\n  dup1\n  dup3\n  sstore\n  dup1\n  swap2\n  pop\n  pop\n  0x01\n  swap1\n  sub\n  swap1\n  0x00\n  mstore\n  keccak256(0x00, 0x20)\n  swap1\n  0x02\n  mul\n  add\n  0x00\n  swap1\n  swap2\n  swap1\n  swap2\n  swap1\n  swap2\n  pop\n  0x00\n  dup3\n  add\n  mload\n  dup2\n  0x00\n  add\n  swap1\n  dup2\n  tag_13\n  swap2\n  swap1\n  tag_14\n  jump\t// in\ntag_13:\n  pop\n  0x20\n  dup3\n  add\n  mload\n  dup2\n  0x01\n  add\n  sstore\n  pop\n  pop\n    /* \"contracts/Vote/Vote.sol\":1566:1816  {... */\n  pop\n    /* \"contracts/Vote/Vote.sol\":1562:1565  i++ */\n  dup1\n  dup1\n  tag_15\n  swap1\n  tag_16\n  jump\t// in\ntag_15:\n  swap2\n  pop\n  pop\n    /* \"contracts/Vote/Vote.sol\":1522:1816  for (uint256 i =0; i < nameList.length; i++){... */\n  jump(tag_6)\ntag_7:\n  pop\n    /* \"contracts/Vote/Vote.sol\":1107:1825  constructor(string [] memory nameList){... */\n  pop\n    /* \"contracts/Vote/Vote.sol\":60:5207  contract Vote {... */\n  jump(tag_17)\n    /* \"#utility.yul\":7:82   */\ntag_18:\n    /* \"#utility.yul\":40:46   */\n  0x00\n    /* \"#utility.yul\":73:75   */\n  0x40\n    /* \"#utility.yul\":67:76   */\n  mload\n    /* \"#utility.yul\":57:76   */\n  swap1\n  pop\n    /* \"#utility.yul\":7:82   */\n  swap1\n  jump\t// out\n    /* \"#utility.yul\":88:205   */\ntag_19:\n    /* \"#utility.yul\":197:198   */\n  0x00\n    /* \"#utility.yul\":194:195   */\n  dup1\n    /* \"#utility.yul\":187:199   */\n  revert\n    /* \"#utility.yul\":211:328   */\ntag_20:\n    /* \"#utility.yul\":320:321   */\n  0x00\n    /* \"#utility.yul\":317:318   */\n  dup1\n    /* \"#utility.yul\":310:322   */\n  revert\n    /* \"#utility.yul\":334:451   */\ntag_21:\n    /* \"#utility.yul\":443:444   */\n  0x00\n    /* \"#utility.yul\":440:441   */\n  dup1\n    /* \"#utility.yul\":433:445   */\n  revert\n    /* \"#utility.yul\":457:559   */\ntag_22:\n    /* \"#utility.yul\":498:504   */\n  0x00\n    /* \"#utility.yul\":549:551   */\n  0x1f\n    /* \"#utility.yul\":545:552   */\n  not\n    /* \"#utility.yul\":540:542   */\n  0x1f\n    /* \"#utility.yul\":533:538   */\n  dup4\n    /* \"#utility.yul\":529:543   */\n  add\n    /* \"#utility.yul\":525:553   */\n  and\n    /* \"#utility.yul\":515:553   */\n  swap1\n  pop\n    /* \"#utility.yul\":457:559   */\n  swap2\n  swap1\n  pop\n  jump\t// out\n    /* \"#utility.yul\":565:745   */\ntag_23:\n    /* \"#utility.yul\":613:690   */\n  0x4e487b7100000000000000000000000000000000000000000000000000000000\n    /* \"#utility.yul\":610:611   */\n  0x00\n    /* \"#utility.yul\":603:691   */\n  mstore\n    /* \"#utility.yul\":710:714   */\n  0x41\n    /* \"#utility.yul\":707:708   */\n  0x04\n    /* \"#utility.yul\":700:715   */\n  mstore\n    /* \"#utility.yul\":734:738   */\n  0x24\n    /* \"#utility.yul\":731:732   */\n  0x00\n    /* \"#utility.yul\":724:739   */\n  revert\n    /* \"#utility.yul\":751:1032   */\ntag_24:\n    /* \"#utility.yul\":834:861   */\n  tag_63\n    /* \"#utility.yul\":856:860   */\n  dup3\n    /* \"#utility.yul\":834:861   */\n  tag_22\n  jump\t// in\ntag_63:\n    /* \"#utility.yul\":826:832   */\n  dup2\n    /* \"#utility.yul\":822:862   */\n  add\n    /* \"#utility.yul\":964:970   */\n  dup2\n    /* \"#utility.yul\":952:962   */\n  dup2\n    /* \"#utility.yul\":949:971   */\n  lt\n    /* \"#utility.yul\":928:946   */\n  0xffffffffffffffff\n    /* \"#utility.yul\":916:926   */\n  dup3\n    /* \"#utility.yul\":913:947   */\n  gt\n    /* \"#utility.yul\":910:972   */\n  or\n    /* \"#utility.yul\":907:995   */\n  iszero\n  tag_64\n  jumpi\n    /* \"#utility.yul\":975:993   */\n  tag_65\n  tag_23\n  jump\t// in\ntag_65:\n    /* \"#utility.yul\":907:995   */\ntag_64:\n    /* \"#utility.yul\":1015:1025   */\n  dup1\n    /* \"#utility.yul\":1011:1013   */\n  0x40\n    /* \"#utility.yul\":1004:1026   */\n  mstore\n    /* \"#utility.yul\":794:1032   */\n  pop\n    /* \"#utility.yul\":751:1032   */\n  pop\n  pop\n  jump\t// out\n    /* \"#utility.yul\":1038:1167   */\ntag_25:\n    /* \"#utility.yul\":1072:1078   */\n  0x00\n    /* \"#utility.yul\":1099:1119   */\n  tag_67\n  tag_18\n  jump\t// in\ntag_67:\n    /* \"#utility.yul\":1089:1119   */\n  swap1\n  pop\n    /* \"#utility.yul\":1128:1161   */\n  tag_68\n    /* \"#utility.yul\":1156:1160   */\n  dup3\n    /* \"#utility.yul\":1148:1154   */\n  dup3\n    /* \"#utility.yul\":1128:1161   */\n  tag_24\n  jump\t// in\ntag_68:\n    /* \"#utility.yul\":1038:1167   */\n  swap2\n  swap1\n  pop\n  jump\t// out\n    /* \"#utility.yul\":1173:1494   */\ntag_26:\n    /* \"#utility.yul\":1260:1264   */\n  0x00\n    /* \"#utility.yul\":1350:1368   */\n  0xffffffffffffffff\n    /* \"#utility.yul\":1342:1348   */\n  dup3\n    /* \"#utility.yul\":1339:1369   */\n  gt\n    /* \"#utility.yul\":1336:1392   */\n  iszero\n  tag_70\n  jumpi\n    /* \"#utility.yul\":1372:1390   */\n  tag_71\n  tag_23\n  jump\t// in\ntag_71:\n    /* \"#utility.yul\":1336:1392   */\ntag_70:\n    /* \"#utility.yul\":1422:1426   */\n  0x20\n    /* \"#utility.yul\":1414:1420   */\n  dup3\n    /* \"#utility.yul\":1410:1427   */\n  mul\n    /* \"#utility.yul\":1402:1427   */\n  swap1\n  pop\n    /* \"#utility.yul\":1482:1486   */\n  0x20\n    /* \"#utility.yul\":1476:1480   */\n  dup2\n    /* \"#utility.yul\":1472:1487   */\n  add\n    /* \"#utility.yul\":1464:1487   */\n  swap1\n  pop\n    /* \"#utility.yul\":1173:1494   */\n  swap2\n  swap1\n  pop\n  jump\t// out\n    /* \"#utility.yul\":1500:1617   */\ntag_27:\n    /* \"#utility.yul\":1609:1610   */\n  0x00\n    /* \"#utility.yul\":1606:1607   */\n  dup1\n    /* \"#utility.yul\":1599:1611   */\n  revert\n    /* \"#utility.yul\":1623:1740   */\ntag_28:\n    /* \"#utility.yul\":1732:1733   */\n  0x00\n    /* \"#utility.yul\":1729:1730   */\n  dup1\n    /* \"#utility.yul\":1722:1734   */\n  revert\n    /* \"#utility.yul\":1746:2054   */\ntag_29:\n    /* \"#utility.yul\":1808:1812   */\n  0x00\n    /* \"#utility.yul\":1898:1916   */\n  0xffffffffffffffff\n    /* \"#utility.yul\":1890:1896   */\n  dup3\n    /* \"#utility.yul\":1887:1917   */\n  gt\n    /* \"#utility.yul\":1884:1940   */\n  iszero\n  tag_75\n  jumpi\n    /* \"#utility.yul\":1920:1938   */\n  tag_76\n  tag_23\n  jump\t// in\ntag_76:\n    /* \"#utility.yul\":1884:1940   */\ntag_75:\n    /* \"#utility.yul\":1958:1987   */\n  tag_77\n    /* \"#utility.yul\":1980:1986   */\n  dup3\n    /* \"#utility.yul\":1958:1987   */\n  tag_22\n  jump\t// in\ntag_77:\n    /* \"#utility.yul\":1950:1987   */\n  swap1\n  pop\n    /* \"#utility.yul\":2042:2046   */\n  0x20\n    /* \"#utility.yul\":2036:2040   */\n  dup2\n    /* \"#utility.yul\":2032:2047   */\n  add\n    /* \"#utility.yul\":2024:2047   */\n  swap1\n  pop\n    /* \"#utility.yul\":1746:2054   */\n  swap2\n  swap1\n  pop\n  jump\t// out\n    /* \"#utility.yul\":2060:2306   */\ntag_30:\n    /* \"#utility.yul\":2141:2142   */\n  0x00\n    /* \"#utility.yul\":2151:2264   */\ntag_79:\n    /* \"#utility.yul\":2165:2171   */\n  dup4\n    /* \"#utility.yul\":2162:2163   */\n  dup2\n    /* \"#utility.yul\":2159:2172   */\n  lt\n    /* \"#utility.yul\":2151:2264   */\n  iszero\n  tag_81\n  jumpi\n    /* \"#utility.yul\":2250:2251   */\n  dup1\n    /* \"#utility.yul\":2245:2248   */\n  dup3\n    /* \"#utility.yul\":2241:2252   */\n  add\n    /* \"#utility.yul\":2235:2253   */\n  mload\n    /* \"#utility.yul\":2231:2232   */\n  dup2\n    /* \"#utility.yul\":2226:2229   */\n  dup5\n    /* \"#utility.yul\":2222:2233   */\n  add\n    /* \"#utility.yul\":2215:2254   */\n  mstore\n    /* \"#utility.yul\":2187:2189   */\n  0x20\n    /* \"#utility.yul\":2184:2185   */\n  dup2\n    /* \"#utility.yul\":2180:2190   */\n  add\n    /* \"#utility.yul\":2175:2190   */\n  swap1\n  pop\n    /* \"#utility.yul\":2151:2264   */\n  jump(tag_79)\ntag_81:\n    /* \"#utility.yul\":2298:2299   */\n  0x00\n    /* \"#utility.yul\":2289:2295   */\n  dup5\n    /* \"#utility.yul\":2284:2287   */\n  dup5\n    /* \"#utility.yul\":2280:2296   */\n  add\n    /* \"#utility.yul\":2273:2300   */\n  mstore\n    /* \"#utility.yul\":2122:2306   */\n  pop\n    /* \"#utility.yul\":2060:2306   */\n  pop\n  pop\n  pop\n  jump\t// out\n    /* \"#utility.yul\":2312:2746   */\ntag_31:\n    /* \"#utility.yul\":2401:2406   */\n  0x00\n    /* \"#utility.yul\":2426:2492   */\n  tag_83\n    /* \"#utility.yul\":2442:2491   */\n  tag_84\n    /* \"#utility.yul\":2484:2490   */\n  dup5\n    /* \"#utility.yul\":2442:2491   */\n  tag_29\n  jump\t// in\ntag_84:\n    /* \"#utility.yul\":2426:2492   */\n  tag_25\n  jump\t// in\ntag_83:\n    /* \"#utility.yul\":2417:2492   */\n  swap1\n  pop\n    /* \"#utility.yul\":2515:2521   */\n  dup3\n    /* \"#utility.yul\":2508:2513   */\n  dup2\n    /* \"#utility.yul\":2501:2522   */\n  mstore\n    /* \"#utility.yul\":2553:2557   */\n  0x20\n    /* \"#utility.yul\":2546:2551   */\n  dup2\n    /* \"#utility.yul\":2542:2558   */\n  add\n    /* \"#utility.yul\":2591:2594   */\n  dup5\n    /* \"#utility.yul\":2582:2588   */\n  dup5\n    /* \"#utility.yul\":2577:2580   */\n  dup5\n    /* \"#utility.yul\":2573:2589   */\n  add\n    /* \"#utility.yul\":2570:2595   */\n  gt\n    /* \"#utility.yul\":2567:2679   */\n  iszero\n  tag_85\n  jumpi\n    /* \"#utility.yul\":2598:2677   */\n  tag_86\n  tag_28\n  jump\t// in\ntag_86:\n    /* \"#utility.yul\":2567:2679   */\ntag_85:\n    /* \"#utility.yul\":2688:2740   */\n  tag_87\n    /* \"#utility.yul\":2733:2739   */\n  dup5\n    /* \"#utility.yul\":2728:2731   */\n  dup3\n    /* \"#utility.yul\":2723:2726   */\n  dup6\n    /* \"#utility.yul\":2688:2740   */\n  tag_30\n  jump\t// in\ntag_87:\n    /* \"#utility.yul\":2407:2746   */\n  pop\n    /* \"#utility.yul\":2312:2746   */\n  swap4\n  swap3\n  pop\n  pop\n  pop\n  jump\t// out\n    /* \"#utility.yul\":2766:3121   */\ntag_32:\n    /* \"#utility.yul\":2833:2838   */\n  0x00\n    /* \"#utility.yul\":2882:2885   */\n  dup3\n    /* \"#utility.yul\":2875:2879   */\n  0x1f\n    /* \"#utility.yul\":2867:2873   */\n  dup4\n    /* \"#utility.yul\":2863:2880   */\n  add\n    /* \"#utility.yul\":2859:2886   */\n  slt\n    /* \"#utility.yul\":2849:2971   */\n  tag_89\n  jumpi\n    /* \"#utility.yul\":2890:2969   */\n  tag_90\n  tag_21\n  jump\t// in\ntag_90:\n    /* \"#utility.yul\":2849:2971   */\ntag_89:\n    /* \"#utility.yul\":3000:3006   */\n  dup2\n    /* \"#utility.yul\":2994:3007   */\n  mload\n    /* \"#utility.yul\":3025:3115   */\n  tag_91\n    /* \"#utility.yul\":3111:3114   */\n  dup5\n    /* \"#utility.yul\":3103:3109   */\n  dup3\n    /* \"#utility.yul\":3096:3100   */\n  0x20\n    /* \"#utility.yul\":3088:3094   */\n  dup7\n    /* \"#utility.yul\":3084:3101   */\n  add\n    /* \"#utility.yul\":3025:3115   */\n  tag_31\n  jump\t// in\ntag_91:\n    /* \"#utility.yul\":3016:3115   */\n  swap2\n  pop\n    /* \"#utility.yul\":2839:3121   */\n  pop\n    /* \"#utility.yul\":2766:3121   */\n  swap3\n  swap2\n  pop\n  pop\n  jump\t// out\n    /* \"#utility.yul\":3143:4103   */\ntag_33:\n    /* \"#utility.yul\":3260:3265   */\n  0x00\n    /* \"#utility.yul\":3285:3376   */\n  tag_93\n    /* \"#utility.yul\":3301:3375   */\n  tag_94\n    /* \"#utility.yul\":3368:3374   */\n  dup5\n    /* \"#utility.yul\":3301:3375   */\n  tag_26\n  jump\t// in\ntag_94:\n    /* \"#utility.yul\":3285:3376   */\n  tag_25\n  jump\t// in\ntag_93:\n    /* \"#utility.yul\":3276:3376   */\n  swap1\n  pop\n    /* \"#utility.yul\":3396:3401   */\n  dup1\n    /* \"#utility.yul\":3425:3431   */\n  dup4\n    /* \"#utility.yul\":3418:3423   */\n  dup3\n    /* \"#utility.yul\":3411:3432   */\n  mstore\n    /* \"#utility.yul\":3459:3463   */\n  0x20\n    /* \"#utility.yul\":3452:3457   */\n  dup3\n    /* \"#utility.yul\":3448:3464   */\n  add\n    /* \"#utility.yul\":3441:3464   */\n  swap1\n  pop\n    /* \"#utility.yul\":3512:3516   */\n  0x20\n    /* \"#utility.yul\":3504:3510   */\n  dup5\n    /* \"#utility.yul\":3500:3517   */\n  mul\n    /* \"#utility.yul\":3492:3498   */\n  dup4\n    /* \"#utility.yul\":3488:3518   */\n  add\n    /* \"#utility.yul\":3541:3544   */\n  dup6\n    /* \"#utility.yul\":3533:3539   */\n  dup2\n    /* \"#utility.yul\":3530:3545   */\n  gt\n    /* \"#utility.yul\":3527:3649   */\n  iszero\n  tag_95\n  jumpi\n    /* \"#utility.yul\":3560:3639   */\n  tag_96\n  tag_27\n  jump\t// in\ntag_96:\n    /* \"#utility.yul\":3527:3649   */\ntag_95:\n    /* \"#utility.yul\":3675:3681   */\n  dup4\n    /* \"#utility.yul\":3658:4097   */\ntag_97:\n    /* \"#utility.yul\":3692:3698   */\n  dup2\n    /* \"#utility.yul\":3687:3690   */\n  dup2\n    /* \"#utility.yul\":3684:3699   */\n  lt\n    /* \"#utility.yul\":3658:4097   */\n  iszero\n  tag_99\n  jumpi\n    /* \"#utility.yul\":3774:3777   */\n  dup1\n    /* \"#utility.yul\":3768:3778   */\n  mload\n    /* \"#utility.yul\":3810:3828   */\n  0xffffffffffffffff\n    /* \"#utility.yul\":3797:3808   */\n  dup2\n    /* \"#utility.yul\":3794:3829   */\n  gt\n    /* \"#utility.yul\":3791:3913   */\n  iszero\n  tag_100\n  jumpi\n    /* \"#utility.yul\":3832:3911   */\n  tag_101\n  tag_21\n  jump\t// in\ntag_101:\n    /* \"#utility.yul\":3791:3913   */\ntag_100:\n    /* \"#utility.yul\":3956:3967   */\n  dup1\n    /* \"#utility.yul\":3948:3954   */\n  dup7\n    /* \"#utility.yul\":3944:3968   */\n  add\n    /* \"#utility.yul\":3994:4052   */\n  tag_102\n    /* \"#utility.yul\":4048:4051   */\n  dup10\n    /* \"#utility.yul\":4036:4046   */\n  dup3\n    /* \"#utility.yul\":3994:4052   */\n  tag_32\n  jump\t// in\ntag_102:\n    /* \"#utility.yul\":3989:3992   */\n  dup6\n    /* \"#utility.yul\":3982:4053   */\n  mstore\n    /* \"#utility.yul\":4082:4086   */\n  0x20\n    /* \"#utility.yul\":4077:4080   */\n  dup6\n    /* \"#utility.yul\":4073:4087   */\n  add\n    /* \"#utility.yul\":4066:4087   */\n  swap5\n  pop\n    /* \"#utility.yul\":3734:4097   */\n  pop\n  pop\n    /* \"#utility.yul\":3718:3722   */\n  0x20\n    /* \"#utility.yul\":3713:3716   */\n  dup2\n    /* \"#utility.yul\":3709:3723   */\n  add\n    /* \"#utility.yul\":3702:3723   */\n  swap1\n  pop\n    /* \"#utility.yul\":3658:4097   */\n  jump(tag_97)\ntag_99:\n    /* \"#utility.yul\":3662:3683   */\n  pop\n    /* \"#utility.yul\":3266:4103   */\n  pop\n  pop\n    /* \"#utility.yul\":3143:4103   */\n  swap4\n  swap3\n  pop\n  pop\n  pop\n  jump\t// out\n    /* \"#utility.yul\":4125:4530   */\ntag_34:\n    /* \"#utility.yul\":4217:4222   */\n  0x00\n    /* \"#utility.yul\":4266:4269   */\n  dup3\n    /* \"#utility.yul\":4259:4263   */\n  0x1f\n    /* \"#utility.yul\":4251:4257   */\n  dup4\n    /* \"#utility.yul\":4247:4264   */\n  add\n    /* \"#utility.yul\":4243:4270   */\n  slt\n    /* \"#utility.yul\":4233:4355   */\n  tag_104\n  jumpi\n    /* \"#utility.yul\":4274:4353   */\n  tag_105\n  tag_21\n  jump\t// in\ntag_105:\n    /* \"#utility.yul\":4233:4355   */\ntag_104:\n    /* \"#utility.yul\":4384:4390   */\n  dup2\n    /* \"#utility.yul\":4378:4391   */\n  mload\n    /* \"#utility.yul\":4409:4524   */\n  tag_106\n    /* \"#utility.yul\":4520:4523   */\n  dup5\n    /* \"#utility.yul\":4512:4518   */\n  dup3\n    /* \"#utility.yul\":4505:4509   */\n  0x20\n    /* \"#utility.yul\":4497:4503   */\n  dup7\n    /* \"#utility.yul\":4493:4510   */\n  add\n    /* \"#utility.yul\":4409:4524   */\n  tag_33\n  jump\t// in\ntag_106:\n    /* \"#utility.yul\":4400:4524   */\n  swap2\n  pop\n    /* \"#utility.yul\":4223:4530   */\n  pop\n    /* \"#utility.yul\":4125:4530   */\n  swap3\n  swap2\n  pop\n  pop\n  jump\t// out\n    /* \"#utility.yul\":4536:5110   */\ntag_3:\n    /* \"#utility.yul\":4641:4647   */\n  0x00\n    /* \"#utility.yul\":4690:4692   */\n  0x20\n    /* \"#utility.yul\":4678:4687   */\n  dup3\n    /* \"#utility.yul\":4669:4676   */\n  dup5\n    /* \"#utility.yul\":4665:4688   */\n  sub\n    /* \"#utility.yul\":4661:4693   */\n  slt\n    /* \"#utility.yul\":4658:4777   */\n  iszero\n  tag_108\n  jumpi\n    /* \"#utility.yul\":4696:4775   */\n  tag_109\n  tag_19\n  jump\t// in\ntag_109:\n    /* \"#utility.yul\":4658:4777   */\ntag_108:\n    /* \"#utility.yul\":4837:4838   */\n  0x00\n    /* \"#utility.yul\":4826:4835   */\n  dup3\n    /* \"#utility.yul\":4822:4839   */\n  add\n    /* \"#utility.yul\":4816:4840   */\n  mload\n    /* \"#utility.yul\":4867:4885   */\n  0xffffffffffffffff\n    /* \"#utility.yul\":4859:4865   */\n  dup2\n    /* \"#utility.yul\":4856:4886   */\n  gt\n    /* \"#utility.yul\":4853:4970   */\n  iszero\n  tag_110\n  jumpi\n    /* \"#utility.yul\":4889:4968   */\n  tag_111\n  tag_20\n  jump\t// in\ntag_111:\n    /* \"#utility.yul\":4853:4970   */\ntag_110:\n    /* \"#utility.yul\":4994:5093   */\n  tag_112\n    /* \"#utility.yul\":5085:5092   */\n  dup5\n    /* \"#utility.yul\":5076:5082   */\n  dup3\n    /* \"#utility.yul\":5065:5074   */\n  dup6\n    /* \"#utility.yul\":5061:5083   */\n  add\n    /* \"#utility.yul\":4994:5093   */\n  tag_34\n  jump\t// in\ntag_112:\n    /* \"#utility.yul\":4984:5093   */\n  swap2\n  pop\n    /* \"#utility.yul\":4787:5103   */\n  pop\n    /* \"#utility.yul\":4536:5110   */\n  swap3\n  swap2\n  pop\n  pop\n  jump\t// out\n    /* \"#utility.yul\":5116:5296   */\ntag_11:\n    /* \"#utility.yul\":5164:5241   */\n  0x4e487b7100000000000000000000000000000000000000000000000000000000\n    /* \"#utility.yul\":5161:5162   */\n  0x00\n    /* \"#utility.yul\":5154:5242   */\n  mstore\n    /* \"#utility.yul\":5261:5265   */\n  0x32\n    /* \"#utility.yul\":5258:5259   */\n  0x04\n    /* \"#utility.yul\":5251:5266   */\n  mstore\n    /* \"#utility.yul\":5285:5289   */\n  0x24\n    /* \"#utility.yul\":5282:5283   */\n  0x00\n    /* \"#utility.yul\":5275:5290   */\n  revert\n    /* \"#utility.yul\":5302:5401   */\ntag_35:\n    /* \"#utility.yul\":5354:5360   */\n  0x00\n    /* \"#utility.yul\":5388:5393   */\n  dup2\n    /* \"#utility.yul\":5382:5394   */\n  mload\n    /* \"#utility.yul\":5372:5394   */\n  swap1\n  pop\n    /* \"#utility.yul\":5302:5401   */\n  swap2\n  swap1\n  pop\n  jump\t// out\n    /* \"#utility.yul\":5407:5587   */\ntag_36:\n    /* \"#utility.yul\":5455:5532   */\n  0x4e487b7100000000000000000000000000000000000000000000000000000000\n    /* \"#utility.yul\":5452:5453   */\n  0x00\n    /* \"#utility.yul\":5445:5533   */\n  mstore\n    /* \"#utility.yul\":5552:5556   */\n  0x22\n    /* \"#utility.yul\":5549:5550   */\n  0x04\n    /* \"#utility.yul\":5542:5557   */\n  mstore\n    /* \"#utility.yul\":5576:5580   */\n  0x24\n    /* \"#utility.yul\":5573:5574   */\n  0x00\n    /* \"#utility.yul\":5566:5581   */\n  revert\n    /* \"#utility.yul\":5593:5913   */\ntag_37:\n    /* \"#utility.yul\":5637:5643   */\n  0x00\n    /* \"#utility.yul\":5674:5675   */\n  0x02\n    /* \"#utility.yul\":5668:5672   */\n  dup3\n    /* \"#utility.yul\":5664:5676   */\n  div\n    /* \"#utility.yul\":5654:5676   */\n  swap1\n  pop\n    /* \"#utility.yul\":5721:5722   */\n  0x01\n    /* \"#utility.yul\":5715:5719   */\n  dup3\n    /* \"#utility.yul\":5711:5723   */\n  and\n    /* \"#utility.yul\":5742:5760   */\n  dup1\n    /* \"#utility.yul\":5732:5813   */\n  tag_117\n  jumpi\n    /* \"#utility.yul\":5798:5802   */\n  0x7f\n    /* \"#utility.yul\":5790:5796   */\n  dup3\n    /* \"#utility.yul\":5786:5803   */\n  and\n    /* \"#utility.yul\":5776:5803   */\n  swap2\n  pop\n    /* \"#utility.yul\":5732:5813   */\ntag_117:\n    /* \"#utility.yul\":5860:5862   */\n  0x20\n    /* \"#utility.yul\":5852:5858   */\n  dup3\n    /* \"#utility.yul\":5849:5863   */\n  lt\n    /* \"#utility.yul\":5829:5847   */\n  dup2\n    /* \"#utility.yul\":5826:5864   */\n  sub\n    /* \"#utility.yul\":5823:5907   */\n  tag_118\n  jumpi\n    /* \"#utility.yul\":5879:5897   */\n  tag_119\n  tag_36\n  jump\t// in\ntag_119:\n    /* \"#utility.yul\":5823:5907   */\ntag_118:\n    /* \"#utility.yul\":5644:5913   */\n  pop\n    /* \"#utility.yul\":5593:5913   */\n  swap2\n  swap1\n  pop\n  jump\t// out\n    /* \"#utility.yul\":5919:6060   */\ntag_38:\n    /* \"#utility.yul\":5968:5972   */\n  0x00\n    /* \"#utility.yul\":5991:5994   */\n  dup2\n    /* \"#utility.yul\":5983:5994   */\n  swap1\n  pop\n    /* \"#utility.yul\":6014:6017   */\n  dup2\n    /* \"#utility.yul\":6011:6012   */\n  0x00\n    /* \"#utility.yul\":6004:6018   */\n  mstore\n    /* \"#utility.yul\":6048:6052   */\n  0x20\n    /* \"#utility.yul\":6045:6046   */\n  0x00\n    /* \"#utility.yul\":6035:6053   */\n  keccak256\n    /* \"#utility.yul\":6027:6053   */\n  swap1\n  pop\n    /* \"#utility.yul\":5919:6060   */\n  swap2\n  swap1\n  pop\n  jump\t// out\n    /* \"#utility.yul\":6066:6159   */\ntag_39:\n    /* \"#utility.yul\":6103:6109   */\n  0x00\n    /* \"#utility.yul\":6150:6152   */\n  0x20\n    /* \"#utility.yul\":6145:6147   */\n  0x1f\n    /* \"#utility.yul\":6138:6143   */\n  dup4\n    /* \"#utility.yul\":6134:6148   */\n  add\n    /* \"#utility.yul\":6130:6153   */\n  div\n    /* \"#utility.yul\":6120:6153   */\n  swap1\n  pop\n    /* \"#utility.yul\":6066:6159   */\n  swap2\n  swap1\n  pop\n  jump\t// out\n    /* \"#utility.yul\":6165:6272   */\ntag_40:\n    /* \"#utility.yul\":6209:6217   */\n  0x00\n    /* \"#utility.yul\":6259:6264   */\n  dup3\n    /* \"#utility.yul\":6253:6257   */\n  dup3\n    /* \"#utility.yul\":6249:6265   */\n  shl\n    /* \"#utility.yul\":6228:6265   */\n  swap1\n  pop\n    /* \"#utility.yul\":6165:6272   */\n  swap3\n  swap2\n  pop\n  pop\n  jump\t// out\n    /* \"#utility.yul\":6278:6671   */\ntag_41:\n    /* \"#utility.yul\":6347:6353   */\n  0x00\n    /* \"#utility.yul\":6397:6398   */\n  0x08\n    /* \"#utility.yul\":6385:6395   */\n  dup4\n    /* \"#utility.yul\":6381:6399   */\n  mul\n    /* \"#utility.yul\":6420:6517   */\n  tag_124\n    /* \"#utility.yul\":6450:6516   */\n  0xffffffffffffffffffffffffffffffffffffffffffffffffffffffffffffffff\n    /* \"#utility.yul\":6439:6448   */\n  dup3\n    /* \"#utility.yul\":6420:6517   */\n  tag_40\n  jump\t// in\ntag_124:\n    /* \"#utility.yul\":6538:6577   */\n  tag_125\n    /* \"#utility.yul\":6568:6576   */\n  dup7\n    /* \"#utility.yul\":6557:6566   */\n  dup4\n    /* \"#utility.yul\":6538:6577   */\n  tag_40\n  jump\t// in\ntag_125:\n    /* \"#utility.yul\":6526:6577   */\n  swap6\n  pop\n    /* \"#utility.yul\":6610:6614   */\n  dup1\n    /* \"#utility.yul\":6606:6615   */\n  not\n    /* \"#utility.yul\":6599:6604   */\n  dup5\n    /* \"#utility.yul\":6595:6616   */\n  and\n    /* \"#utility.yul\":6586:6616   */\n  swap4\n  pop\n    /* \"#utility.yul\":6659:6663   */\n  dup1\n    /* \"#utility.yul\":6649:6657   */\n  dup7\n    /* \"#utility.yul\":6645:6664   */\n  and\n    /* \"#utility.yul\":6638:6643   */\n  dup5\n    /* \"#utility.yul\":6635:6665   */\n  or\n    /* \"#utility.yul\":6625:6665   */\n  swap3\n  pop\n    /* \"#utility.yul\":6354:6671   */\n  pop\n  pop\n    /* \"#utility.yul\":6278:6671   */\n  swap4\n  swap3\n  pop\n  pop\n  pop\n  jump\t// out\n    /* \"#utility.yul\":6677:6754   */\ntag_42:\n    /* \"#utility.yul\":6714:6721   */\n  0x00\n    /* \"#utility.yul\":6743:6748   */\n  dup2\n    /* \"#utility.yul\":6732:6748   */\n  swap1\n  pop\n    /* \"#utility.yul\":6677:6754   */\n  swap2\n  swap1\n  pop\n  jump\t// out\n    /* \"#utility.yul\":6760:6820   */\ntag_43:\n    /* \"#utility.yul\":6788:6791   */\n  0x00\n    /* \"#utility.yul\":6809:6814   */\n  dup2\n    /* \"#utility.yul\":6802:6814   */\n  swap1\n  pop\n    /* \"#utility.yul\":6760:6820   */\n  swap2\n  swap1\n  pop\n  jump\t// out\n    /* \"#utility.yul\":6826:6968   */\ntag_44:\n    /* \"#utility.yul\":6876:6885   */\n  0x00\n    /* \"#utility.yul\":6909:6962   */\n  tag_129\n    /* \"#utility.yul\":6927:6961   */\n  tag_130\n    /* \"#utility.yul\":6936:6960   */\n  tag_131\n    /* \"#utility.yul\":6954:6959   */\n  dup5\n    /* \"#utility.yul\":6936:6960   */\n  tag_42\n  jump\t// in\ntag_131:\n    /* \"#utility.yul\":6927:6961   */\n  tag_43\n  jump\t// in\ntag_130:\n    /* \"#utility.yul\":6909:6962   */\n  tag_42\n  jump\t// in\ntag_129:\n    /* \"#utility.yul\":6896:6962   */\n  swap1\n  pop\n    /* \"#utility.yul\":6826:6968   */\n  swap2\n  swap1\n  pop\n  jump\t// out\n    /* \"#utility.yul\":6974:7049   */\ntag_45:\n    /* \"#utility.yul\":7017:7020   */\n  0x00\n    /* \"#utility.yul\":7038:7043   */\n  dup2\n    /* \"#utility.yul\":7031:7043   */\n  swap1\n  pop\n    /* \"#utility.yul\":6974:7049   */\n  swap2\n  swap1\n  pop\n  jump\t// out\n    /* \"#utility.yul\":7055:7324   */\ntag_46:\n    /* \"#utility.yul\":7165:7204   */\n  tag_134\n    /* \"#utility.yul\":7196:7203   */\n  dup4\n    /* \"#utility.yul\":7165:7204   */\n  tag_44\n  jump\t// in\ntag_134:\n    /* \"#utility.yul\":7226:7317   */\n  tag_135\n    /* \"#utility.yul\":7275:7316   */\n  tag_136\n    /* \"#utility.yul\":7299:7315   */\n  dup3\n    /* \"#utility.yul\":7275:7316   */\n  tag_45\n  jump\t// in\ntag_136:\n    /* \"#utility.yul\":7267:7273   */\n  dup5\n    /* \"#utility.yul\":7260:7264   */\n  dup5\n    /* \"#utility.yul\":7254:7265   */\n  sload\n    /* \"#utility.yul\":7226:7317   */\n  tag_41\n  jump\t// in\ntag_135:\n    /* \"#utility.yul\":7220:7224   */\n  dup3\n    /* \"#utility.yul\":7213:7318   */\n  sstore\n    /* \"#utility.yul\":7131:7324   */\n  pop\n    /* \"#utility.yul\":7055:7324   */\n  pop\n  pop\n  pop\n  jump\t// out\n    /* \"#utility.yul\":7330:7403   */\ntag_47:\n    /* \"#utility.yul\":7375:7378   */\n  0x00\n    /* \"#utility.yul\":7330:7403   */\n  swap1\n  jump\t// out\n    /* \"#utility.yul\":7409:7598   */\ntag_48:\n    /* \"#utility.yul\":7486:7518   */\n  tag_139\n  tag_47\n  jump\t// in\ntag_139:\n    /* \"#utility.yul\":7527:7592   */\n  tag_140\n    /* \"#utility.yul\":7585:7591   */\n  dup2\n    /* \"#utility.yul\":7577:7583   */\n  dup5\n    /* \"#utility.yul\":7571:7575   */\n  dup5\n    /* \"#utility.yul\":7527:7592   */\n  tag_46\n  jump\t// in\ntag_140:\n    /* \"#utility.yul\":7462:7598   */\n  pop\n    /* \"#utility.yul\":7409:7598   */\n  pop\n  pop\n  jump\t// out\n    /* \"#utility.yul\":7604:7790   */\ntag_49:\n    /* \"#utility.yul\":7664:7784   */\ntag_142:\n    /* \"#utility.yul\":7681:7684   */\n  dup2\n    /* \"#utility.yul\":7674:7679   */\n  dup2\n    /* \"#utility.yul\":7671:7685   */\n  lt\n    /* \"#utility.yul\":7664:7784   */\n  iszero\n  tag_144\n  jumpi\n    /* \"#utility.yul\":7735:7774   */\n  tag_145\n    /* \"#utility.yul\":7772:7773   */\n  0x00\n    /* \"#utility.yul\":7765:7770   */\n  dup3\n    /* \"#utility.yul\":7735:7774   */\n  tag_48\n  jump\t// in\ntag_145:\n    /* \"#utility.yul\":7708:7709   */\n  0x01\n    /* \"#utility.yul\":7701:7706   */\n  dup2\n    /* \"#utility.yul\":7697:7710   */\n  add\n    /* \"#utility.yul\":7688:7710   */\n  swap1\n  pop\n    /* \"#utility.yul\":7664:7784   */\n  jump(tag_142)\ntag_144:\n    /* \"#utility.yul\":7604:7790   */\n  pop\n  pop\n  jump\t// out\n    /* \"#utility.yul\":7796:8339   */\ntag_50:\n    /* \"#utility.yul\":7897:7899   */\n  0x1f\n    /* \"#utility.yul\":7892:7895   */\n  dup3\n    /* \"#utility.yul\":7889:7900   */\n  gt\n    /* \"#utility.yul\":7886:8332   */\n  iszero\n  tag_147\n  jumpi\n    /* \"#utility.yul\":7931:7969   */\n  tag_148\n    /* \"#utility.yul\":7963:7968   */\n  dup2\n    /* \"#utility.yul\":7931:7969   */\n  tag_38\n  jump\t// in\ntag_148:\n    /* \"#utility.yul\":8015:8044   */\n  tag_149\n    /* \"#utility.yul\":8033:8043   */\n  dup5\n    /* \"#utility.yul\":8015:8044   */\n  tag_39\n  jump\t// in\ntag_149:\n    /* \"#utility.yul\":8005:8013   */\n  dup2\n    /* \"#utility.yul\":8001:8045   */\n  add\n    /* \"#utility.yul\":8198:8200   */\n  0x20\n    /* \"#utility.yul\":8186:8196   */\n  dup6\n    /* \"#utility.yul\":8183:8201   */\n  lt\n    /* \"#utility.yul\":8180:8229   */\n  iszero\n  tag_150\n  jumpi\n    /* \"#utility.yul\":8219:8227   */\n  dup2\n    /* \"#utility.yul\":8204:8227   */\n  swap1\n  pop\n    /* \"#utility.yul\":8180:8229   */\ntag_150:\n    /* \"#utility.yul\":8242:8322   */\n  tag_151\n    /* \"#utility.yul\":8298:8320   */\n  tag_152\n    /* \"#utility.yul\":8316:8319   */\n  dup6\n    /* \"#utility.yul\":8298:8320   */\n  tag_39\n  jump\t// in\ntag_152:\n    /* \"#utility.yul\":8288:8296   */\n  dup4\n    /* \"#utility.yul\":8284:8321   */\n  add\n    /* \"#utility.yul\":8271:8282   */\n  dup3\n    /* \"#utility.yul\":8242:8322   */\n  tag_49\n  jump\t// in\ntag_151:\n    /* \"#utility.yul\":7901:8332   */\n  pop\n  pop\n    /* \"#utility.yul\":7886:8332   */\ntag_147:\n    /* \"#utility.yul\":7796:8339   */\n  pop\n  pop\n  pop\n  jump\t// out\n    /* \"#utility.yul\":8345:8462   */\ntag_51:\n    /* \"#utility.yul\":8399:8407   */\n  0x00\n    /* \"#utility.yul\":8449:8454   */\n  dup3\n    /* \"#utility.yul\":8443:8447   */\n  dup3\n    /* \"#utility.yul\":8439:8455   */\n  shr\n    /* \"#utility.yul\":8418:8455   */\n  swap1\n  pop\n    /* \"#utility.yul\":8345:8462   */\n  swap3\n  swap2\n  pop\n  pop\n  jump\t// out\n    /* \"#utility.yul\":8468:8637   */\ntag_52:\n    /* \"#utility.yul\":8512:8518   */\n  0x00\n    /* \"#utility.yul\":8545:8596   */\n  tag_155\n    /* \"#utility.yul\":8593:8594   */\n  0x00\n    /* \"#utility.yul\":8589:8595   */\n  not\n    /* \"#utility.yul\":8581:8586   */\n  dup5\n    /* \"#utility.yul\":8578:8579   */\n  0x08\n    /* \"#utility.yul\":8574:8587   */\n  mul\n    /* \"#utility.yul\":8545:8596   */\n  tag_51\n  jump\t// in\ntag_155:\n    /* \"#utility.yul\":8541:8597   */\n  not\n    /* \"#utility.yul\":8626:8630   */\n  dup1\n    /* \"#utility.yul\":8620:8624   */\n  dup4\n    /* \"#utility.yul\":8616:8631   */\n  and\n    /* \"#utility.yul\":8606:8631   */\n  swap2\n  pop\n    /* \"#utility.yul\":8519:8637   */\n  pop\n    /* \"#utility.yul\":8468:8637   */\n  swap3\n  swap2\n  pop\n  pop\n  jump\t// out\n    /* \"#utility.yul\":8642:8937   */\ntag_53:\n    /* \"#utility.yul\":8718:8722   */\n  0x00\n    /* \"#utility.yul\":8864:8893   */\n  tag_157\n    /* \"#utility.yul\":8889:8892   */\n  dup4\n    /* \"#utility.yul\":8883:8887   */\n  dup4\n    /* \"#utility.yul\":8864:8893   */\n  tag_52\n  jump\t// in\ntag_157:\n    /* \"#utility.yul\":8856:8893   */\n  swap2\n  pop\n    /* \"#utility.yul\":8926:8929   */\n  dup3\n    /* \"#utility.yul\":8923:8924   */\n  0x02\n    /* \"#utility.yul\":8919:8930   */\n  mul\n    /* \"#utility.yul\":8913:8917   */\n  dup3\n    /* \"#utility.yul\":8910:8931   */\n  or\n    /* \"#utility.yul\":8902:8931   */\n  swap1\n  pop\n    /* \"#utility.yul\":8642:8937   */\n  swap3\n  swap2\n  pop\n  pop\n  jump\t// out\n    /* \"#utility.yul\":8942:10337   */\ntag_14:\n    /* \"#utility.yul\":9059:9096   */\n  tag_159\n    /* \"#utility.yul\":9092:9095   */\n  dup3\n    /* \"#utility.yul\":9059:9096   */\n  tag_35\n  jump\t// in\ntag_159:\n    /* \"#utility.yul\":9161:9179   */\n  0xffffffffffffffff\n    /* \"#utility.yul\":9153:9159   */\n  dup2\n    /* \"#utility.yul\":9150:9180   */\n  gt\n    /* \"#utility.yul\":9147:9203   */\n  iszero\n  tag_160\n  jumpi\n    /* \"#utility.yul\":9183:9201   */\n  tag_161\n  tag_23\n  jump\t// in\ntag_161:\n    /* \"#utility.yul\":9147:9203   */\ntag_160:\n    /* \"#utility.yul\":9227:9265   */\n  tag_162\n    /* \"#utility.yul\":9259:9263   */\n  dup3\n    /* \"#utility.yul\":9253:9264   */\n  sload\n    /* \"#utility.yul\":9227:9265   */\n  tag_37\n  jump\t// in\ntag_162:\n    /* \"#utility.yul\":9312:9379   */\n  tag_163\n    /* \"#utility.yul\":9372:9378   */\n  dup3\n    /* \"#utility.yul\":9364:9370   */\n  dup3\n    /* \"#utility.yul\":9358:9362   */\n  dup6\n    /* \"#utility.yul\":9312:9379   */\n  tag_50\n  jump\t// in\ntag_163:\n    /* \"#utility.yul\":9406:9407   */\n  0x00\n    /* \"#utility.yul\":9430:9434   */\n  0x20\n    /* \"#utility.yul\":9417:9434   */\n  swap1\n  pop\n    /* \"#utility.yul\":9462:9464   */\n  0x1f\n    /* \"#utility.yul\":9454:9460   */\n  dup4\n    /* \"#utility.yul\":9451:9465   */\n  gt\n    /* \"#utility.yul\":9479:9480   */\n  0x01\n    /* \"#utility.yul\":9474:10092   */\n  dup2\n  eq\n  tag_165\n  jumpi\n    /* \"#utility.yul\":10136:10137   */\n  0x00\n    /* \"#utility.yul\":10153:10159   */\n  dup5\n    /* \"#utility.yul\":10150:10227   */\n  iszero\n  tag_166\n  jumpi\n    /* \"#utility.yul\":10202:10211   */\n  dup3\n    /* \"#utility.yul\":10197:10200   */\n  dup8\n    /* \"#utility.yul\":10193:10212   */\n  add\n    /* \"#utility.yul\":10187:10213   */\n  mload\n    /* \"#utility.yul\":10178:10213   */\n  swap1\n  pop\n    /* \"#utility.yul\":10150:10227   */\ntag_166:\n    /* \"#utility.yul\":10253:10320   */\n  tag_167\n    /* \"#utility.yul\":10313:10319   */\n  dup6\n    /* \"#utility.yul\":10306:10311   */\n  dup3\n    /* \"#utility.yul\":10253:10320   */\n  tag_53\n  jump\t// in\ntag_167:\n    /* \"#utility.yul\":10247:10251   */\n  dup7\n    /* \"#utility.yul\":10240:10321   */\n  sstore\n    /* \"#utility.yul\":10109:10331   */\n  pop\n    /* \"#utility.yul\":9444:10331   */\n  jump(tag_164)\n    /* \"#utility.yul\":9474:10092   */\ntag_165:\n    /* \"#utility.yul\":9526:9530   */\n  0x1f\n    /* \"#utility.yul\":9522:9531   */\n  not\n    /* \"#utility.yul\":9514:9520   */\n  dup5\n    /* \"#utility.yul\":9510:9532   */\n  and\n    /* \"#utility.yul\":9560:9597   */\n  tag_168\n    /* \"#utility.yul\":9592:9596   */\n  dup7\n    /* \"#utility.yul\":9560:9597   */\n  tag_38\n  jump\t// in\ntag_168:\n    /* \"#utility.yul\":9619:9620   */\n  0x00\n    /* \"#utility.yul\":9633:9841   */\ntag_169:\n    /* \"#utility.yul\":9647:9654   */\n  dup3\n    /* \"#utility.yul\":9644:9645   */\n  dup2\n    /* \"#utility.yul\":9641:9655   */\n  lt\n    /* \"#utility.yul\":9633:9841   */\n  iszero\n  tag_171\n  jumpi\n    /* \"#utility.yul\":9726:9735   */\n  dup5\n    /* \"#utility.yul\":9721:9724   */\n  dup10\n    /* \"#utility.yul\":9717:9736   */\n  add\n    /* \"#utility.yul\":9711:9737   */\n  mload\n    /* \"#utility.yul\":9703:9709   */\n  dup3\n    /* \"#utility.yul\":9696:9738   */\n  sstore\n    /* \"#utility.yul\":9777:9778   */\n  0x01\n    /* \"#utility.yul\":9769:9775   */\n  dup3\n    /* \"#utility.yul\":9765:9779   */\n  add\n    /* \"#utility.yul\":9755:9779   */\n  swap2\n  pop\n    /* \"#utility.yul\":9824:9826   */\n  0x20\n    /* \"#utility.yul\":9813:9822   */\n  dup6\n    /* \"#utility.yul\":9809:9827   */\n  add\n    /* \"#utility.yul\":9796:9827   */\n  swap5\n  pop\n    /* \"#utility.yul\":9670:9674   */\n  0x20\n    /* \"#utility.yul\":9667:9668   */\n  dup2\n    /* \"#utility.yul\":9663:9675   */\n  add\n    /* \"#utility.yul\":9658:9675   */\n  swap1\n  pop\n    /* \"#utility.yul\":9633:9841   */\n  jump(tag_169)\ntag_171:\n    /* \"#utility.yul\":9869:9875   */\n  dup7\n    /* \"#utility.yul\":9860:9867   */\n  dup4\n    /* \"#utility.yul\":9857:9876   */\n  lt\n    /* \"#utility.yul\":9854:10033   */\n  iszero\n  tag_172\n  jumpi\n    /* \"#utility.yul\":9927:9936   */\n  dup5\n    /* \"#utility.yul\":9922:9925   */\n  dup10\n    /* \"#utility.yul\":9918:9937   */\n  add\n    /* \"#utility.yul\":9912:9938   */\n  mload\n    /* \"#utility.yul\":9970:10018   */\n  tag_173\n    /* \"#utility.yul\":10012:10016   */\n  0x1f\n    /* \"#utility.yul\":10004:10010   */\n  dup10\n    /* \"#utility.yul\":10000:10017   */\n  and\n    /* \"#utility.yul\":9989:9998   */\n  dup3\n    /* \"#utility.yul\":9970:10018   */\n  tag_52\n  jump\t// in\ntag_173:\n    /* \"#utility.yul\":9962:9968   */\n  dup4\n    /* \"#utility.yul\":9955:10019   */\n  sstore\n    /* \"#utility.yul\":9877:10033   */\n  pop\n    /* \"#utility.yul\":9854:10033   */\ntag_172:\n    /* \"#utility.yul\":10079:10080   */\n  0x01\n    /* \"#utility.yul\":10075:10076   */\n  0x02\n    /* \"#utility.yul\":10067:10073   */\n  dup9\n    /* \"#utility.yul\":10063:10077   */\n  mul\n    /* \"#utility.yul\":10059:10081   */\n  add\n    /* \"#utility.yul\":10053:10057   */\n  dup9\n    /* \"#utility.yul\":10046:10082   */\n  sstore\n    /* \"#utility.yul\":9481:10092   */\n  pop\n  pop\n  pop\n    /* \"#utility.yul\":9444:10331   */\ntag_164:\n  pop\n    /* \"#utility.yul\":9034:10337   */\n  pop\n  pop\n  pop\n    /* \"#utility.yul\":8942:10337   */\n  pop\n  pop\n  jump\t// out\n    /* \"#utility.yul\":10343:10523   */\ntag_54:\n    /* \"#utility.yul\":10391:10468   */\n  0x4e487b7100000000000000000000000000000000000000000000000000000000\n    /* \"#utility.yul\":10388:10389   */\n  0x00\n    /* \"#utility.yul\":10381:10469   */\n  mstore\n    /* \"#utility.yul\":10488:10492   */\n  0x11\n    /* \"#utility.yul\":10485:10486   */\n  0x04\n    /* \"#utility.yul\":10478:10493   */\n  mstore\n    /* \"#utility.yul\":10512:10516   */\n  0x24\n    /* \"#utility.yul\":10509:10510   */\n  0x00\n    /* \"#utility.yul\":10502:10517   */\n  revert\n    /* \"#utility.yul\":10529:10762   */\ntag_16:\n    /* \"#utility.yul\":10568:10571   */\n  0x00\n    /* \"#utility.yul\":10591:10615   */\n  tag_176\n    /* \"#utility.yul\":10609:10614   */\n  dup3\n    /* \"#utility.yul\":10591:10615   */\n  tag_42\n  jump\t// in\ntag_176:\n    /* \"#utility.yul\":10582:10615   */\n  swap2\n  pop\n    /* \"#utility.yul\":10637:10703   */\n  0xffffffffffffffffffffffffffffffffffffffffffffffffffffffffffffffff\n    /* \"#utility.yul\":10630:10635   */\n  dup3\n    /* \"#utility.yul\":10627:10704   */\n  sub\n    /* \"#utility.yul\":10624:10727   */\n  tag_177\n  jumpi\n    /* \"#utility.yul\":10707:10725   */\n  tag_178\n  tag_54\n  jump\t// in\ntag_178:\n    /* \"#utility.yul\":10624:10727   */\ntag_177:\n    /* \"#utility.yul\":10754:10755   */\n  0x01\n    /* \"#utility.yul\":10747:10752   */\n  dup3\n    /* \"#utility.yul\":10743:10756   */\n  add\n    /* \"#utility.yul\":10736:10756   */\n  swap1\n  pop\n    /* \"#utility.yul\":10529:10762   */\n  swap2\n  swap1\n  pop\n  jump\t// out\n    /* \"contracts/Vote/Vote.sol\":60:5207  contract Vote {... */\ntag_17:\n  dataSize(sub_0)\n  dup1\n  dataOffset(sub_0)\n  0x00\n  codecopy\n  0x00\n  return\nstop\n\nsub_0: assembly {\n        /* \"contracts/Vote/Vote.sol\":60:5207  contract Vote {... */\n      mstore(0x40, 0x80)\n      callvalue\n      dup1\n      iszero\n      tag_1\n      jumpi\n      0x00\n      dup1\n      revert\n    tag_1:\n      pop\n      jumpi(tag_2, lt(calldatasize, 0x04))\n      shr(0xe0, calldataload(0x00))\n      dup1\n      0x8760c761\n      gt\n      tag_10\n      jumpi\n      dup1\n      0x8760c761\n      eq\n      tag_6\n      jumpi\n      dup1\n      0xa3ec138d\n      eq\n      tag_7\n      jumpi\n      dup1\n      0xed34c6ee\n      eq\n      tag_8\n      jumpi\n      dup1\n      0xf437bc59\n      eq\n      tag_9\n      jumpi\n      jump(tag_2)\n    tag_10:\n      dup1\n      0x0121b93f\n      eq\n      tag_3\n      jumpi\n      dup1\n      0x28ed6e3f\n      eq\n      tag_4\n      jumpi\n      dup1\n      0x5c19a95c\n      eq\n      tag_5\n      jumpi\n    tag_2:\n      0x00\n      dup1\n      revert\n        /* \"contracts/Vote/Vote.sol\":4146:5079  function vote(uint256 targetId) public {... */\n    tag_3:\n      tag_11\n      0x04\n      dup1\n      calldatasize\n      sub\n      dup2\n      add\n      swap1\n      tag_12\n      swap2\n      swap1\n      tag_13\n      jump\t// in\n    tag_12:\n      tag_14\n      jump\t// in\n    tag_11:\n      stop\n        /* \"contracts/Vote/Vote.sol\":917:937  Board[] public board */\n    tag_4:\n      tag_15\n      0x04\n      dup1\n      calldatasize\n      sub\n      dup2\n      add\n      swap1\n      tag_16\n      swap2\n      swap1\n      tag_13\n      jump\t// in\n    tag_16:\n      tag_17\n      jump\t// in\n    tag_15:\n      mload(0x40)\n      tag_18\n      swap3\n      swap2\n      swap1\n      tag_19\n      jump\t// in\n    tag_18:\n      mload(0x40)\n      dup1\n      swap2\n      sub\n      swap1\n      return\n        /* \"contracts/Vote/Vote.sol\":2478:4122  function delegate(address to) public  {... */\n    tag_5:\n      tag_20\n      0x04\n      dup1\n      calldatasize\n      sub\n      dup2\n      add\n      swap1\n      tag_21\n      swap2\n      swap1\n      tag_22\n      jump\t// in\n    tag_21:\n      tag_23\n      jump\t// in\n    tag_20:\n      stop\n        /* \"contracts/Vote/Vote.sol\":1994:2446  function mandate(address[] calldata addressList) public {... */\n    tag_6:\n      tag_24\n      0x04\n      dup1\n      calldatasize\n      sub\n      dup2\n      add\n      swap1\n      tag_25\n      swap2\n      swap1\n      tag_26\n      jump\t// in\n    tag_25:\n      tag_27\n      jump\t// in\n    tag_24:\n      stop\n        /* \"contracts/Vote/Vote.sol\":610:649  mapping(address => Voter) public voters */\n    tag_7:\n      tag_28\n      0x04\n      dup1\n      calldatasize\n      sub\n      dup2\n      add\n      swap1\n      tag_29\n      swap2\n      swap1\n      tag_22\n      jump\t// in\n    tag_29:\n      tag_30\n      jump\t// in\n    tag_28:\n      mload(0x40)\n      tag_31\n      swap5\n      swap4\n      swap3\n      swap2\n      swap1\n      tag_32\n      jump\t// in\n    tag_31:\n      mload(0x40)\n      dup1\n      swap2\n      sub\n      swap1\n      return\n        /* \"contracts/Vote/Vote.sol\":1857:1947  function getBoardInfo() public view returns(Board[] memory){... */\n    tag_8:\n      tag_33\n      tag_34\n      jump\t// in\n    tag_33:\n      mload(0x40)\n      tag_35\n      swap2\n      swap1\n      tag_36\n      jump\t// in\n    tag_35:\n      mload(0x40)\n      dup1\n      swap2\n      sub\n      swap1\n      return\n        /* \"contracts/Vote/Vote.sol\":553:572  address public host */\n    tag_9:\n      tag_37\n      tag_38\n      jump\t// in\n    tag_37:\n      mload(0x40)\n      tag_39\n      swap2\n      swap1\n      tag_40\n      jump\t// in\n    tag_39:\n      mload(0x40)\n      dup1\n      swap2\n      sub\n      swap1\n      return\n        /* \"contracts/Vote/Vote.sol\":4146:5079  function vote(uint256 targetId) public {... */\n    tag_14:\n        /* \"contracts/Vote/Vote.sol\":4487:4507  Voter storage sender */\n      0x00\n        /* \"contracts/Vote/Vote.sol\":4510:4516  voters */\n      0x01\n        /* \"contracts/Vote/Vote.sol\":4510:4528  voters[msg.sender] */\n      0x00\n        /* \"contracts/Vote/Vote.sol\":4517:4527  msg.sender */\n      caller\n        /* \"contracts/Vote/Vote.sol\":4510:4528  voters[msg.sender] */\n      0xffffffffffffffffffffffffffffffffffffffff\n      and\n      0xffffffffffffffffffffffffffffffffffffffff\n      and\n      dup2\n      mstore\n      0x20\n      add\n      swap1\n      dup2\n      mstore\n      0x20\n      add\n      0x00\n      keccak256\n        /* \"contracts/Vote/Vote.sol\":4487:4528  Voter storage sender = voters[msg.sender] */\n      swap1\n      pop\n        /* \"contracts/Vote/Vote.sol\":4614:4615  0 */\n      0x00\n        /* \"contracts/Vote/Vote.sol\":4598:4604  sender */\n      dup2\n        /* \"contracts/Vote/Vote.sol\":4598:4611  sender.amount */\n      0x00\n      add\n      sload\n        /* \"contracts/Vote/Vote.sol\":4598:4615  sender.amount !=0 */\n      sub\n        /* \"contracts/Vote/Vote.sol\":4590:4674  require(sender.amount !=0,unicode\"兄弟你都没有票，你投个锤子！！！\") */\n      tag_42\n      jumpi\n      mload(0x40)\n      0x08c379a000000000000000000000000000000000000000000000000000000000\n      dup2\n      mstore\n      0x04\n      add\n      tag_43\n      swap1\n      tag_44\n      jump\t// in\n    tag_43:\n      mload(0x40)\n      dup1\n      swap2\n      sub\n      swap1\n      revert\n    tag_42:\n        /* \"contracts/Vote/Vote.sol\":4694:4700  sender */\n      dup1\n        /* \"contracts/Vote/Vote.sol\":4694:4708  sender.isVoted */\n      0x01\n      add\n      0x00\n      swap1\n      sload\n      swap1\n      0x0100\n      exp\n      swap1\n      div\n      0xff\n      and\n        /* \"contracts/Vote/Vote.sol\":4693:4708  !sender.isVoted */\n      iszero\n        /* \"contracts/Vote/Vote.sol\":4685:4752  require(!sender.isVoted,unicode\"兄弟你已经投过了啊！！\") */\n      tag_45\n      jumpi\n      mload(0x40)\n      0x08c379a000000000000000000000000000000000000000000000000000000000\n      dup2\n      mstore\n      0x04\n      add\n      tag_46\n      swap1\n      tag_47\n      jump\t// in\n    tag_46:\n      mload(0x40)\n      dup1\n      swap2\n      sub\n      swap1\n      revert\n    tag_45:\n        /* \"contracts/Vote/Vote.sol\":4810:4814  true */\n      0x01\n        /* \"contracts/Vote/Vote.sol\":4793:4799  sender */\n      dup2\n        /* \"contracts/Vote/Vote.sol\":4793:4807  sender.isVoted */\n      0x01\n      add\n      0x00\n        /* \"contracts/Vote/Vote.sol\":4793:4814  sender.isVoted = true */\n      0x0100\n      exp\n      dup2\n      sload\n      dup2\n      0xff\n      mul\n      not\n      and\n      swap1\n      dup4\n      iszero\n      iszero\n      mul\n      or\n      swap1\n      sstore\n      pop\n        /* \"contracts/Vote/Vote.sol\":4891:4899  targetId */\n      dup2\n        /* \"contracts/Vote/Vote.sol\":4873:4879  sender */\n      dup2\n        /* \"contracts/Vote/Vote.sol\":4873:4888  sender.targetId */\n      0x02\n      add\n        /* \"contracts/Vote/Vote.sol\":4873:4899  sender.targetId = targetId */\n      dup2\n      swap1\n      sstore\n      pop\n        /* \"contracts/Vote/Vote.sol\":4998:5004  sender */\n      dup1\n        /* \"contracts/Vote/Vote.sol\":4998:5011  sender.amount */\n      0x00\n      add\n      sload\n        /* \"contracts/Vote/Vote.sol\":4967:4972  board */\n      0x02\n        /* \"contracts/Vote/Vote.sol\":4973:4981  targetId */\n      dup4\n        /* \"contracts/Vote/Vote.sol\":4967:4982  board[targetId] */\n      dup2\n      sload\n      dup2\n      lt\n      tag_48\n      jumpi\n      tag_49\n      tag_50\n      jump\t// in\n    tag_49:\n    tag_48:\n      swap1\n      0x00\n      mstore\n      keccak256(0x00, 0x20)\n      swap1\n      0x02\n      mul\n      add\n        /* \"contracts/Vote/Vote.sol\":4967:4994  board[targetId].totalAmount */\n      0x01\n      add\n      0x00\n        /* \"contracts/Vote/Vote.sol\":4967:5011  board[targetId].totalAmount += sender.amount */\n      dup3\n      dup3\n      sload\n      tag_52\n      swap2\n      swap1\n      tag_53\n      jump\t// in\n    tag_52:\n      swap3\n      pop\n      pop\n      dup2\n      swap1\n      sstore\n      pop\n        /* \"contracts/Vote/Vote.sol\":5027:5067  voteSuccess(unicode\"投票成功！！\") */\n      0x71811a05f98c0d6a3ee4d373e7d62d53422d5baf858d802816efce275df7d3fa\n      mload(0x40)\n      tag_54\n      swap1\n      tag_55\n      jump\t// in\n    tag_54:\n      mload(0x40)\n      dup1\n      swap2\n      sub\n      swap1\n      log1\n        /* \"contracts/Vote/Vote.sol\":4185:5079  {... */\n      pop\n        /* \"contracts/Vote/Vote.sol\":4146:5079  function vote(uint256 targetId) public {... */\n      pop\n      jump\t// out\n        /* \"contracts/Vote/Vote.sol\":917:937  Board[] public board */\n    tag_17:\n      0x02\n      dup2\n      dup2\n      sload\n      dup2\n      lt\n      tag_56\n      jumpi\n      0x00\n      dup1\n      revert\n    tag_56:\n      swap1\n      0x00\n      mstore\n      keccak256(0x00, 0x20)\n      swap1\n      0x02\n      mul\n      add\n      0x00\n      swap2\n      pop\n      swap1\n      pop\n      dup1\n      0x00\n      add\n      dup1\n      sload\n      tag_58\n      swap1\n      tag_59\n      jump\t// in\n    tag_58:\n      dup1\n      0x1f\n      add\n      0x20\n      dup1\n      swap2\n      div\n      mul\n      0x20\n      add\n      mload(0x40)\n      swap1\n      dup2\n      add\n      0x40\n      mstore\n      dup1\n      swap3\n      swap2\n      swap1\n      dup2\n      dup2\n      mstore\n      0x20\n      add\n      dup3\n      dup1\n      sload\n      tag_60\n      swap1\n      tag_59\n      jump\t// in\n    tag_60:\n      dup1\n      iszero\n      tag_61\n      jumpi\n      dup1\n      0x1f\n      lt\n      tag_62\n      jumpi\n      0x0100\n      dup1\n      dup4\n      sload\n      div\n      mul\n      dup4\n      mstore\n      swap2\n      0x20\n      add\n      swap2\n      jump(tag_61)\n    tag_62:\n      dup3\n      add\n      swap2\n      swap1\n      0x00\n      mstore\n      keccak256(0x00, 0x20)\n      swap1\n    tag_63:\n      dup2\n      sload\n      dup2\n      mstore\n      swap1\n      0x01\n      add\n      swap1\n      0x20\n      add\n      dup1\n      dup4\n      gt\n      tag_63\n      jumpi\n      dup3\n      swap1\n      sub\n      0x1f\n      and\n      dup3\n      add\n      swap2\n    tag_61:\n      pop\n      pop\n      pop\n      pop\n      pop\n      swap1\n      dup1\n      0x01\n      add\n      sload\n      swap1\n      pop\n      dup3\n      jump\t// out\n        /* \"contracts/Vote/Vote.sol\":2478:4122  function delegate(address to) public  {... */\n    tag_23:\n        /* \"contracts/Vote/Vote.sol\":2609:2629  Voter storage sender */\n      0x00\n        /* \"contracts/Vote/Vote.sol\":2632:2638  voters */\n      0x01\n        /* \"contracts/Vote/Vote.sol\":2632:2650  voters[msg.sender] */\n      0x00\n        /* \"contracts/Vote/Vote.sol\":2639:2649  msg.sender */\n      caller\n        /* \"contracts/Vote/Vote.sol\":2632:2650  voters[msg.sender] */\n      0xffffffffffffffffffffffffffffffffffffffff\n      and\n      0xffffffffffffffffffffffffffffffffffffffff\n      and\n      dup2\n      mstore\n      0x20\n      add\n      swap1\n      dup2\n      mstore\n      0x20\n      add\n      0x00\n      keccak256\n        /* \"contracts/Vote/Vote.sol\":2609:2650  Voter storage sender = voters[msg.sender] */\n      swap1\n      pop\n        /* \"contracts/Vote/Vote.sol\":2742:2748  sender */\n      dup1\n        /* \"contracts/Vote/Vote.sol\":2742:2756  sender.isVoted */\n      0x01\n      add\n      0x00\n      swap1\n      sload\n      swap1\n      0x0100\n      exp\n      swap1\n      div\n      0xff\n      and\n        /* \"contracts/Vote/Vote.sol\":2741:2756  !sender.isVoted */\n      iszero\n        /* \"contracts/Vote/Vote.sol\":2733:2818  require(!sender.isVoted,unicode\"你已经投过票了，没有资格给你委托了\") */\n      tag_65\n      jumpi\n      mload(0x40)\n      0x08c379a000000000000000000000000000000000000000000000000000000000\n      dup2\n      mstore\n      0x04\n      add\n      tag_66\n      swap1\n      tag_67\n      jump\t// in\n    tag_66:\n      mload(0x40)\n      dup1\n      swap2\n      sub\n      swap1\n      revert\n    tag_65:\n        /* \"contracts/Vote/Vote.sol\":2925:2927  to */\n      dup2\n        /* \"contracts/Vote/Vote.sol\":2911:2927  msg.sender != to */\n      0xffffffffffffffffffffffffffffffffffffffff\n      and\n        /* \"contracts/Vote/Vote.sol\":2911:2921  msg.sender */\n      caller\n        /* \"contracts/Vote/Vote.sol\":2911:2927  msg.sender != to */\n      0xffffffffffffffffffffffffffffffffffffffff\n      and\n      sub\n        /* \"contracts/Vote/Vote.sol\":2903:2959  require(msg.sender != to,unicode\"不能委托给自己\") */\n      tag_68\n      jumpi\n      mload(0x40)\n      0x08c379a000000000000000000000000000000000000000000000000000000000\n      dup2\n      mstore\n      0x04\n      add\n      tag_69\n      swap1\n      tag_70\n      jump\t// in\n    tag_69:\n      mload(0x40)\n      dup1\n      swap2\n      sub\n      swap1\n      revert\n    tag_68:\n        /* \"contracts/Vote/Vote.sol\":3199:3615  while (voters[to].delegator != address(0)){... */\n    tag_71:\n        /* \"contracts/Vote/Vote.sol\":3238:3239  0 */\n      0x00\n        /* \"contracts/Vote/Vote.sol\":3206:3240  voters[to].delegator != address(0) */\n      0xffffffffffffffffffffffffffffffffffffffff\n      and\n        /* \"contracts/Vote/Vote.sol\":3206:3212  voters */\n      0x01\n        /* \"contracts/Vote/Vote.sol\":3206:3216  voters[to] */\n      0x00\n        /* \"contracts/Vote/Vote.sol\":3213:3215  to */\n      dup5\n        /* \"contracts/Vote/Vote.sol\":3206:3216  voters[to] */\n      0xffffffffffffffffffffffffffffffffffffffff\n      and\n      0xffffffffffffffffffffffffffffffffffffffff\n      and\n      dup2\n      mstore\n      0x20\n      add\n      swap1\n      dup2\n      mstore\n      0x20\n      add\n      0x00\n      keccak256\n        /* \"contracts/Vote/Vote.sol\":3206:3226  voters[to].delegator */\n      0x01\n      add\n      0x01\n      swap1\n      sload\n      swap1\n      0x0100\n      exp\n      swap1\n      div\n      0xffffffffffffffffffffffffffffffffffffffff\n      and\n        /* \"contracts/Vote/Vote.sol\":3206:3240  voters[to].delegator != address(0) */\n      0xffffffffffffffffffffffffffffffffffffffff\n      and\n      eq\n        /* \"contracts/Vote/Vote.sol\":3199:3615  while (voters[to].delegator != address(0)){... */\n      tag_72\n      jumpi\n        /* \"contracts/Vote/Vote.sol\":3366:3372  voters */\n      0x01\n        /* \"contracts/Vote/Vote.sol\":3366:3376  voters[to] */\n      0x00\n        /* \"contracts/Vote/Vote.sol\":3373:3375  to */\n      dup4\n        /* \"contracts/Vote/Vote.sol\":3366:3376  voters[to] */\n      0xffffffffffffffffffffffffffffffffffffffff\n      and\n      0xffffffffffffffffffffffffffffffffffffffff\n      and\n      dup2\n      mstore\n      0x20\n      add\n      swap1\n      dup2\n      mstore\n      0x20\n      add\n      0x00\n      keccak256\n        /* \"contracts/Vote/Vote.sol\":3366:3386  voters[to].delegator */\n      0x01\n      add\n      0x01\n      swap1\n      sload\n      swap1\n      0x0100\n      exp\n      swap1\n      div\n      0xffffffffffffffffffffffffffffffffffffffff\n      and\n        /* \"contracts/Vote/Vote.sol\":3361:3386  to = voters[to].delegator */\n      swap2\n      pop\n        /* \"contracts/Vote/Vote.sol\":3522:3532  msg.sender */\n      caller\n        /* \"contracts/Vote/Vote.sol\":3516:3532  to == msg.sender */\n      0xffffffffffffffffffffffffffffffffffffffff\n      and\n        /* \"contracts/Vote/Vote.sol\":3516:3518  to */\n      dup3\n        /* \"contracts/Vote/Vote.sol\":3516:3532  to == msg.sender */\n      0xffffffffffffffffffffffffffffffffffffffff\n      and\n      eq\n        /* \"contracts/Vote/Vote.sol\":3508:3603  require(to == msg.sender,unicode\"不能授权，因为委托一圈后票会回到自己手中\") */\n      tag_73\n      jumpi\n      mload(0x40)\n      0x08c379a000000000000000000000000000000000000000000000000000000000\n      dup2\n      mstore\n      0x04\n      add\n      tag_74\n      swap1\n      tag_75\n      jump\t// in\n    tag_74:\n      mload(0x40)\n      dup1\n      swap2\n      sub\n      swap1\n      revert\n    tag_73:\n        /* \"contracts/Vote/Vote.sol\":3199:3615  while (voters[to].delegator != address(0)){... */\n      jump(tag_71)\n    tag_72:\n        /* \"contracts/Vote/Vote.sol\":3695:3699  true */\n      0x01\n        /* \"contracts/Vote/Vote.sol\":3678:3684  sender */\n      dup2\n        /* \"contracts/Vote/Vote.sol\":3678:3692  sender.isVoted */\n      0x01\n      add\n      0x00\n        /* \"contracts/Vote/Vote.sol\":3678:3699  sender.isVoted = true */\n      0x0100\n      exp\n      dup2\n      sload\n      dup2\n      0xff\n      mul\n      not\n      and\n      swap1\n      dup4\n      iszero\n      iszero\n      mul\n      or\n      swap1\n      sstore\n      pop\n        /* \"contracts/Vote/Vote.sol\":3729:3731  to */\n      dup2\n        /* \"contracts/Vote/Vote.sol\":3710:3716  sender */\n      dup2\n        /* \"contracts/Vote/Vote.sol\":3710:3726  sender.delegator */\n      0x01\n      add\n      0x01\n        /* \"contracts/Vote/Vote.sol\":3710:3731  sender.delegator = to */\n      0x0100\n      exp\n      dup2\n      sload\n      dup2\n      0xffffffffffffffffffffffffffffffffffffffff\n      mul\n      not\n      and\n      swap1\n      dup4\n      0xffffffffffffffffffffffffffffffffffffffff\n      and\n      mul\n      or\n      swap1\n      sstore\n      pop\n        /* \"contracts/Vote/Vote.sol\":3780:3804  Voter storage delegator_ */\n      0x00\n        /* \"contracts/Vote/Vote.sol\":3807:3813  voters */\n      0x01\n        /* \"contracts/Vote/Vote.sol\":3807:3817  voters[to] */\n      0x00\n        /* \"contracts/Vote/Vote.sol\":3814:3816  to */\n      dup5\n        /* \"contracts/Vote/Vote.sol\":3807:3817  voters[to] */\n      0xffffffffffffffffffffffffffffffffffffffff\n      and\n      0xffffffffffffffffffffffffffffffffffffffff\n      and\n      dup2\n      mstore\n      0x20\n      add\n      swap1\n      dup2\n      mstore\n      0x20\n      add\n      0x00\n      keccak256\n        /* \"contracts/Vote/Vote.sol\":3780:3817  Voter storage delegator_ = voters[to] */\n      swap1\n      pop\n        /* \"contracts/Vote/Vote.sol\":3832:3842  delegator_ */\n      dup1\n        /* \"contracts/Vote/Vote.sol\":3832:3850  delegator_.isVoted */\n      0x01\n      add\n      0x00\n      swap1\n      sload\n      swap1\n      0x0100\n      exp\n      swap1\n      div\n      0xff\n      and\n        /* \"contracts/Vote/Vote.sol\":3828:4111  if (delegator_.isVoted) {... */\n      iszero\n      tag_76\n      jumpi\n        /* \"contracts/Vote/Vote.sol\":4019:4025  sender */\n      dup2\n        /* \"contracts/Vote/Vote.sol\":4019:4032  sender.amount */\n      0x00\n      add\n      sload\n        /* \"contracts/Vote/Vote.sol\":3977:3982  board */\n      0x02\n        /* \"contracts/Vote/Vote.sol\":3983:3993  delegator_ */\n      dup3\n        /* \"contracts/Vote/Vote.sol\":3983:4002  delegator_.targetId */\n      0x02\n      add\n      sload\n        /* \"contracts/Vote/Vote.sol\":3977:4003  board[delegator_.targetId] */\n      dup2\n      sload\n      dup2\n      lt\n      tag_77\n      jumpi\n      tag_78\n      tag_50\n      jump\t// in\n    tag_78:\n    tag_77:\n      swap1\n      0x00\n      mstore\n      keccak256(0x00, 0x20)\n      swap1\n      0x02\n      mul\n      add\n        /* \"contracts/Vote/Vote.sol\":3977:4015  board[delegator_.targetId].totalAmount */\n      0x01\n      add\n      0x00\n        /* \"contracts/Vote/Vote.sol\":3977:4032  board[delegator_.targetId].totalAmount += sender.amount */\n      dup3\n      dup3\n      sload\n      tag_80\n      swap2\n      swap1\n      tag_53\n      jump\t// in\n    tag_80:\n      swap3\n      pop\n      pop\n      dup2\n      swap1\n      sstore\n      pop\n        /* \"contracts/Vote/Vote.sol\":3828:4111  if (delegator_.isVoted) {... */\n      jump(tag_81)\n    tag_76:\n        /* \"contracts/Vote/Vote.sol\":4086:4092  sender */\n      dup2\n        /* \"contracts/Vote/Vote.sol\":4086:4099  sender.amount */\n      0x00\n      add\n      sload\n        /* \"contracts/Vote/Vote.sol\":4065:4075  delegator_ */\n      dup2\n        /* \"contracts/Vote/Vote.sol\":4065:4082  delegator_.amount */\n      0x00\n      add\n      0x00\n        /* \"contracts/Vote/Vote.sol\":4065:4099  delegator_.amount += sender.amount */\n      dup3\n      dup3\n      sload\n      tag_82\n      swap2\n      swap1\n      tag_53\n      jump\t// in\n    tag_82:\n      swap3\n      pop\n      pop\n      dup2\n      swap1\n      sstore\n      pop\n        /* \"contracts/Vote/Vote.sol\":3828:4111  if (delegator_.isVoted) {... */\n    tag_81:\n        /* \"contracts/Vote/Vote.sol\":2516:4122  {... */\n      pop\n      pop\n        /* \"contracts/Vote/Vote.sol\":2478:4122  function delegate(address to) public  {... */\n      pop\n      jump\t// out\n        /* \"contracts/Vote/Vote.sol\":1994:2446  function mandate(address[] calldata addressList) public {... */\n    tag_27:\n        /* \"contracts/Vote/Vote.sol\":2132:2136  host */\n      0x00\n      dup1\n      sload\n      swap1\n      0x0100\n      exp\n      swap1\n      div\n      0xffffffffffffffffffffffffffffffffffffffff\n      and\n        /* \"contracts/Vote/Vote.sol\":2118:2136  msg.sender == host */\n      0xffffffffffffffffffffffffffffffffffffffff\n      and\n        /* \"contracts/Vote/Vote.sol\":2118:2128  msg.sender */\n      caller\n        /* \"contracts/Vote/Vote.sol\":2118:2136  msg.sender == host */\n      0xffffffffffffffffffffffffffffffffffffffff\n      and\n      eq\n        /* \"contracts/Vote/Vote.sol\":2110:2180  require(msg.sender == host,unicode\"只有主持人才有这个权力\") */\n      tag_84\n      jumpi\n      mload(0x40)\n      0x08c379a000000000000000000000000000000000000000000000000000000000\n      dup2\n      mstore\n      0x04\n      add\n      tag_85\n      swap1\n      tag_86\n      jump\t// in\n    tag_85:\n      mload(0x40)\n      dup1\n      swap2\n      sub\n      swap1\n      revert\n    tag_84:\n        /* \"contracts/Vote/Vote.sol\":2195:2204  uint256 i */\n      0x00\n        /* \"contracts/Vote/Vote.sol\":2191:2436  for(uint256 i=0; i<addressList.length; i++) {... */\n    tag_87:\n        /* \"contracts/Vote/Vote.sol\":2210:2221  addressList */\n      dup3\n      dup3\n        /* \"contracts/Vote/Vote.sol\":2210:2228  addressList.length */\n      swap1\n      pop\n        /* \"contracts/Vote/Vote.sol\":2208:2209  i */\n      dup2\n        /* \"contracts/Vote/Vote.sol\":2208:2228  i<addressList.length */\n      lt\n        /* \"contracts/Vote/Vote.sol\":2191:2436  for(uint256 i=0; i<addressList.length; i++) {... */\n      iszero\n      tag_88\n      jumpi\n        /* \"contracts/Vote/Vote.sol\":2325:2331  voters */\n      0x01\n        /* \"contracts/Vote/Vote.sol\":2325:2347  voters[addressList[i]] */\n      0x00\n        /* \"contracts/Vote/Vote.sol\":2332:2343  addressList */\n      dup5\n      dup5\n        /* \"contracts/Vote/Vote.sol\":2344:2345  i */\n      dup5\n        /* \"contracts/Vote/Vote.sol\":2332:2346  addressList[i] */\n      dup2\n      dup2\n      lt\n      tag_90\n      jumpi\n      tag_91\n      tag_50\n      jump\t// in\n    tag_91:\n    tag_90:\n      swap1\n      pop\n      0x20\n      mul\n      add\n      0x20\n      dup2\n      add\n      swap1\n      tag_92\n      swap2\n      swap1\n      tag_22\n      jump\t// in\n    tag_92:\n        /* \"contracts/Vote/Vote.sol\":2325:2347  voters[addressList[i]] */\n      0xffffffffffffffffffffffffffffffffffffffff\n      and\n      0xffffffffffffffffffffffffffffffffffffffff\n      and\n      dup2\n      mstore\n      0x20\n      add\n      swap1\n      dup2\n      mstore\n      0x20\n      add\n      0x00\n      keccak256\n        /* \"contracts/Vote/Vote.sol\":2325:2355  voters[addressList[i]].isVoted */\n      0x01\n      add\n      0x00\n      swap1\n      sload\n      swap1\n      0x0100\n      exp\n      swap1\n      div\n      0xff\n      and\n        /* \"contracts/Vote/Vote.sol\":2320:2423  if (!voters[addressList[i]].isVoted){... */\n      tag_93\n      jumpi\n        /* \"contracts/Vote/Vote.sol\":2406:2407  1 */\n      0x01\n        /* \"contracts/Vote/Vote.sol\":2375:2381  voters */\n      dup1\n        /* \"contracts/Vote/Vote.sol\":2375:2397  voters[addressList[i]] */\n      0x00\n        /* \"contracts/Vote/Vote.sol\":2382:2393  addressList */\n      dup6\n      dup6\n        /* \"contracts/Vote/Vote.sol\":2394:2395  i */\n      dup6\n        /* \"contracts/Vote/Vote.sol\":2382:2396  addressList[i] */\n      dup2\n      dup2\n      lt\n      tag_94\n      jumpi\n      tag_95\n      tag_50\n      jump\t// in\n    tag_95:\n    tag_94:\n      swap1\n      pop\n      0x20\n      mul\n      add\n      0x20\n      dup2\n      add\n      swap1\n      tag_96\n      swap2\n      swap1\n      tag_22\n      jump\t// in\n    tag_96:\n        /* \"contracts/Vote/Vote.sol\":2375:2397  voters[addressList[i]] */\n      0xffffffffffffffffffffffffffffffffffffffff\n      and\n      0xffffffffffffffffffffffffffffffffffffffff\n      and\n      dup2\n      mstore\n      0x20\n      add\n      swap1\n      dup2\n      mstore\n      0x20\n      add\n      0x00\n      keccak256\n        /* \"contracts/Vote/Vote.sol\":2375:2404  voters[addressList[i]].amount */\n      0x00\n      add\n        /* \"contracts/Vote/Vote.sol\":2375:2407  voters[addressList[i]].amount =1 */\n      dup2\n      swap1\n      sstore\n      pop\n        /* \"contracts/Vote/Vote.sol\":2320:2423  if (!voters[addressList[i]].isVoted){... */\n    tag_93:\n        /* \"contracts/Vote/Vote.sol\":2230:2233  i++ */\n      dup1\n      dup1\n      tag_97\n      swap1\n      tag_98\n      jump\t// in\n    tag_97:\n      swap2\n      pop\n      pop\n        /* \"contracts/Vote/Vote.sol\":2191:2436  for(uint256 i=0; i<addressList.length; i++) {... */\n      jump(tag_87)\n    tag_88:\n      pop\n        /* \"contracts/Vote/Vote.sol\":1994:2446  function mandate(address[] calldata addressList) public {... */\n      pop\n      pop\n      jump\t// out\n        /* \"contracts/Vote/Vote.sol\":610:649  mapping(address => Voter) public voters */\n    tag_30:\n      mstore(0x20, 0x01)\n      dup1\n      0x00\n      mstore\n      keccak256(0x00, 0x40)\n      0x00\n      swap2\n      pop\n      swap1\n      pop\n      dup1\n      0x00\n      add\n      sload\n      swap1\n      dup1\n      0x01\n      add\n      0x00\n      swap1\n      sload\n      swap1\n      0x0100\n      exp\n      swap1\n      div\n      0xff\n      and\n      swap1\n      dup1\n      0x01\n      add\n      0x01\n      swap1\n      sload\n      swap1\n      0x0100\n      exp\n      swap1\n      div\n      0xffffffffffffffffffffffffffffffffffffffff\n      and\n      swap1\n      dup1\n      0x02\n      add\n      sload\n      swap1\n      pop\n      dup5\n      jump\t// out\n        /* \"contracts/Vote/Vote.sol\":1857:1947  function getBoardInfo() public view returns(Board[] memory){... */\n    tag_34:\n        /* \"contracts/Vote/Vote.sol\":1901:1915  Board[] memory */\n      0x60\n        /* \"contracts/Vote/Vote.sol\":1934:1939  board */\n      0x02\n        /* \"contracts/Vote/Vote.sol\":1927:1939  return board */\n      dup1\n      sload\n      dup1\n      0x20\n      mul\n      0x20\n      add\n      mload(0x40)\n      swap1\n      dup2\n      add\n      0x40\n      mstore\n      dup1\n      swap3\n      swap2\n      swap1\n      dup2\n      dup2\n      mstore\n      0x20\n      add\n      0x00\n      swap1\n    tag_100:\n      dup3\n      dup3\n      lt\n      iszero\n      tag_101\n      jumpi\n      dup4\n      dup3\n      swap1\n      0x00\n      mstore\n      keccak256(0x00, 0x20)\n      swap1\n      0x02\n      mul\n      add\n      mload(0x40)\n      dup1\n      0x40\n      add\n      0x40\n      mstore\n      swap1\n      dup2\n      0x00\n      dup3\n      add\n      dup1\n      sload\n      tag_103\n      swap1\n      tag_59\n      jump\t// in\n    tag_103:\n      dup1\n      0x1f\n      add\n      0x20\n      dup1\n      swap2\n      div\n      mul\n      0x20\n      add\n      mload(0x40)\n      swap1\n      dup2\n      add\n      0x40\n      mstore\n      dup1\n      swap3\n      swap2\n      swap1\n      dup2\n      dup2\n      mstore\n      0x20\n      add\n      dup3\n      dup1\n      sload\n      tag_104\n      swap1\n      tag_59\n      jump\t// in\n    tag_104:\n      dup1\n      iszero\n      tag_105\n      jumpi\n      dup1\n      0x1f\n      lt\n      tag_106\n      jumpi\n      0x0100\n      dup1\n      dup4\n      sload\n      div\n      mul\n      dup4\n      mstore\n      swap2\n      0x20\n      add\n      swap2\n      jump(tag_105)\n    tag_106:\n      dup3\n      add\n      swap2\n      swap1\n      0x00\n      mstore\n      keccak256(0x00, 0x20)\n      swap1\n    tag_107:\n      dup2\n      sload\n      dup2\n      mstore\n      swap1\n      0x01\n      add\n      swap1\n      0x20\n      add\n      dup1\n      dup4\n      gt\n      tag_107\n      jumpi\n      dup3\n      swap1\n      sub\n      0x1f\n      and\n      dup3\n      add\n      swap2\n    tag_105:\n      pop\n      pop\n      pop\n      pop\n      pop\n      dup2\n      mstore\n      0x20\n      add\n      0x01\n      dup3\n      add\n      sload\n      dup2\n      mstore\n      pop\n      pop\n      dup2\n      mstore\n      0x20\n      add\n      swap1\n      0x01\n      add\n      swap1\n      jump(tag_100)\n    tag_101:\n      pop\n      pop\n      pop\n      pop\n      swap1\n      pop\n        /* \"contracts/Vote/Vote.sol\":1857:1947  function getBoardInfo() public view returns(Board[] memory){... */\n      swap1\n      jump\t// out\n        /* \"contracts/Vote/Vote.sol\":553:572  address public host */\n    tag_38:\n      0x00\n      dup1\n      sload\n      swap1\n      0x0100\n      exp\n      swap1\n      div\n      0xffffffffffffffffffffffffffffffffffffffff\n      and\n      dup2\n      jump\t// out\n        /* \"#utility.yul\":88:205   */\n    tag_109:\n        /* \"#utility.yul\":197:198   */\n      0x00\n        /* \"#utility.yul\":194:195   */\n      dup1\n        /* \"#utility.yul\":187:199   */\n      revert\n        /* \"#utility.yul\":211:328   */\n    tag_110:\n        /* \"#utility.yul\":320:321   */\n      0x00\n        /* \"#utility.yul\":317:318   */\n      dup1\n        /* \"#utility.yul\":310:322   */\n      revert\n        /* \"#utility.yul\":334:411   */\n    tag_111:\n        /* \"#utility.yul\":371:378   */\n      0x00\n        /* \"#utility.yul\":400:405   */\n      dup2\n        /* \"#utility.yul\":389:405   */\n      swap1\n      pop\n        /* \"#utility.yul\":334:411   */\n      swap2\n      swap1\n      pop\n      jump\t// out\n        /* \"#utility.yul\":417:539   */\n    tag_112:\n        /* \"#utility.yul\":490:514   */\n      tag_163\n        /* \"#utility.yul\":508:513   */\n      dup2\n        /* \"#utility.yul\":490:514   */\n      tag_111\n      jump\t// in\n    tag_163:\n        /* \"#utility.yul\":483:488   */\n      dup2\n        /* \"#utility.yul\":480:515   */\n      eq\n        /* \"#utility.yul\":470:533   */\n      tag_164\n      jumpi\n        /* \"#utility.yul\":529:530   */\n      0x00\n        /* \"#utility.yul\":526:527   */\n      dup1\n        /* \"#utility.yul\":519:531   */\n      revert\n        /* \"#utility.yul\":470:533   */\n    tag_164:\n        /* \"#utility.yul\":417:539   */\n      pop\n      jump\t// out\n        /* \"#utility.yul\":545:684   */\n    tag_113:\n        /* \"#utility.yul\":591:596   */\n      0x00\n        /* \"#utility.yul\":629:635   */\n      dup2\n        /* \"#utility.yul\":616:636   */\n      calldataload\n        /* \"#utility.yul\":607:636   */\n      swap1\n      pop\n        /* \"#utility.yul\":645:678   */\n      tag_166\n        /* \"#utility.yul\":672:677   */\n      dup2\n        /* \"#utility.yul\":645:678   */\n      tag_112\n      jump\t// in\n    tag_166:\n        /* \"#utility.yul\":545:684   */\n      swap3\n      swap2\n      pop\n      pop\n      jump\t// out\n        /* \"#utility.yul\":690:1019   */\n    tag_13:\n        /* \"#utility.yul\":749:755   */\n      0x00\n        /* \"#utility.yul\":798:800   */\n      0x20\n        /* \"#utility.yul\":786:795   */\n      dup3\n        /* \"#utility.yul\":777:784   */\n      dup5\n        /* \"#utility.yul\":773:796   */\n      sub\n        /* \"#utility.yul\":769:801   */\n      slt\n        /* \"#utility.yul\":766:885   */\n      iszero\n      tag_168\n      jumpi\n        /* \"#utility.yul\":804:883   */\n      tag_169\n      tag_109\n      jump\t// in\n    tag_169:\n        /* \"#utility.yul\":766:885   */\n    tag_168:\n        /* \"#utility.yul\":924:925   */\n      0x00\n        /* \"#utility.yul\":949:1002   */\n      tag_170\n        /* \"#utility.yul\":994:1001   */\n      dup5\n        /* \"#utility.yul\":985:991   */\n      dup3\n        /* \"#utility.yul\":974:983   */\n      dup6\n        /* \"#utility.yul\":970:992   */\n      add\n        /* \"#utility.yul\":949:1002   */\n      tag_113\n      jump\t// in\n    tag_170:\n        /* \"#utility.yul\":939:1002   */\n      swap2\n      pop\n        /* \"#utility.yul\":895:1012   */\n      pop\n        /* \"#utility.yul\":690:1019   */\n      swap3\n      swap2\n      pop\n      pop\n      jump\t// out\n        /* \"#utility.yul\":1025:1124   */\n    tag_114:\n        /* \"#utility.yul\":1077:1083   */\n      0x00\n        /* \"#utility.yul\":1111:1116   */\n      dup2\n        /* \"#utility.yul\":1105:1117   */\n      mload\n        /* \"#utility.yul\":1095:1117   */\n      swap1\n      pop\n        /* \"#utility.yul\":1025:1124   */\n      swap2\n      swap1\n      pop\n      jump\t// out\n        /* \"#utility.yul\":1130:1299   */\n    tag_115:\n        /* \"#utility.yul\":1214:1225   */\n      0x00\n        /* \"#utility.yul\":1248:1254   */\n      dup3\n        /* \"#utility.yul\":1243:1246   */\n      dup3\n        /* \"#utility.yul\":1236:1255   */\n      mstore\n        /* \"#utility.yul\":1288:1292   */\n      0x20\n        /* \"#utility.yul\":1283:1286   */\n      dup3\n        /* \"#utility.yul\":1279:1293   */\n      add\n        /* \"#utility.yul\":1264:1293   */\n      swap1\n      pop\n        /* \"#utility.yul\":1130:1299   */\n      swap3\n      swap2\n      pop\n      pop\n      jump\t// out\n        /* \"#utility.yul\":1305:1551   */\n    tag_116:\n        /* \"#utility.yul\":1386:1387   */\n      0x00\n        /* \"#utility.yul\":1396:1509   */\n    tag_174:\n        /* \"#utility.yul\":1410:1416   */\n      dup4\n        /* \"#utility.yul\":1407:1408   */\n      dup2\n        /* \"#utility.yul\":1404:1417   */\n      lt\n        /* \"#utility.yul\":1396:1509   */\n      iszero\n      tag_176\n      jumpi\n        /* \"#utility.yul\":1495:1496   */\n      dup1\n        /* \"#utility.yul\":1490:1493   */\n      dup3\n        /* \"#utility.yul\":1486:1497   */\n      add\n        /* \"#utility.yul\":1480:1498   */\n      mload\n        /* \"#utility.yul\":1476:1477   */\n      dup2\n        /* \"#utility.yul\":1471:1474   */\n      dup5\n        /* \"#utility.yul\":1467:1478   */\n      add\n        /* \"#utility.yul\":1460:1499   */\n      mstore\n        /* \"#utility.yul\":1432:1434   */\n      0x20\n        /* \"#utility.yul\":1429:1430   */\n      dup2\n        /* \"#utility.yul\":1425:1435   */\n      add\n        /* \"#utility.yul\":1420:1435   */\n      swap1\n      pop\n        /* \"#utility.yul\":1396:1509   */\n      jump(tag_174)\n    tag_176:\n        /* \"#utility.yul\":1543:1544   */\n      0x00\n        /* \"#utility.yul\":1534:1540   */\n      dup5\n        /* \"#utility.yul\":1529:1532   */\n      dup5\n        /* \"#utility.yul\":1525:1541   */\n      add\n        /* \"#utility.yul\":1518:1545   */\n      mstore\n        /* \"#utility.yul\":1367:1551   */\n      pop\n        /* \"#utility.yul\":1305:1551   */\n      pop\n      pop\n      pop\n      jump\t// out\n        /* \"#utility.yul\":1557:1659   */\n    tag_117:\n        /* \"#utility.yul\":1598:1604   */\n      0x00\n        /* \"#utility.yul\":1649:1651   */\n      0x1f\n        /* \"#utility.yul\":1645:1652   */\n      not\n        /* \"#utility.yul\":1640:1642   */\n      0x1f\n        /* \"#utility.yul\":1633:1638   */\n      dup4\n        /* \"#utility.yul\":1629:1643   */\n      add\n        /* \"#utility.yul\":1625:1653   */\n      and\n        /* \"#utility.yul\":1615:1653   */\n      swap1\n      pop\n        /* \"#utility.yul\":1557:1659   */\n      swap2\n      swap1\n      pop\n      jump\t// out\n        /* \"#utility.yul\":1665:2042   */\n    tag_118:\n        /* \"#utility.yul\":1753:1756   */\n      0x00\n        /* \"#utility.yul\":1781:1820   */\n      tag_179\n        /* \"#utility.yul\":1814:1819   */\n      dup3\n        /* \"#utility.yul\":1781:1820   */\n      tag_114\n      jump\t// in\n    tag_179:\n        /* \"#utility.yul\":1836:1907   */\n      tag_180\n        /* \"#utility.yul\":1900:1906   */\n      dup2\n        /* \"#utility.yul\":1895:1898   */\n      dup6\n        /* \"#utility.yul\":1836:1907   */\n      tag_115\n      jump\t// in\n    tag_180:\n        /* \"#utility.yul\":1829:1907   */\n      swap4\n      pop\n        /* \"#utility.yul\":1916:1981   */\n      tag_181\n        /* \"#utility.yul\":1974:1980   */\n      dup2\n        /* \"#utility.yul\":1969:1972   */\n      dup6\n        /* \"#utility.yul\":1962:1966   */\n      0x20\n        /* \"#utility.yul\":1955:1960   */\n      dup7\n        /* \"#utility.yul\":1951:1967   */\n      add\n        /* \"#utility.yul\":1916:1981   */\n      tag_116\n      jump\t// in\n    tag_181:\n        /* \"#utility.yul\":2006:2035   */\n      tag_182\n        /* \"#utility.yul\":2028:2034   */\n      dup2\n        /* \"#utility.yul\":2006:2035   */\n      tag_117\n      jump\t// in\n    tag_182:\n        /* \"#utility.yul\":2001:2004   */\n      dup5\n        /* \"#utility.yul\":1997:2036   */\n      add\n        /* \"#utility.yul\":1990:2036   */\n      swap2\n      pop\n        /* \"#utility.yul\":1757:2042   */\n      pop\n        /* \"#utility.yul\":1665:2042   */\n      swap3\n      swap2\n      pop\n      pop\n      jump\t// out\n        /* \"#utility.yul\":2048:2166   */\n    tag_119:\n        /* \"#utility.yul\":2135:2159   */\n      tag_184\n        /* \"#utility.yul\":2153:2158   */\n      dup2\n        /* \"#utility.yul\":2135:2159   */\n      tag_111\n      jump\t// in\n    tag_184:\n        /* \"#utility.yul\":2130:2133   */\n      dup3\n        /* \"#utility.yul\":2123:2160   */\n      mstore\n        /* \"#utility.yul\":2048:2166   */\n      pop\n      pop\n      jump\t// out\n        /* \"#utility.yul\":2172:2595   */\n    tag_19:\n        /* \"#utility.yul\":2313:2317   */\n      0x00\n        /* \"#utility.yul\":2351:2353   */\n      0x40\n        /* \"#utility.yul\":2340:2349   */\n      dup3\n        /* \"#utility.yul\":2336:2354   */\n      add\n        /* \"#utility.yul\":2328:2354   */\n      swap1\n      pop\n        /* \"#utility.yul\":2400:2409   */\n      dup2\n        /* \"#utility.yul\":2394:2398   */\n      dup2\n        /* \"#utility.yul\":2390:2410   */\n      sub\n        /* \"#utility.yul\":2386:2387   */\n      0x00\n        /* \"#utility.yul\":2375:2384   */\n      dup4\n        /* \"#utility.yul\":2371:2388   */\n      add\n        /* \"#utility.yul\":2364:2411   */\n      mstore\n        /* \"#utility.yul\":2428:2506   */\n      tag_186\n        /* \"#utility.yul\":2501:2505   */\n      dup2\n        /* \"#utility.yul\":2492:2498   */\n      dup6\n        /* \"#utility.yul\":2428:2506   */\n      tag_118\n      jump\t// in\n    tag_186:\n        /* \"#utility.yul\":2420:2506   */\n      swap1\n      pop\n        /* \"#utility.yul\":2516:2588   */\n      tag_187\n        /* \"#utility.yul\":2584:2586   */\n      0x20\n        /* \"#utility.yul\":2573:2582   */\n      dup4\n        /* \"#utility.yul\":2569:2587   */\n      add\n        /* \"#utility.yul\":2560:2566   */\n      dup5\n        /* \"#utility.yul\":2516:2588   */\n      tag_119\n      jump\t// in\n    tag_187:\n        /* \"#utility.yul\":2172:2595   */\n      swap4\n      swap3\n      pop\n      pop\n      pop\n      jump\t// out\n        /* \"#utility.yul\":2601:2727   */\n    tag_120:\n        /* \"#utility.yul\":2638:2645   */\n      0x00\n        /* \"#utility.yul\":2678:2720   */\n      0xffffffffffffffffffffffffffffffffffffffff\n        /* \"#utility.yul\":2671:2676   */\n      dup3\n        /* \"#utility.yul\":2667:2721   */\n      and\n        /* \"#utility.yul\":2656:2721   */\n      swap1\n      pop\n        /* \"#utility.yul\":2601:2727   */\n      swap2\n      swap1\n      pop\n      jump\t// out\n        /* \"#utility.yul\":2733:2829   */\n    tag_121:\n        /* \"#utility.yul\":2770:2777   */\n      0x00\n        /* \"#utility.yul\":2799:2823   */\n      tag_190\n        /* \"#utility.yul\":2817:2822   */\n      dup3\n        /* \"#utility.yul\":2799:2823   */\n      tag_120\n      jump\t// in\n    tag_190:\n        /* \"#utility.yul\":2788:2823   */\n      swap1\n      pop\n        /* \"#utility.yul\":2733:2829   */\n      swap2\n      swap1\n      pop\n      jump\t// out\n        /* \"#utility.yul\":2835:2957   */\n    tag_122:\n        /* \"#utility.yul\":2908:2932   */\n      tag_192\n        /* \"#utility.yul\":2926:2931   */\n      dup2\n        /* \"#utility.yul\":2908:2932   */\n      tag_121\n      jump\t// in\n    tag_192:\n        /* \"#utility.yul\":2901:2906   */\n      dup2\n        /* \"#utility.yul\":2898:2933   */\n      eq\n        /* \"#utility.yul\":2888:2951   */\n      tag_193\n      jumpi\n        /* \"#utility.yul\":2947:2948   */\n      0x00\n        /* \"#utility.yul\":2944:2945   */\n      dup1\n        /* \"#utility.yul\":2937:2949   */\n      revert\n        /* \"#utility.yul\":2888:2951   */\n    tag_193:\n        /* \"#utility.yul\":2835:2957   */\n      pop\n      jump\t// out\n        /* \"#utility.yul\":2963:3102   */\n    tag_123:\n        /* \"#utility.yul\":3009:3014   */\n      0x00\n        /* \"#utility.yul\":3047:3053   */\n      dup2\n        /* \"#utility.yul\":3034:3054   */\n      calldataload\n        /* \"#utility.yul\":3025:3054   */\n      swap1\n      pop\n        /* \"#utility.yul\":3063:3096   */\n      tag_195\n        /* \"#utility.yul\":3090:3095   */\n      dup2\n        /* \"#utility.yul\":3063:3096   */\n      tag_122\n      jump\t// in\n    tag_195:\n        /* \"#utility.yul\":2963:3102   */\n      swap3\n      swap2\n      pop\n      pop\n      jump\t// out\n        /* \"#utility.yul\":3108:3437   */\n    tag_22:\n        /* \"#utility.yul\":3167:3173   */\n      0x00\n        /* \"#utility.yul\":3216:3218   */\n      0x20\n        /* \"#utility.yul\":3204:3213   */\n      dup3\n        /* \"#utility.yul\":3195:3202   */\n      dup5\n        /* \"#utility.yul\":3191:3214   */\n      sub\n        /* \"#utility.yul\":3187:3219   */\n      slt\n        /* \"#utility.yul\":3184:3303   */\n      iszero\n      tag_197\n      jumpi\n        /* \"#utility.yul\":3222:3301   */\n      tag_198\n      tag_109\n      jump\t// in\n    tag_198:\n        /* \"#utility.yul\":3184:3303   */\n    tag_197:\n        /* \"#utility.yul\":3342:3343   */\n      0x00\n        /* \"#utility.yul\":3367:3420   */\n      tag_199\n        /* \"#utility.yul\":3412:3419   */\n      dup5\n        /* \"#utility.yul\":3403:3409   */\n      dup3\n        /* \"#utility.yul\":3392:3401   */\n      dup6\n        /* \"#utility.yul\":3388:3410   */\n      add\n        /* \"#utility.yul\":3367:3420   */\n      tag_123\n      jump\t// in\n    tag_199:\n        /* \"#utility.yul\":3357:3420   */\n      swap2\n      pop\n        /* \"#utility.yul\":3313:3430   */\n      pop\n        /* \"#utility.yul\":3108:3437   */\n      swap3\n      swap2\n      pop\n      pop\n      jump\t// out\n        /* \"#utility.yul\":3443:3560   */\n    tag_124:\n        /* \"#utility.yul\":3552:3553   */\n      0x00\n        /* \"#utility.yul\":3549:3550   */\n      dup1\n        /* \"#utility.yul\":3542:3554   */\n      revert\n        /* \"#utility.yul\":3566:3683   */\n    tag_125:\n        /* \"#utility.yul\":3675:3676   */\n      0x00\n        /* \"#utility.yul\":3672:3673   */\n      dup1\n        /* \"#utility.yul\":3665:3677   */\n      revert\n        /* \"#utility.yul\":3689:3806   */\n    tag_126:\n        /* \"#utility.yul\":3798:3799   */\n      0x00\n        /* \"#utility.yul\":3795:3796   */\n      dup1\n        /* \"#utility.yul\":3788:3800   */\n      revert\n        /* \"#utility.yul\":3829:4397   */\n    tag_127:\n        /* \"#utility.yul\":3902:3910   */\n      0x00\n        /* \"#utility.yul\":3912:3918   */\n      dup1\n        /* \"#utility.yul\":3962:3965   */\n      dup4\n        /* \"#utility.yul\":3955:3959   */\n      0x1f\n        /* \"#utility.yul\":3947:3953   */\n      dup5\n        /* \"#utility.yul\":3943:3960   */\n      add\n        /* \"#utility.yul\":3939:3966   */\n      slt\n        /* \"#utility.yul\":3929:4051   */\n      tag_204\n      jumpi\n        /* \"#utility.yul\":3970:4049   */\n      tag_205\n      tag_124\n      jump\t// in\n    tag_205:\n        /* \"#utility.yul\":3929:4051   */\n    tag_204:\n        /* \"#utility.yul\":4083:4089   */\n      dup3\n        /* \"#utility.yul\":4070:4090   */\n      calldataload\n        /* \"#utility.yul\":4060:4090   */\n      swap1\n      pop\n        /* \"#utility.yul\":4113:4131   */\n      0xffffffffffffffff\n        /* \"#utility.yul\":4105:4111   */\n      dup2\n        /* \"#utility.yul\":4102:4132   */\n      gt\n        /* \"#utility.yul\":4099:4216   */\n      iszero\n      tag_206\n      jumpi\n        /* \"#utility.yul\":4135:4214   */\n      tag_207\n      tag_125\n      jump\t// in\n    tag_207:\n        /* \"#utility.yul\":4099:4216   */\n    tag_206:\n        /* \"#utility.yul\":4249:4253   */\n      0x20\n        /* \"#utility.yul\":4241:4247   */\n      dup4\n        /* \"#utility.yul\":4237:4254   */\n      add\n        /* \"#utility.yul\":4225:4254   */\n      swap2\n      pop\n        /* \"#utility.yul\":4303:4306   */\n      dup4\n        /* \"#utility.yul\":4295:4299   */\n      0x20\n        /* \"#utility.yul\":4287:4293   */\n      dup3\n        /* \"#utility.yul\":4283:4300   */\n      mul\n        /* \"#utility.yul\":4273:4281   */\n      dup4\n        /* \"#utility.yul\":4269:4301   */\n      add\n        /* \"#utility.yul\":4266:4307   */\n      gt\n        /* \"#utility.yul\":4263:4391   */\n      iszero\n      tag_208\n      jumpi\n        /* \"#utility.yul\":4310:4389   */\n      tag_209\n      tag_126\n      jump\t// in\n    tag_209:\n        /* \"#utility.yul\":4263:4391   */\n    tag_208:\n        /* \"#utility.yul\":3829:4397   */\n      swap3\n      pop\n      swap3\n      swap1\n      pop\n      jump\t// out\n        /* \"#utility.yul\":4403:4962   */\n    tag_26:\n        /* \"#utility.yul\":4489:4495   */\n      0x00\n        /* \"#utility.yul\":4497:4503   */\n      dup1\n        /* \"#utility.yul\":4546:4548   */\n      0x20\n        /* \"#utility.yul\":4534:4543   */\n      dup4\n        /* \"#utility.yul\":4525:4532   */\n      dup6\n        /* \"#utility.yul\":4521:4544   */\n      sub\n        /* \"#utility.yul\":4517:4549   */\n      slt\n        /* \"#utility.yul\":4514:4633   */\n      iszero\n      tag_211\n      jumpi\n        /* \"#utility.yul\":4552:4631   */\n      tag_212\n      tag_109\n      jump\t// in\n    tag_212:\n        /* \"#utility.yul\":4514:4633   */\n    tag_211:\n        /* \"#utility.yul\":4700:4701   */\n      0x00\n        /* \"#utility.yul\":4689:4698   */\n      dup4\n        /* \"#utility.yul\":4685:4702   */\n      add\n        /* \"#utility.yul\":4672:4703   */\n      calldataload\n        /* \"#utility.yul\":4730:4748   */\n      0xffffffffffffffff\n        /* \"#utility.yul\":4722:4728   */\n      dup2\n        /* \"#utility.yul\":4719:4749   */\n      gt\n        /* \"#utility.yul\":4716:4833   */\n      iszero\n      tag_213\n      jumpi\n        /* \"#utility.yul\":4752:4831   */\n      tag_214\n      tag_110\n      jump\t// in\n    tag_214:\n        /* \"#utility.yul\":4716:4833   */\n    tag_213:\n        /* \"#utility.yul\":4865:4945   */\n      tag_215\n        /* \"#utility.yul\":4937:4944   */\n      dup6\n        /* \"#utility.yul\":4928:4934   */\n      dup3\n        /* \"#utility.yul\":4917:4926   */\n      dup7\n        /* \"#utility.yul\":4913:4935   */\n      add\n        /* \"#utility.yul\":4865:4945   */\n      tag_127\n      jump\t// in\n    tag_215:\n        /* \"#utility.yul\":4847:4945   */\n      swap3\n      pop\n      swap3\n      pop\n        /* \"#utility.yul\":4643:4955   */\n      pop\n        /* \"#utility.yul\":4403:4962   */\n      swap3\n      pop\n      swap3\n      swap1\n      pop\n      jump\t// out\n        /* \"#utility.yul\":4968:5058   */\n    tag_128:\n        /* \"#utility.yul\":5002:5009   */\n      0x00\n        /* \"#utility.yul\":5045:5050   */\n      dup2\n        /* \"#utility.yul\":5038:5051   */\n      iszero\n        /* \"#utility.yul\":5031:5052   */\n      iszero\n        /* \"#utility.yul\":5020:5052   */\n      swap1\n      pop\n        /* \"#utility.yul\":4968:5058   */\n      swap2\n      swap1\n      pop\n      jump\t// out\n        /* \"#utility.yul\":5064:5173   */\n    tag_129:\n        /* \"#utility.yul\":5145:5166   */\n      tag_218\n        /* \"#utility.yul\":5160:5165   */\n      dup2\n        /* \"#utility.yul\":5145:5166   */\n      tag_128\n      jump\t// in\n    tag_218:\n        /* \"#utility.yul\":5140:5143   */\n      dup3\n        /* \"#utility.yul\":5133:5167   */\n      mstore\n        /* \"#utility.yul\":5064:5173   */\n      pop\n      pop\n      jump\t// out\n        /* \"#utility.yul\":5179:5297   */\n    tag_130:\n        /* \"#utility.yul\":5266:5290   */\n      tag_220\n        /* \"#utility.yul\":5284:5289   */\n      dup2\n        /* \"#utility.yul\":5266:5290   */\n      tag_121\n      jump\t// in\n    tag_220:\n        /* \"#utility.yul\":5261:5264   */\n      dup3\n        /* \"#utility.yul\":5254:5291   */\n      mstore\n        /* \"#utility.yul\":5179:5297   */\n      pop\n      pop\n      jump\t// out\n        /* \"#utility.yul\":5303:5844   */\n    tag_32:\n        /* \"#utility.yul\":5474:5478   */\n      0x00\n        /* \"#utility.yul\":5512:5515   */\n      0x80\n        /* \"#utility.yul\":5501:5510   */\n      dup3\n        /* \"#utility.yul\":5497:5516   */\n      add\n        /* \"#utility.yul\":5489:5516   */\n      swap1\n      pop\n        /* \"#utility.yul\":5526:5597   */\n      tag_222\n        /* \"#utility.yul\":5594:5595   */\n      0x00\n        /* \"#utility.yul\":5583:5592   */\n      dup4\n        /* \"#utility.yul\":5579:5596   */\n      add\n        /* \"#utility.yul\":5570:5576   */\n      dup8\n        /* \"#utility.yul\":5526:5597   */\n      tag_119\n      jump\t// in\n    tag_222:\n        /* \"#utility.yul\":5607:5673   */\n      tag_223\n        /* \"#utility.yul\":5669:5671   */\n      0x20\n        /* \"#utility.yul\":5658:5667   */\n      dup4\n        /* \"#utility.yul\":5654:5672   */\n      add\n        /* \"#utility.yul\":5645:5651   */\n      dup7\n        /* \"#utility.yul\":5607:5673   */\n      tag_129\n      jump\t// in\n    tag_223:\n        /* \"#utility.yul\":5683:5755   */\n      tag_224\n        /* \"#utility.yul\":5751:5753   */\n      0x40\n        /* \"#utility.yul\":5740:5749   */\n      dup4\n        /* \"#utility.yul\":5736:5754   */\n      add\n        /* \"#utility.yul\":5727:5733   */\n      dup6\n        /* \"#utility.yul\":5683:5755   */\n      tag_130\n      jump\t// in\n    tag_224:\n        /* \"#utility.yul\":5765:5837   */\n      tag_225\n        /* \"#utility.yul\":5833:5835   */\n      0x60\n        /* \"#utility.yul\":5822:5831   */\n      dup4\n        /* \"#utility.yul\":5818:5836   */\n      add\n        /* \"#utility.yul\":5809:5815   */\n      dup5\n        /* \"#utility.yul\":5765:5837   */\n      tag_119\n      jump\t// in\n    tag_225:\n        /* \"#utility.yul\":5303:5844   */\n      swap6\n      swap5\n      pop\n      pop\n      pop\n      pop\n      pop\n      jump\t// out\n        /* \"#utility.yul\":5850:5985   */\n    tag_131:\n        /* \"#utility.yul\":5938:5944   */\n      0x00\n        /* \"#utility.yul\":5972:5977   */\n      dup2\n        /* \"#utility.yul\":5966:5978   */\n      mload\n        /* \"#utility.yul\":5956:5978   */\n      swap1\n      pop\n        /* \"#utility.yul\":5850:5985   */\n      swap2\n      swap1\n      pop\n      jump\t// out\n        /* \"#utility.yul\":5991:6196   */\n    tag_132:\n        /* \"#utility.yul\":6111:6122   */\n      0x00\n        /* \"#utility.yul\":6145:6151   */\n      dup3\n        /* \"#utility.yul\":6140:6143   */\n      dup3\n        /* \"#utility.yul\":6133:6152   */\n      mstore\n        /* \"#utility.yul\":6185:6189   */\n      0x20\n        /* \"#utility.yul\":6180:6183   */\n      dup3\n        /* \"#utility.yul\":6176:6190   */\n      add\n        /* \"#utility.yul\":6161:6190   */\n      swap1\n      pop\n        /* \"#utility.yul\":5991:6196   */\n      swap3\n      swap2\n      pop\n      pop\n      jump\t// out\n        /* \"#utility.yul\":6202:6355   */\n    tag_133:\n        /* \"#utility.yul\":6290:6294   */\n      0x00\n        /* \"#utility.yul\":6313:6316   */\n      dup2\n        /* \"#utility.yul\":6305:6316   */\n      swap1\n      pop\n        /* \"#utility.yul\":6343:6347   */\n      0x20\n        /* \"#utility.yul\":6338:6341   */\n      dup3\n        /* \"#utility.yul\":6334:6348   */\n      add\n        /* \"#utility.yul\":6326:6348   */\n      swap1\n      pop\n        /* \"#utility.yul\":6202:6355   */\n      swap2\n      swap1\n      pop\n      jump\t// out\n        /* \"#utility.yul\":6361:6520   */\n    tag_134:\n        /* \"#utility.yul\":6435:6446   */\n      0x00\n        /* \"#utility.yul\":6469:6475   */\n      dup3\n        /* \"#utility.yul\":6464:6467   */\n      dup3\n        /* \"#utility.yul\":6457:6476   */\n      mstore\n        /* \"#utility.yul\":6509:6513   */\n      0x20\n        /* \"#utility.yul\":6504:6507   */\n      dup3\n        /* \"#utility.yul\":6500:6514   */\n      add\n        /* \"#utility.yul\":6485:6514   */\n      swap1\n      pop\n        /* \"#utility.yul\":6361:6520   */\n      swap3\n      swap2\n      pop\n      pop\n      jump\t// out\n        /* \"#utility.yul\":6526:6883   */\n    tag_135:\n        /* \"#utility.yul\":6604:6607   */\n      0x00\n        /* \"#utility.yul\":6632:6671   */\n      tag_231\n        /* \"#utility.yul\":6665:6670   */\n      dup3\n        /* \"#utility.yul\":6632:6671   */\n      tag_114\n      jump\t// in\n    tag_231:\n        /* \"#utility.yul\":6687:6748   */\n      tag_232\n        /* \"#utility.yul\":6741:6747   */\n      dup2\n        /* \"#utility.yul\":6736:6739   */\n      dup6\n        /* \"#utility.yul\":6687:6748   */\n      tag_134\n      jump\t// in\n    tag_232:\n        /* \"#utility.yul\":6680:6748   */\n      swap4\n      pop\n        /* \"#utility.yul\":6757:6822   */\n      tag_233\n        /* \"#utility.yul\":6815:6821   */\n      dup2\n        /* \"#utility.yul\":6810:6813   */\n      dup6\n        /* \"#utility.yul\":6803:6807   */\n      0x20\n        /* \"#utility.yul\":6796:6801   */\n      dup7\n        /* \"#utility.yul\":6792:6808   */\n      add\n        /* \"#utility.yul\":6757:6822   */\n      tag_116\n      jump\t// in\n    tag_233:\n        /* \"#utility.yul\":6847:6876   */\n      tag_234\n        /* \"#utility.yul\":6869:6875   */\n      dup2\n        /* \"#utility.yul\":6847:6876   */\n      tag_117\n      jump\t// in\n    tag_234:\n        /* \"#utility.yul\":6842:6845   */\n      dup5\n        /* \"#utility.yul\":6838:6877   */\n      add\n        /* \"#utility.yul\":6831:6877   */\n      swap2\n      pop\n        /* \"#utility.yul\":6608:6883   */\n      pop\n        /* \"#utility.yul\":6526:6883   */\n      swap3\n      swap2\n      pop\n      pop\n      jump\t// out\n        /* \"#utility.yul\":6889:6997   */\n    tag_136:\n        /* \"#utility.yul\":6966:6990   */\n      tag_236\n        /* \"#utility.yul\":6984:6989   */\n      dup2\n        /* \"#utility.yul\":6966:6990   */\n      tag_111\n      jump\t// in\n    tag_236:\n        /* \"#utility.yul\":6961:6964   */\n      dup3\n        /* \"#utility.yul\":6954:6991   */\n      mstore\n        /* \"#utility.yul\":6889:6997   */\n      pop\n      pop\n      jump\t// out\n        /* \"#utility.yul\":7049:7644   */\n    tag_137:\n        /* \"#utility.yul\":7150:7153   */\n      0x00\n        /* \"#utility.yul\":7186:7190   */\n      0x40\n        /* \"#utility.yul\":7181:7184   */\n      dup4\n        /* \"#utility.yul\":7177:7191   */\n      add\n        /* \"#utility.yul\":7273:7277   */\n      0x00\n        /* \"#utility.yul\":7266:7271   */\n      dup4\n        /* \"#utility.yul\":7262:7278   */\n      add\n        /* \"#utility.yul\":7256:7279   */\n      mload\n        /* \"#utility.yul\":7326:7329   */\n      dup5\n        /* \"#utility.yul\":7320:7324   */\n      dup3\n        /* \"#utility.yul\":7316:7330   */\n      sub\n        /* \"#utility.yul\":7309:7313   */\n      0x00\n        /* \"#utility.yul\":7304:7307   */\n      dup7\n        /* \"#utility.yul\":7300:7314   */\n      add\n        /* \"#utility.yul\":7293:7331   */\n      mstore\n        /* \"#utility.yul\":7352:7425   */\n      tag_238\n        /* \"#utility.yul\":7420:7424   */\n      dup3\n        /* \"#utility.yul\":7406:7418   */\n      dup3\n        /* \"#utility.yul\":7352:7425   */\n      tag_135\n      jump\t// in\n    tag_238:\n        /* \"#utility.yul\":7344:7425   */\n      swap2\n      pop\n        /* \"#utility.yul\":7201:7436   */\n      pop\n        /* \"#utility.yul\":7525:7529   */\n      0x20\n        /* \"#utility.yul\":7518:7523   */\n      dup4\n        /* \"#utility.yul\":7514:7530   */\n      add\n        /* \"#utility.yul\":7508:7531   */\n      mload\n        /* \"#utility.yul\":7544:7607   */\n      tag_239\n        /* \"#utility.yul\":7601:7605   */\n      0x20\n        /* \"#utility.yul\":7596:7599   */\n      dup7\n        /* \"#utility.yul\":7592:7606   */\n      add\n        /* \"#utility.yul\":7578:7590   */\n      dup3\n        /* \"#utility.yul\":7544:7607   */\n      tag_136\n      jump\t// in\n    tag_239:\n        /* \"#utility.yul\":7446:7617   */\n      pop\n        /* \"#utility.yul\":7634:7638   */\n      dup1\n        /* \"#utility.yul\":7627:7638   */\n      swap2\n      pop\n        /* \"#utility.yul\":7155:7644   */\n      pop\n        /* \"#utility.yul\":7049:7644   */\n      swap3\n      swap2\n      pop\n      pop\n      jump\t// out\n        /* \"#utility.yul\":7650:7890   */\n    tag_138:\n        /* \"#utility.yul\":7761:7771   */\n      0x00\n        /* \"#utility.yul\":7796:7884   */\n      tag_241\n        /* \"#utility.yul\":7880:7883   */\n      dup4\n        /* \"#utility.yul\":7872:7878   */\n      dup4\n        /* \"#utility.yul\":7796:7884   */\n      tag_137\n      jump\t// in\n    tag_241:\n        /* \"#utility.yul\":7782:7884   */\n      swap1\n      pop\n        /* \"#utility.yul\":7650:7890   */\n      swap3\n      swap2\n      pop\n      pop\n      jump\t// out\n        /* \"#utility.yul\":7896:8030   */\n    tag_139:\n        /* \"#utility.yul\":7987:7991   */\n      0x00\n        /* \"#utility.yul\":8019:8023   */\n      0x20\n        /* \"#utility.yul\":8014:8017   */\n      dup3\n        /* \"#utility.yul\":8010:8024   */\n      add\n        /* \"#utility.yul\":8002:8024   */\n      swap1\n      pop\n        /* \"#utility.yul\":7896:8030   */\n      swap2\n      swap1\n      pop\n      jump\t// out\n        /* \"#utility.yul\":8086:9165   */\n    tag_140:\n        /* \"#utility.yul\":8247:8250   */\n      0x00\n        /* \"#utility.yul\":8276:8351   */\n      tag_244\n        /* \"#utility.yul\":8345:8350   */\n      dup3\n        /* \"#utility.yul\":8276:8351   */\n      tag_131\n      jump\t// in\n    tag_244:\n        /* \"#utility.yul\":8367:8474   */\n      tag_245\n        /* \"#utility.yul\":8467:8473   */\n      dup2\n        /* \"#utility.yul\":8462:8465   */\n      dup6\n        /* \"#utility.yul\":8367:8474   */\n      tag_132\n      jump\t// in\n    tag_245:\n        /* \"#utility.yul\":8360:8474   */\n      swap4\n      pop\n        /* \"#utility.yul\":8500:8503   */\n      dup4\n        /* \"#utility.yul\":8545:8549   */\n      0x20\n        /* \"#utility.yul\":8537:8543   */\n      dup3\n        /* \"#utility.yul\":8533:8550   */\n      mul\n        /* \"#utility.yul\":8528:8531   */\n      dup6\n        /* \"#utility.yul\":8524:8551   */\n      add\n        /* \"#utility.yul\":8575:8652   */\n      tag_246\n        /* \"#utility.yul\":8646:8651   */\n      dup6\n        /* \"#utility.yul\":8575:8652   */\n      tag_133\n      jump\t// in\n    tag_246:\n        /* \"#utility.yul\":8675:8682   */\n      dup1\n        /* \"#utility.yul\":8706:8707   */\n      0x00\n        /* \"#utility.yul\":8691:9120   */\n    tag_247:\n        /* \"#utility.yul\":8716:8722   */\n      dup6\n        /* \"#utility.yul\":8713:8714   */\n      dup2\n        /* \"#utility.yul\":8710:8723   */\n      lt\n        /* \"#utility.yul\":8691:9120   */\n      iszero\n      tag_249\n      jumpi\n        /* \"#utility.yul\":8787:8796   */\n      dup5\n        /* \"#utility.yul\":8781:8785   */\n      dup5\n        /* \"#utility.yul\":8777:8797   */\n      sub\n        /* \"#utility.yul\":8772:8775   */\n      dup10\n        /* \"#utility.yul\":8765:8798   */\n      mstore\n        /* \"#utility.yul\":8838:8844   */\n      dup2\n        /* \"#utility.yul\":8832:8845   */\n      mload\n        /* \"#utility.yul\":8866:8972   */\n      tag_250\n        /* \"#utility.yul\":8967:8971   */\n      dup6\n        /* \"#utility.yul\":8952:8965   */\n      dup3\n        /* \"#utility.yul\":8866:8972   */\n      tag_138\n      jump\t// in\n    tag_250:\n        /* \"#utility.yul\":8858:8972   */\n      swap5\n      pop\n        /* \"#utility.yul\":8995:9076   */\n      tag_251\n        /* \"#utility.yul\":9069:9075   */\n      dup4\n        /* \"#utility.yul\":8995:9076   */\n      tag_139\n      jump\t// in\n    tag_251:\n        /* \"#utility.yul\":8985:9076   */\n      swap3\n      pop\n        /* \"#utility.yul\":9105:9109   */\n      0x20\n        /* \"#utility.yul\":9100:9103   */\n      dup11\n        /* \"#utility.yul\":9096:9110   */\n      add\n        /* \"#utility.yul\":9089:9110   */\n      swap10\n      pop\n        /* \"#utility.yul\":8751:9120   */\n      pop\n        /* \"#utility.yul\":8738:8739   */\n      0x01\n        /* \"#utility.yul\":8735:8736   */\n      dup2\n        /* \"#utility.yul\":8731:8740   */\n      add\n        /* \"#utility.yul\":8726:8740   */\n      swap1\n      pop\n        /* \"#utility.yul\":8691:9120   */\n      jump(tag_247)\n    tag_249:\n        /* \"#utility.yul\":8695:8709   */\n      pop\n        /* \"#utility.yul\":9136:9140   */\n      dup3\n        /* \"#utility.yul\":9129:9140   */\n      swap8\n      pop\n        /* \"#utility.yul\":9156:9159   */\n      dup8\n        /* \"#utility.yul\":9149:9159   */\n      swap6\n      pop\n        /* \"#utility.yul\":8252:9165   */\n      pop\n      pop\n      pop\n      pop\n      pop\n        /* \"#utility.yul\":8086:9165   */\n      swap3\n      swap2\n      pop\n      pop\n      jump\t// out\n        /* \"#utility.yul\":9171:9628   */\n    tag_36:\n        /* \"#utility.yul\":9356:9360   */\n      0x00\n        /* \"#utility.yul\":9394:9396   */\n      0x20\n        /* \"#utility.yul\":9383:9392   */\n      dup3\n        /* \"#utility.yul\":9379:9397   */\n      add\n        /* \"#utility.yul\":9371:9397   */\n      swap1\n      pop\n        /* \"#utility.yul\":9443:9452   */\n      dup2\n        /* \"#utility.yul\":9437:9441   */\n      dup2\n        /* \"#utility.yul\":9433:9453   */\n      sub\n        /* \"#utility.yul\":9429:9430   */\n      0x00\n        /* \"#utility.yul\":9418:9427   */\n      dup4\n        /* \"#utility.yul\":9414:9431   */\n      add\n        /* \"#utility.yul\":9407:9454   */\n      mstore\n        /* \"#utility.yul\":9471:9621   */\n      tag_253\n        /* \"#utility.yul\":9616:9620   */\n      dup2\n        /* \"#utility.yul\":9607:9613   */\n      dup5\n        /* \"#utility.yul\":9471:9621   */\n      tag_140\n      jump\t// in\n    tag_253:\n        /* \"#utility.yul\":9463:9621   */\n      swap1\n      pop\n        /* \"#utility.yul\":9171:9628   */\n      swap3\n      swap2\n      pop\n      pop\n      jump\t// out\n        /* \"#utility.yul\":9634:9856   */\n    tag_40:\n        /* \"#utility.yul\":9727:9731   */\n      0x00\n        /* \"#utility.yul\":9765:9767   */\n      0x20\n        /* \"#utility.yul\":9754:9763   */\n      dup3\n        /* \"#utility.yul\":9750:9768   */\n      add\n        /* \"#utility.yul\":9742:9768   */\n      swap1\n      pop\n        /* \"#utility.yul\":9778:9849   */\n      tag_255\n        /* \"#utility.yul\":9846:9847   */\n      0x00\n        /* \"#utility.yul\":9835:9844   */\n      dup4\n        /* \"#utility.yul\":9831:9848   */\n      add\n        /* \"#utility.yul\":9822:9828   */\n      dup5\n        /* \"#utility.yul\":9778:9849   */\n      tag_130\n      jump\t// in\n    tag_255:\n        /* \"#utility.yul\":9634:9856   */\n      swap3\n      swap2\n      pop\n      pop\n      jump\t// out\n        /* \"#utility.yul\":9862:10177   */\n    tag_141:\n        /* \"#utility.yul\":10002:10068   */\n      0xe58584e5bc9fe4bda0e983bde6b2a1e69c89e7a5a8efbc8ce4bda0e68a95e4b8\n        /* \"#utility.yul\":9998:9999   */\n      0x00\n        /* \"#utility.yul\":9990:9996   */\n      dup3\n        /* \"#utility.yul\":9986:10000   */\n      add\n        /* \"#utility.yul\":9979:10069   */\n      mstore\n        /* \"#utility.yul\":10103:10169   */\n      0xaae994a4e5ad90efbc81efbc81efbc8100000000000000000000000000000000\n        /* \"#utility.yul\":10098:10100   */\n      0x20\n        /* \"#utility.yul\":10090:10096   */\n      dup3\n        /* \"#utility.yul\":10086:10101   */\n      add\n        /* \"#utility.yul\":10079:10170   */\n      mstore\n        /* \"#utility.yul\":9862:10177   */\n      pop\n      jump\t// out\n        /* \"#utility.yul\":10183:10549   */\n    tag_142:\n        /* \"#utility.yul\":10325:10328   */\n      0x00\n        /* \"#utility.yul\":10346:10413   */\n      tag_258\n        /* \"#utility.yul\":10410:10412   */\n      0x30\n        /* \"#utility.yul\":10405:10408   */\n      dup4\n        /* \"#utility.yul\":10346:10413   */\n      tag_115\n      jump\t// in\n    tag_258:\n        /* \"#utility.yul\":10339:10413   */\n      swap2\n      pop\n        /* \"#utility.yul\":10422:10515   */\n      tag_259\n        /* \"#utility.yul\":10511:10514   */\n      dup3\n        /* \"#utility.yul\":10422:10515   */\n      tag_141\n      jump\t// in\n    tag_259:\n        /* \"#utility.yul\":10540:10542   */\n      0x40\n        /* \"#utility.yul\":10535:10538   */\n      dup3\n        /* \"#utility.yul\":10531:10543   */\n      add\n        /* \"#utility.yul\":10524:10543   */\n      swap1\n      pop\n        /* \"#utility.yul\":10183:10549   */\n      swap2\n      swap1\n      pop\n      jump\t// out\n        /* \"#utility.yul\":10555:10974   */\n    tag_44:\n        /* \"#utility.yul\":10721:10725   */\n      0x00\n        /* \"#utility.yul\":10759:10761   */\n      0x20\n        /* \"#utility.yul\":10748:10757   */\n      dup3\n        /* \"#utility.yul\":10744:10762   */\n      add\n        /* \"#utility.yul\":10736:10762   */\n      swap1\n      pop\n        /* \"#utility.yul\":10808:10817   */\n      dup2\n        /* \"#utility.yul\":10802:10806   */\n      dup2\n        /* \"#utility.yul\":10798:10818   */\n      sub\n        /* \"#utility.yul\":10794:10795   */\n      0x00\n        /* \"#utility.yul\":10783:10792   */\n      dup4\n        /* \"#utility.yul\":10779:10796   */\n      add\n        /* \"#utility.yul\":10772:10819   */\n      mstore\n        /* \"#utility.yul\":10836:10967   */\n      tag_261\n        /* \"#utility.yul\":10962:10966   */\n      dup2\n        /* \"#utility.yul\":10836:10967   */\n      tag_142\n      jump\t// in\n    tag_261:\n        /* \"#utility.yul\":10828:10967   */\n      swap1\n      pop\n        /* \"#utility.yul\":10555:10974   */\n      swap2\n      swap1\n      pop\n      jump\t// out\n        /* \"#utility.yul\":10980:11295   */\n    tag_143:\n        /* \"#utility.yul\":11120:11186   */\n      0xe58584e5bc9fe4bda0e5b7b2e7bb8fe68a95e8bf87e4ba86e5958aefbc81efbc\n        /* \"#utility.yul\":11116:11117   */\n      0x00\n        /* \"#utility.yul\":11108:11114   */\n      dup3\n        /* \"#utility.yul\":11104:11118   */\n      add\n        /* \"#utility.yul\":11097:11187   */\n      mstore\n        /* \"#utility.yul\":11221:11287   */\n      0x8100000000000000000000000000000000000000000000000000000000000000\n        /* \"#utility.yul\":11216:11218   */\n      0x20\n        /* \"#utility.yul\":11208:11214   */\n      dup3\n        /* \"#utility.yul\":11204:11219   */\n      add\n        /* \"#utility.yul\":11197:11288   */\n      mstore\n        /* \"#utility.yul\":10980:11295   */\n      pop\n      jump\t// out\n        /* \"#utility.yul\":11301:11667   */\n    tag_144:\n        /* \"#utility.yul\":11443:11446   */\n      0x00\n        /* \"#utility.yul\":11464:11531   */\n      tag_264\n        /* \"#utility.yul\":11528:11530   */\n      0x21\n        /* \"#utility.yul\":11523:11526   */\n      dup4\n        /* \"#utility.yul\":11464:11531   */\n      tag_115\n      jump\t// in\n    tag_264:\n        /* \"#utility.yul\":11457:11531   */\n      swap2\n      pop\n        /* \"#utility.yul\":11540:11633   */\n      tag_265\n        /* \"#utility.yul\":11629:11632   */\n      dup3\n        /* \"#utility.yul\":11540:11633   */\n      tag_143\n      jump\t// in\n    tag_265:\n        /* \"#utility.yul\":11658:11660   */\n      0x40\n        /* \"#utility.yul\":11653:11656   */\n      dup3\n        /* \"#utility.yul\":11649:11661   */\n      add\n        /* \"#utility.yul\":11642:11661   */\n      swap1\n      pop\n        /* \"#utility.yul\":11301:11667   */\n      swap2\n      swap1\n      pop\n      jump\t// out\n        /* \"#utility.yul\":11673:12092   */\n    tag_47:\n        /* \"#utility.yul\":11839:11843   */\n      0x00\n        /* \"#utility.yul\":11877:11879   */\n      0x20\n        /* \"#utility.yul\":11866:11875   */\n      dup3\n        /* \"#utility.yul\":11862:11880   */\n      add\n        /* \"#utility.yul\":11854:11880   */\n      swap1\n      pop\n        /* \"#utility.yul\":11926:11935   */\n      dup2\n        /* \"#utility.yul\":11920:11924   */\n      dup2\n        /* \"#utility.yul\":11916:11936   */\n      sub\n        /* \"#utility.yul\":11912:11913   */\n      0x00\n        /* \"#utility.yul\":11901:11910   */\n      dup4\n        /* \"#utility.yul\":11897:11914   */\n      add\n        /* \"#utility.yul\":11890:11937   */\n      mstore\n        /* \"#utility.yul\":11954:12085   */\n      tag_267\n        /* \"#utility.yul\":12080:12084   */\n      dup2\n        /* \"#utility.yul\":11954:12085   */\n      tag_144\n      jump\t// in\n    tag_267:\n        /* \"#utility.yul\":11946:12085   */\n      swap1\n      pop\n        /* \"#utility.yul\":11673:12092   */\n      swap2\n      swap1\n      pop\n      jump\t// out\n        /* \"#utility.yul\":12098:12278   */\n    tag_50:\n        /* \"#utility.yul\":12146:12223   */\n      0x4e487b7100000000000000000000000000000000000000000000000000000000\n        /* \"#utility.yul\":12143:12144   */\n      0x00\n        /* \"#utility.yul\":12136:12224   */\n      mstore\n        /* \"#utility.yul\":12243:12247   */\n      0x32\n        /* \"#utility.yul\":12240:12241   */\n      0x04\n        /* \"#utility.yul\":12233:12248   */\n      mstore\n        /* \"#utility.yul\":12267:12271   */\n      0x24\n        /* \"#utility.yul\":12264:12265   */\n      0x00\n        /* \"#utility.yul\":12257:12272   */\n      revert\n        /* \"#utility.yul\":12284:12464   */\n    tag_145:\n        /* \"#utility.yul\":12332:12409   */\n      0x4e487b7100000000000000000000000000000000000000000000000000000000\n        /* \"#utility.yul\":12329:12330   */\n      0x00\n        /* \"#utility.yul\":12322:12410   */\n      mstore\n        /* \"#utility.yul\":12429:12433   */\n      0x11\n        /* \"#utility.yul\":12426:12427   */\n      0x04\n        /* \"#utility.yul\":12419:12434   */\n      mstore\n        /* \"#utility.yul\":12453:12457   */\n      0x24\n        /* \"#utility.yul\":12450:12451   */\n      0x00\n        /* \"#utility.yul\":12443:12458   */\n      revert\n        /* \"#utility.yul\":12470:12661   */\n    tag_53:\n        /* \"#utility.yul\":12510:12513   */\n      0x00\n        /* \"#utility.yul\":12529:12549   */\n      tag_271\n        /* \"#utility.yul\":12547:12548   */\n      dup3\n        /* \"#utility.yul\":12529:12549   */\n      tag_111\n      jump\t// in\n    tag_271:\n        /* \"#utility.yul\":12524:12549   */\n      swap2\n      pop\n        /* \"#utility.yul\":12563:12583   */\n      tag_272\n        /* \"#utility.yul\":12581:12582   */\n      dup4\n        /* \"#utility.yul\":12563:12583   */\n      tag_111\n      jump\t// in\n    tag_272:\n        /* \"#utility.yul\":12558:12583   */\n      swap3\n      pop\n        /* \"#utility.yul\":12606:12607   */\n      dup3\n        /* \"#utility.yul\":12603:12604   */\n      dup3\n        /* \"#utility.yul\":12599:12608   */\n      add\n        /* \"#utility.yul\":12592:12608   */\n      swap1\n      pop\n        /* \"#utility.yul\":12627:12630   */\n      dup1\n        /* \"#utility.yul\":12624:12625   */\n      dup3\n        /* \"#utility.yul\":12621:12631   */\n      gt\n        /* \"#utility.yul\":12618:12654   */\n      iszero\n      tag_273\n      jumpi\n        /* \"#utility.yul\":12634:12652   */\n      tag_274\n      tag_145\n      jump\t// in\n    tag_274:\n        /* \"#utility.yul\":12618:12654   */\n    tag_273:\n        /* \"#utility.yul\":12470:12661   */\n      swap3\n      swap2\n      pop\n      pop\n      jump\t// out\n        /* \"#utility.yul\":12667:12881   */\n    tag_146:\n        /* \"#utility.yul\":12807:12873   */\n      0xe68a95e7a5a8e68890e58a9fefbc81efbc810000000000000000000000000000\n        /* \"#utility.yul\":12803:12804   */\n      0x00\n        /* \"#utility.yul\":12795:12801   */\n      dup3\n        /* \"#utility.yul\":12791:12805   */\n      add\n        /* \"#utility.yul\":12784:12874   */\n      mstore\n        /* \"#utility.yul\":12667:12881   */\n      pop\n      jump\t// out\n        /* \"#utility.yul\":12887:13253   */\n    tag_147:\n        /* \"#utility.yul\":13029:13032   */\n      0x00\n        /* \"#utility.yul\":13050:13117   */\n      tag_277\n        /* \"#utility.yul\":13114:13116   */\n      0x12\n        /* \"#utility.yul\":13109:13112   */\n      dup4\n        /* \"#utility.yul\":13050:13117   */\n      tag_115\n      jump\t// in\n    tag_277:\n        /* \"#utility.yul\":13043:13117   */\n      swap2\n      pop\n        /* \"#utility.yul\":13126:13219   */\n      tag_278\n        /* \"#utility.yul\":13215:13218   */\n      dup3\n        /* \"#utility.yul\":13126:13219   */\n      tag_146\n      jump\t// in\n    tag_278:\n        /* \"#utility.yul\":13244:13246   */\n      0x20\n        /* \"#utility.yul\":13239:13242   */\n      dup3\n        /* \"#utility.yul\":13235:13247   */\n      add\n        /* \"#utility.yul\":13228:13247   */\n      swap1\n      pop\n        /* \"#utility.yul\":12887:13253   */\n      swap2\n      swap1\n      pop\n      jump\t// out\n        /* \"#utility.yul\":13259:13678   */\n    tag_55:\n        /* \"#utility.yul\":13425:13429   */\n      0x00\n        /* \"#utility.yul\":13463:13465   */\n      0x20\n        /* \"#utility.yul\":13452:13461   */\n      dup3\n        /* \"#utility.yul\":13448:13466   */\n      add\n        /* \"#utility.yul\":13440:13466   */\n      swap1\n      pop\n        /* \"#utility.yul\":13512:13521   */\n      dup2\n        /* \"#utility.yul\":13506:13510   */\n      dup2\n        /* \"#utility.yul\":13502:13522   */\n      sub\n        /* \"#utility.yul\":13498:13499   */\n      0x00\n        /* \"#utility.yul\":13487:13496   */\n      dup4\n        /* \"#utility.yul\":13483:13500   */\n      add\n        /* \"#utility.yul\":13476:13523   */\n      mstore\n        /* \"#utility.yul\":13540:13671   */\n      tag_280\n        /* \"#utility.yul\":13666:13670   */\n      dup2\n        /* \"#utility.yul\":13540:13671   */\n      tag_147\n      jump\t// in\n    tag_280:\n        /* \"#utility.yul\":13532:13671   */\n      swap1\n      pop\n        /* \"#utility.yul\":13259:13678   */\n      swap2\n      swap1\n      pop\n      jump\t// out\n        /* \"#utility.yul\":13684:13864   */\n    tag_148:\n        /* \"#utility.yul\":13732:13809   */\n      0x4e487b7100000000000000000000000000000000000000000000000000000000\n        /* \"#utility.yul\":13729:13730   */\n      0x00\n        /* \"#utility.yul\":13722:13810   */\n      mstore\n        /* \"#utility.yul\":13829:13833   */\n      0x22\n        /* \"#utility.yul\":13826:13827   */\n      0x04\n        /* \"#utility.yul\":13819:13834   */\n      mstore\n        /* \"#utility.yul\":13853:13857   */\n      0x24\n        /* \"#utility.yul\":13850:13851   */\n      0x00\n        /* \"#utility.yul\":13843:13858   */\n      revert\n        /* \"#utility.yul\":13870:14190   */\n    tag_59:\n        /* \"#utility.yul\":13914:13920   */\n      0x00\n        /* \"#utility.yul\":13951:13952   */\n      0x02\n        /* \"#utility.yul\":13945:13949   */\n      dup3\n        /* \"#utility.yul\":13941:13953   */\n      div\n        /* \"#utility.yul\":13931:13953   */\n      swap1\n      pop\n        /* \"#utility.yul\":13998:13999   */\n      0x01\n        /* \"#utility.yul\":13992:13996   */\n      dup3\n        /* \"#utility.yul\":13988:14000   */\n      and\n        /* \"#utility.yul\":14019:14037   */\n      dup1\n        /* \"#utility.yul\":14009:14090   */\n      tag_283\n      jumpi\n        /* \"#utility.yul\":14075:14079   */\n      0x7f\n        /* \"#utility.yul\":14067:14073   */\n      dup3\n        /* \"#utility.yul\":14063:14080   */\n      and\n        /* \"#utility.yul\":14053:14080   */\n      swap2\n      pop\n        /* \"#utility.yul\":14009:14090   */\n    tag_283:\n        /* \"#utility.yul\":14137:14139   */\n      0x20\n        /* \"#utility.yul\":14129:14135   */\n      dup3\n        /* \"#utility.yul\":14126:14140   */\n      lt\n        /* \"#utility.yul\":14106:14124   */\n      dup2\n        /* \"#utility.yul\":14103:14141   */\n      sub\n        /* \"#utility.yul\":14100:14184   */\n      tag_284\n      jumpi\n        /* \"#utility.yul\":14156:14174   */\n      tag_285\n      tag_148\n      jump\t// in\n    tag_285:\n        /* \"#utility.yul\":14100:14184   */\n    tag_284:\n        /* \"#utility.yul\":13921:14190   */\n      pop\n        /* \"#utility.yul\":13870:14190   */\n      swap2\n      swap1\n      pop\n      jump\t// out\n        /* \"#utility.yul\":14196:14511   */\n    tag_149:\n        /* \"#utility.yul\":14336:14402   */\n      0xe4bda0e5b7b2e7bb8fe68a95e8bf87e7a5a8e4ba86efbc8ce6b2a1e69c89e8b5\n        /* \"#utility.yul\":14332:14333   */\n      0x00\n        /* \"#utility.yul\":14324:14330   */\n      dup3\n        /* \"#utility.yul\":14320:14334   */\n      add\n        /* \"#utility.yul\":14313:14403   */\n      mstore\n        /* \"#utility.yul\":14437:14503   */\n      0x84e6a0bce7bb99e4bda0e5a794e68998e4ba8600000000000000000000000000\n        /* \"#utility.yul\":14432:14434   */\n      0x20\n        /* \"#utility.yul\":14424:14430   */\n      dup3\n        /* \"#utility.yul\":14420:14435   */\n      add\n        /* \"#utility.yul\":14413:14504   */\n      mstore\n        /* \"#utility.yul\":14196:14511   */\n      pop\n      jump\t// out\n        /* \"#utility.yul\":14517:14883   */\n    tag_150:\n        /* \"#utility.yul\":14659:14662   */\n      0x00\n        /* \"#utility.yul\":14680:14747   */\n      tag_288\n        /* \"#utility.yul\":14744:14746   */\n      0x33\n        /* \"#utility.yul\":14739:14742   */\n      dup4\n        /* \"#utility.yul\":14680:14747   */\n      tag_115\n      jump\t// in\n    tag_288:\n        /* \"#utility.yul\":14673:14747   */\n      swap2\n      pop\n        /* \"#utility.yul\":14756:14849   */\n      tag_289\n        /* \"#utility.yul\":14845:14848   */\n      dup3\n        /* \"#utility.yul\":14756:14849   */\n      tag_149\n      jump\t// in\n    tag_289:\n        /* \"#utility.yul\":14874:14876   */\n      0x40\n        /* \"#utility.yul\":14869:14872   */\n      dup3\n        /* \"#utility.yul\":14865:14877   */\n      add\n        /* \"#utility.yul\":14858:14877   */\n      swap1\n      pop\n        /* \"#utility.yul\":14517:14883   */\n      swap2\n      swap1\n      pop\n      jump\t// out\n        /* \"#utility.yul\":14889:15308   */\n    tag_67:\n        /* \"#utility.yul\":15055:15059   */\n      0x00\n        /* \"#utility.yul\":15093:15095   */\n      0x20\n        /* \"#utility.yul\":15082:15091   */\n      dup3\n        /* \"#utility.yul\":15078:15096   */\n      add\n        /* \"#utility.yul\":15070:15096   */\n      swap1\n      pop\n        /* \"#utility.yul\":15142:15151   */\n      dup2\n        /* \"#utility.yul\":15136:15140   */\n      dup2\n        /* \"#utility.yul\":15132:15152   */\n      sub\n        /* \"#utility.yul\":15128:15129   */\n      0x00\n        /* \"#utility.yul\":15117:15126   */\n      dup4\n        /* \"#utility.yul\":15113:15130   */\n      add\n        /* \"#utility.yul\":15106:15153   */\n      mstore\n        /* \"#utility.yul\":15170:15301   */\n      tag_291\n        /* \"#utility.yul\":15296:15300   */\n      dup2\n        /* \"#utility.yul\":15170:15301   */\n      tag_150\n      jump\t// in\n    tag_291:\n        /* \"#utility.yul\":15162:15301   */\n      swap1\n      pop\n        /* \"#utility.yul\":14889:15308   */\n      swap2\n      swap1\n      pop\n      jump\t// out\n        /* \"#utility.yul\":15314:15528   */\n    tag_151:\n        /* \"#utility.yul\":15454:15520   */\n      0xe4b88de883bde5a794e68998e7bb99e887aae5b7b10000000000000000000000\n        /* \"#utility.yul\":15450:15451   */\n      0x00\n        /* \"#utility.yul\":15442:15448   */\n      dup3\n        /* \"#utility.yul\":15438:15452   */\n      add\n        /* \"#utility.yul\":15431:15521   */\n      mstore\n        /* \"#utility.yul\":15314:15528   */\n      pop\n      jump\t// out\n        /* \"#utility.yul\":15534:15900   */\n    tag_152:\n        /* \"#utility.yul\":15676:15679   */\n      0x00\n        /* \"#utility.yul\":15697:15764   */\n      tag_294\n        /* \"#utility.yul\":15761:15763   */\n      0x15\n        /* \"#utility.yul\":15756:15759   */\n      dup4\n        /* \"#utility.yul\":15697:15764   */\n      tag_115\n      jump\t// in\n    tag_294:\n        /* \"#utility.yul\":15690:15764   */\n      swap2\n      pop\n        /* \"#utility.yul\":15773:15866   */\n      tag_295\n        /* \"#utility.yul\":15862:15865   */\n      dup3\n        /* \"#utility.yul\":15773:15866   */\n      tag_151\n      jump\t// in\n    tag_295:\n        /* \"#utility.yul\":15891:15893   */\n      0x20\n        /* \"#utility.yul\":15886:15889   */\n      dup3\n        /* \"#utility.yul\":15882:15894   */\n      add\n        /* \"#utility.yul\":15875:15894   */\n      swap1\n      pop\n        /* \"#utility.yul\":15534:15900   */\n      swap2\n      swap1\n      pop\n      jump\t// out\n        /* \"#utility.yul\":15906:16325   */\n    tag_70:\n        /* \"#utility.yul\":16072:16076   */\n      0x00\n        /* \"#utility.yul\":16110:16112   */\n      0x20\n        /* \"#utility.yul\":16099:16108   */\n      dup3\n        /* \"#utility.yul\":16095:16113   */\n      add\n        /* \"#utility.yul\":16087:16113   */\n      swap1\n      pop\n        /* \"#utility.yul\":16159:16168   */\n      dup2\n        /* \"#utility.yul\":16153:16157   */\n      dup2\n        /* \"#utility.yul\":16149:16169   */\n      sub\n        /* \"#utility.yul\":16145:16146   */\n      0x00\n        /* \"#utility.yul\":16134:16143   */\n      dup4\n        /* \"#utility.yul\":16130:16147   */\n      add\n        /* \"#utility.yul\":16123:16170   */\n      mstore\n        /* \"#utility.yul\":16187:16318   */\n      tag_297\n        /* \"#utility.yul\":16313:16317   */\n      dup2\n        /* \"#utility.yul\":16187:16318   */\n      tag_152\n      jump\t// in\n    tag_297:\n        /* \"#utility.yul\":16179:16318   */\n      swap1\n      pop\n        /* \"#utility.yul\":15906:16325   */\n      swap2\n      swap1\n      pop\n      jump\t// out\n        /* \"#utility.yul\":16331:16646   */\n    tag_153:\n        /* \"#utility.yul\":16471:16537   */\n      0xe4b88de883bde68e88e69d83efbc8ce59ba0e4b8bae5a794e68998e4b880e59c\n        /* \"#utility.yul\":16467:16468   */\n      0x00\n        /* \"#utility.yul\":16459:16465   */\n      dup3\n        /* \"#utility.yul\":16455:16469   */\n      add\n        /* \"#utility.yul\":16448:16538   */\n      mstore\n        /* \"#utility.yul\":16572:16638   */\n      0x88e5908ee7a5a8e4bc9ae59b9ee588b0e887aae5b7b1e6898be4b8ad00000000\n        /* \"#utility.yul\":16567:16569   */\n      0x20\n        /* \"#utility.yul\":16559:16565   */\n      dup3\n        /* \"#utility.yul\":16555:16570   */\n      add\n        /* \"#utility.yul\":16548:16639   */\n      mstore\n        /* \"#utility.yul\":16331:16646   */\n      pop\n      jump\t// out\n        /* \"#utility.yul\":16652:17018   */\n    tag_154:\n        /* \"#utility.yul\":16794:16797   */\n      0x00\n        /* \"#utility.yul\":16815:16882   */\n      tag_300\n        /* \"#utility.yul\":16879:16881   */\n      0x3c\n        /* \"#utility.yul\":16874:16877   */\n      dup4\n        /* \"#utility.yul\":16815:16882   */\n      tag_115\n      jump\t// in\n    tag_300:\n        /* \"#utility.yul\":16808:16882   */\n      swap2\n      pop\n        /* \"#utility.yul\":16891:16984   */\n      tag_301\n        /* \"#utility.yul\":16980:16983   */\n      dup3\n        /* \"#utility.yul\":16891:16984   */\n      tag_153\n      jump\t// in\n    tag_301:\n        /* \"#utility.yul\":17009:17011   */\n      0x40\n        /* \"#utility.yul\":17004:17007   */\n      dup3\n        /* \"#utility.yul\":17000:17012   */\n      add\n        /* \"#utility.yul\":16993:17012   */\n      swap1\n      pop\n        /* \"#utility.yul\":16652:17018   */\n      swap2\n      swap1\n      pop\n      jump\t// out\n        /* \"#utility.yul\":17024:17443   */\n    tag_75:\n        /* \"#utility.yul\":17190:17194   */\n      0x00\n        /* \"#utility.yul\":17228:17230   */\n      0x20\n        /* \"#utility.yul\":17217:17226   */\n      dup3\n        /* \"#utility.yul\":17213:17231   */\n      add\n        /* \"#utility.yul\":17205:17231   */\n      swap1\n      pop\n        /* \"#utility.yul\":17277:17286   */\n      dup2\n        /* \"#utility.yul\":17271:17275   */\n      dup2\n        /* \"#utility.yul\":17267:17287   */\n      sub\n        /* \"#utility.yul\":17263:17264   */\n      0x00\n        /* \"#utility.yul\":17252:17261   */\n      dup4\n        /* \"#utility.yul\":17248:17265   */\n      add\n        /* \"#utility.yul\":17241:17288   */\n      mstore\n        /* \"#utility.yul\":17305:17436   */\n      tag_303\n        /* \"#utility.yul\":17431:17435   */\n      dup2\n        /* \"#utility.yul\":17305:17436   */\n      tag_154\n      jump\t// in\n    tag_303:\n        /* \"#utility.yul\":17297:17436   */\n      swap1\n      pop\n        /* \"#utility.yul\":17024:17443   */\n      swap2\n      swap1\n      pop\n      jump\t// out\n        /* \"#utility.yul\":17449:17764   */\n    tag_155:\n        /* \"#utility.yul\":17589:17655   */\n      0xe58faae69c89e4b8bbe68c81e4babae6898de69c89e8bf99e4b8aae69d83e58a\n        /* \"#utility.yul\":17585:17586   */\n      0x00\n        /* \"#utility.yul\":17577:17583   */\n      dup3\n        /* \"#utility.yul\":17573:17587   */\n      add\n        /* \"#utility.yul\":17566:17656   */\n      mstore\n        /* \"#utility.yul\":17690:17756   */\n      0x9b00000000000000000000000000000000000000000000000000000000000000\n        /* \"#utility.yul\":17685:17687   */\n      0x20\n        /* \"#utility.yul\":17677:17683   */\n      dup3\n        /* \"#utility.yul\":17673:17688   */\n      add\n        /* \"#utility.yul\":17666:17757   */\n      mstore\n        /* \"#utility.yul\":17449:17764   */\n      pop\n      jump\t// out\n        /* \"#utility.yul\":17770:18136   */\n    tag_156:\n        /* \"#utility.yul\":17912:17915   */\n      0x00\n        /* \"#utility.yul\":17933:18000   */\n      tag_306\n        /* \"#utility.yul\":17997:17999   */\n      0x21\n        /* \"#utility.yul\":17992:17995   */\n      dup4\n        /* \"#utility.yul\":17933:18000   */\n      tag_115\n      jump\t// in\n    tag_306:\n        /* \"#utility.yul\":17926:18000   */\n      swap2\n      pop\n        /* \"#utility.yul\":18009:18102   */\n      tag_307\n        /* \"#utility.yul\":18098:18101   */\n      dup3\n        /* \"#utility.yul\":18009:18102   */\n      tag_155\n      jump\t// in\n    tag_307:\n        /* \"#utility.yul\":18127:18129   */\n      0x40\n        /* \"#utility.yul\":18122:18125   */\n      dup3\n        /* \"#utility.yul\":18118:18130   */\n      add\n        /* \"#utility.yul\":18111:18130   */\n      swap1\n      pop\n        /* \"#utility.yul\":17770:18136   */\n      swap2\n      swap1\n      pop\n      jump\t// out\n        /* \"#utility.yul\":18142:18561   */\n    tag_86:\n        /* \"#utility.yul\":18308:18312   */\n      0x00\n        /* \"#utility.yul\":18346:18348   */\n      0x20\n        /* \"#utility.yul\":18335:18344   */\n      dup3\n        /* \"#utility.yul\":18331:18349   */\n      add\n        /* \"#utility.yul\":18323:18349   */\n      swap1\n      pop\n        /* \"#utility.yul\":18395:18404   */\n      dup2\n        /* \"#utility.yul\":18389:18393   */\n      dup2\n        /* \"#utility.yul\":18385:18405   */\n      sub\n        /* \"#utility.yul\":18381:18382   */\n      0x00\n        /* \"#utility.yul\":18370:18379   */\n      dup4\n        /* \"#utility.yul\":18366:18383   */\n      add\n        /* \"#utility.yul\":18359:18406   */\n      mstore\n        /* \"#utility.yul\":18423:18554   */\n      tag_309\n        /* \"#utility.yul\":18549:18553   */\n      dup2\n        /* \"#utility.yul\":18423:18554   */\n      tag_156\n      jump\t// in\n    tag_309:\n        /* \"#utility.yul\":18415:18554   */\n      swap1\n      pop\n        /* \"#utility.yul\":18142:18561   */\n      swap2\n      swap1\n      pop\n      jump\t// out\n        /* \"#utility.yul\":18567:18800   */\n    tag_98:\n        /* \"#utility.yul\":18606:18609   */\n      0x00\n        /* \"#utility.yul\":18629:18653   */\n      tag_311\n        /* \"#utility.yul\":18647:18652   */\n      dup3\n        /* \"#utility.yul\":18629:18653   */\n      tag_111\n      jump\t// in\n    tag_311:\n        /* \"#utility.yul\":18620:18653   */\n      swap2\n      pop\n        /* \"#utility.yul\":18675:18741   */\n      0xffffffffffffffffffffffffffffffffffffffffffffffffffffffffffffffff\n        /* \"#utility.yul\":18668:18673   */\n      dup3\n        /* \"#utility.yul\":18665:18742   */\n      sub\n        /* \"#utility.yul\":18662:18765   */\n      tag_312\n      jumpi\n        /* \"#utility.yul\":18745:18763   */\n      tag_313\n      tag_145\n      jump\t// in\n    tag_313:\n        /* \"#utility.yul\":18662:18765   */\n    tag_312:\n        /* \"#utility.yul\":18792:18793   */\n      0x01\n        /* \"#utility.yul\":18785:18790   */\n      dup3\n        /* \"#utility.yul\":18781:18794   */\n      add\n        /* \"#utility.yul\":18774:18794   */\n      swap1\n      pop\n        /* \"#utility.yul\":18567:18800   */\n      swap2\n      swap1\n      pop\n      jump\t// out\n\n    auxdata: 0xa26469706673582212208e0a76b58323c3261ed271a7e53641e62e079636b928f23f351bcab940108c6264736f6c63430008120033\n}\n",
				"bytecode": {
					"linkReferences": {},
					"object": "60806040523480156200001157600080fd5b5060405162001c5f38038062001c5f833981810160405281019062000037919062000421565b336000806101000a81548173ffffffffffffffffffffffffffffffffffffffff021916908373ffffffffffffffffffffffffffffffffffffffff16021790555060018060008060009054906101000a900473ffffffffffffffffffffffffffffffffffffffff1673ffffffffffffffffffffffffffffffffffffffff1673ffffffffffffffffffffffffffffffffffffffff1681526020019081526020016000206000018190555060005b81518110156200018a57600060405180604001604052808484815181106200010f576200010e62000472565b5b602002602001015181526020016000815250905060028190806001815401808255809150506001900390600052602060002090600202016000909190919091506000820151816000019081620001669190620006ec565b50602082015181600101555050508080620001819062000802565b915050620000e2565b50506200084f565b6000604051905090565b600080fd5b600080fd5b600080fd5b6000601f19601f8301169050919050565b7f4e487b7100000000000000000000000000000000000000000000000000000000600052604160045260246000fd5b620001f682620001ab565b810181811067ffffffffffffffff82111715620002185762000217620001bc565b5b80604052505050565b60006200022d62000192565b90506200023b8282620001eb565b919050565b600067ffffffffffffffff8211156200025e576200025d620001bc565b5b602082029050602081019050919050565b600080fd5b600080fd5b600067ffffffffffffffff821115620002975762000296620001bc565b5b620002a282620001ab565b9050602081019050919050565b60005b83811015620002cf578082015181840152602081019050620002b2565b60008484015250505050565b6000620002f2620002ec8462000279565b62000221565b90508281526020810184848401111562000311576200031062000274565b5b6200031e848285620002af565b509392505050565b600082601f8301126200033e576200033d620001a6565b5b815162000350848260208601620002db565b91505092915050565b6000620003706200036a8462000240565b62000221565b905080838252602082019050602084028301858111156200039657620003956200026f565b5b835b81811015620003e457805167ffffffffffffffff811115620003bf57620003be620001a6565b5b808601620003ce898262000326565b8552602085019450505060208101905062000398565b5050509392505050565b600082601f830112620004065762000405620001a6565b5b81516200041884826020860162000359565b91505092915050565b6000602082840312156200043a57620004396200019c565b5b600082015167ffffffffffffffff8111156200045b576200045a620001a1565b5b6200046984828501620003ee565b91505092915050565b7f4e487b7100000000000000000000000000000000000000000000000000000000600052603260045260246000fd5b600081519050919050565b7f4e487b7100000000000000000000000000000000000000000000000000000000600052602260045260246000fd5b60006002820490506001821680620004f457607f821691505b6020821081036200050a5762000509620004ac565b5b50919050565b60008190508160005260206000209050919050565b60006020601f8301049050919050565b600082821b905092915050565b600060088302620005747fffffffffffffffffffffffffffffffffffffffffffffffffffffffffffffffff8262000535565b62000580868362000535565b95508019841693508086168417925050509392505050565b6000819050919050565b6000819050919050565b6000620005cd620005c7620005c18462000598565b620005a2565b62000598565b9050919050565b6000819050919050565b620005e983620005ac565b62000601620005f882620005d4565b84845462000542565b825550505050565b600090565b6200061862000609565b62000625818484620005de565b505050565b5b818110156200064d57620006416000826200060e565b6001810190506200062b565b5050565b601f8211156200069c57620006668162000510565b620006718462000525565b8101602085101562000681578190505b62000699620006908562000525565b8301826200062a565b50505b505050565b600082821c905092915050565b6000620006c160001984600802620006a1565b1980831691505092915050565b6000620006dc8383620006ae565b9150826002028217905092915050565b620006f782620004a1565b67ffffffffffffffff811115620007135762000712620001bc565b5b6200071f8254620004db565b6200072c82828562000651565b600060209050601f8311600181146200076457600084156200074f578287015190505b6200075b8582620006ce565b865550620007cb565b601f198416620007748662000510565b60005b828110156200079e5784890151825560018201915060208501945060208101905062000777565b86831015620007be5784890151620007ba601f891682620006ae565b8355505b6001600288020188555050505b505050505050565b7f4e487b7100000000000000000000000000000000000000000000000000000000600052601160045260246000fd5b60006200080f8262000598565b91507fffffffffffffffffffffffffffffffffffffffffffffffffffffffffffffffff8203620008445762000843620007d3565b5b600182019050919050565b611400806200085f6000396000f3fe608060405234801561001057600080fd5b506004361061007d5760003560e01c80638760c7611161005b5780638760c761146100eb578063a3ec138d14610107578063ed34c6ee1461013a578063f437bc59146101585761007d565b80630121b93f1461008257806328ed6e3f1461009e5780635c19a95c146100cf575b600080fd5b61009c60048036038101906100979190610aa1565b610176565b005b6100b860048036038101906100b39190610aa1565b6102f1565b6040516100c6929190610b6d565b60405180910390f35b6100e960048036038101906100e49190610bfb565b6103ad565b005b61010560048036038101906101009190610c8d565b610747565b005b610121600480360381019061011c9190610bfb565b6108e5565b6040516101319493929190610d04565b60405180910390f35b610142610942565b60405161014f9190610ea1565b60405180910390f35b610160610a3d565b60405161016d9190610ec3565b60405180910390f35b6000600160003373ffffffffffffffffffffffffffffffffffffffff1673ffffffffffffffffffffffffffffffffffffffff16815260200190815260200160002090506000816000015403610200576040517f08c379a00000000000000000000000000000000000000000000000000000000081526004016101f790610f50565b60405180910390fd5b8060010160009054906101000a900460ff1615610252576040517f08c379a000000000000000000000000000000000000000000000000000000000815260040161024990610fe2565b60405180910390fd5b60018160010160006101000a81548160ff02191690831515021790555081816002018190555080600001546002838154811061029157610290611002565b5b906000526020600020906002020160010160008282546102b19190611060565b925050819055507f71811a05f98c0d6a3ee4d373e7d62d53422d5baf858d802816efce275df7d3fa6040516102e5906110e0565b60405180910390a15050565b6002818154811061030157600080fd5b90600052602060002090600202016000915090508060000180546103249061112f565b80601f01602080910402602001604051908101604052809291908181526020018280546103509061112f565b801561039d5780601f106103725761010080835404028352916020019161039d565b820191906000526020600020905b81548152906001019060200180831161038057829003601f168201915b5050505050908060010154905082565b6000600160003373ffffffffffffffffffffffffffffffffffffffff1673ffffffffffffffffffffffffffffffffffffffff16815260200190815260200160002090508060010160009054906101000a900460ff1615610442576040517f08c379a0000000000000000000000000000000000000000000000000000000008152600401610439906111d2565b60405180910390fd5b8173ffffffffffffffffffffffffffffffffffffffff163373ffffffffffffffffffffffffffffffffffffffff16036104b0576040517f08c379a00000000000000000000000000000000000000000000000000000000081526004016104a79061123e565b60405180910390fd5b5b600073ffffffffffffffffffffffffffffffffffffffff16600160008473ffffffffffffffffffffffffffffffffffffffff1673ffffffffffffffffffffffffffffffffffffffff16815260200190815260200160002060010160019054906101000a900473ffffffffffffffffffffffffffffffffffffffff1673ffffffffffffffffffffffffffffffffffffffff161461061f57600160008373ffffffffffffffffffffffffffffffffffffffff1673ffffffffffffffffffffffffffffffffffffffff16815260200190815260200160002060010160019054906101000a900473ffffffffffffffffffffffffffffffffffffffff1691503373ffffffffffffffffffffffffffffffffffffffff168273ffffffffffffffffffffffffffffffffffffffff161461061a576040517f08c379a0000000000000000000000000000000000000000000000000000000008152600401610611906112d0565b60405180910390fd5b6104b1565b60018160010160006101000a81548160ff021916908315150217905550818160010160016101000a81548173ffffffffffffffffffffffffffffffffffffffff021916908373ffffffffffffffffffffffffffffffffffffffff1602179055506000600160008473ffffffffffffffffffffffffffffffffffffffff1673ffffffffffffffffffffffffffffffffffffffff16815260200190815260200160002090508060010160009054906101000a900460ff161561072257816000015460028260020154815481106106f6576106f5611002565b5b906000526020600020906002020160010160008282546107169190611060565b92505081905550610742565b816000015481600001600082825461073a9190611060565b925050819055505b505050565b60008054906101000a900473ffffffffffffffffffffffffffffffffffffffff1673ffffffffffffffffffffffffffffffffffffffff163373ffffffffffffffffffffffffffffffffffffffff16146107d5576040517f08c379a00000000000000000000000000000000000000000000000000000000081526004016107cc90611362565b60405180910390fd5b60005b828290508110156108e057600160008484848181106107fa576107f9611002565b5b905060200201602081019061080f9190610bfb565b73ffffffffffffffffffffffffffffffffffffffff1673ffffffffffffffffffffffffffffffffffffffff16815260200190815260200160002060010160009054906101000a900460ff166108cd57600180600085858581811061087657610875611002565b5b905060200201602081019061088b9190610bfb565b73ffffffffffffffffffffffffffffffffffffffff1673ffffffffffffffffffffffffffffffffffffffff168152602001908152602001600020600001819055505b80806108d890611382565b9150506107d8565b505050565b60016020528060005260406000206000915090508060000154908060010160009054906101000a900460ff16908060010160019054906101000a900473ffffffffffffffffffffffffffffffffffffffff16908060020154905084565b60606002805480602002602001604051908101604052809291908181526020016000905b82821015610a3457838290600052602060002090600202016040518060400160405290816000820180546109999061112f565b80601f01602080910402602001604051908101604052809291908181526020018280546109c59061112f565b8015610a125780601f106109e757610100808354040283529160200191610a12565b820191906000526020600020905b8154815290600101906020018083116109f557829003601f168201915b5050505050815260200160018201548152505081526020019060010190610966565b50505050905090565b60008054906101000a900473ffffffffffffffffffffffffffffffffffffffff1681565b600080fd5b600080fd5b6000819050919050565b610a7e81610a6b565b8114610a8957600080fd5b50565b600081359050610a9b81610a75565b92915050565b600060208284031215610ab757610ab6610a61565b5b6000610ac584828501610a8c565b91505092915050565b600081519050919050565b600082825260208201905092915050565b60005b83811015610b08578082015181840152602081019050610aed565b60008484015250505050565b6000601f19601f8301169050919050565b6000610b3082610ace565b610b3a8185610ad9565b9350610b4a818560208601610aea565b610b5381610b14565b840191505092915050565b610b6781610a6b565b82525050565b60006040820190508181036000830152610b878185610b25565b9050610b966020830184610b5e565b9392505050565b600073ffffffffffffffffffffffffffffffffffffffff82169050919050565b6000610bc882610b9d565b9050919050565b610bd881610bbd565b8114610be357600080fd5b50565b600081359050610bf581610bcf565b92915050565b600060208284031215610c1157610c10610a61565b5b6000610c1f84828501610be6565b91505092915050565b600080fd5b600080fd5b600080fd5b60008083601f840112610c4d57610c4c610c28565b5b8235905067ffffffffffffffff811115610c6a57610c69610c2d565b5b602083019150836020820283011115610c8657610c85610c32565b5b9250929050565b60008060208385031215610ca457610ca3610a61565b5b600083013567ffffffffffffffff811115610cc257610cc1610a66565b5b610cce85828601610c37565b92509250509250929050565b60008115159050919050565b610cef81610cda565b82525050565b610cfe81610bbd565b82525050565b6000608082019050610d196000830187610b5e565b610d266020830186610ce6565b610d336040830185610cf5565b610d406060830184610b5e565b95945050505050565b600081519050919050565b600082825260208201905092915050565b6000819050602082019050919050565b600082825260208201905092915050565b6000610d9182610ace565b610d9b8185610d75565b9350610dab818560208601610aea565b610db481610b14565b840191505092915050565b610dc881610a6b565b82525050565b60006040830160008301518482036000860152610deb8282610d86565b9150506020830151610e006020860182610dbf565b508091505092915050565b6000610e178383610dce565b905092915050565b6000602082019050919050565b6000610e3782610d49565b610e418185610d54565b935083602082028501610e5385610d65565b8060005b85811015610e8f5784840389528151610e708582610e0b565b9450610e7b83610e1f565b925060208a01995050600181019050610e57565b50829750879550505050505092915050565b60006020820190508181036000830152610ebb8184610e2c565b905092915050565b6000602082019050610ed86000830184610cf5565b92915050565b7fe58584e5bc9fe4bda0e983bde6b2a1e69c89e7a5a8efbc8ce4bda0e68a95e4b860008201527faae994a4e5ad90efbc81efbc81efbc8100000000000000000000000000000000602082015250565b6000610f3a603083610ad9565b9150610f4582610ede565b604082019050919050565b60006020820190508181036000830152610f6981610f2d565b9050919050565b7fe58584e5bc9fe4bda0e5b7b2e7bb8fe68a95e8bf87e4ba86e5958aefbc81efbc60008201527f8100000000000000000000000000000000000000000000000000000000000000602082015250565b6000610fcc602183610ad9565b9150610fd782610f70565b604082019050919050565b60006020820190508181036000830152610ffb81610fbf565b9050919050565b7f4e487b7100000000000000000000000000000000000000000000000000000000600052603260045260246000fd5b7f4e487b7100000000000000000000000000000000000000000000000000000000600052601160045260246000fd5b600061106b82610a6b565b915061107683610a6b565b925082820190508082111561108e5761108d611031565b5b92915050565b7fe68a95e7a5a8e68890e58a9fefbc81efbc810000000000000000000000000000600082015250565b60006110ca601283610ad9565b91506110d582611094565b602082019050919050565b600060208201905081810360008301526110f9816110bd565b9050919050565b7f4e487b7100000000000000000000000000000000000000000000000000000000600052602260045260246000fd5b6000600282049050600182168061114757607f821691505b60208210810361115a57611159611100565b5b50919050565b7fe4bda0e5b7b2e7bb8fe68a95e8bf87e7a5a8e4ba86efbc8ce6b2a1e69c89e8b560008201527f84e6a0bce7bb99e4bda0e5a794e68998e4ba8600000000000000000000000000602082015250565b60006111bc603383610ad9565b91506111c782611160565b604082019050919050565b600060208201905081810360008301526111eb816111af565b9050919050565b7fe4b88de883bde5a794e68998e7bb99e887aae5b7b10000000000000000000000600082015250565b6000611228601583610ad9565b9150611233826111f2565b602082019050919050565b600060208201905081810360008301526112578161121b565b9050919050565b7fe4b88de883bde68e88e69d83efbc8ce59ba0e4b8bae5a794e68998e4b880e59c60008201527f88e5908ee7a5a8e4bc9ae59b9ee588b0e887aae5b7b1e6898be4b8ad00000000602082015250565b60006112ba603c83610ad9565b91506112c58261125e565b604082019050919050565b600060208201905081810360008301526112e9816112ad565b9050919050565b7fe58faae69c89e4b8bbe68c81e4babae6898de69c89e8bf99e4b8aae69d83e58a60008201527f9b00000000000000000000000000000000000000000000000000000000000000602082015250565b600061134c602183610ad9565b9150611357826112f0565b604082019050919050565b6000602082019050818103600083015261137b8161133f565b9050919050565b600061138d82610a6b565b91507fffffffffffffffffffffffffffffffffffffffffffffffffffffffffffffffff82036113bf576113be611031565b5b60018201905091905056fea26469706673582212208e0a76b58323c3261ed271a7e53641e62e079636b928f23f351bcab940108c6264736f6c63430008120033",
					"opcodes": "PUSH1 0x80 PUSH1 0x40 MSTORE CALLVALUE DUP1 ISZERO PUSH3 0x11 JUMPI PUSH1 0x0 DUP1 REVERT JUMPDEST POP PUSH1 0x40 MLOAD PUSH3 0x1C5F CODESIZE SUB DUP1 PUSH3 0x1C5F DUP4 CODECOPY DUP2 DUP2 ADD PUSH1 0x40 MSTORE DUP2 ADD SWAP1 PUSH3 0x37 SWAP2 SWAP1 PUSH3 0x421 JUMP JUMPDEST CALLER PUSH1 0x0 DUP1 PUSH2 0x100 EXP DUP2 SLOAD DUP2 PUSH20 0xFFFFFFFFFFFFFFFFFFFFFFFFFFFFFFFFFFFFFFFF MUL NOT AND SWAP1 DUP4 PUSH20 0xFFFFFFFFFFFFFFFFFFFFFFFFFFFFFFFFFFFFFFFF AND MUL OR SWAP1 SSTORE POP PUSH1 0x1 DUP1 PUSH1 0x0 DUP1 PUSH1 0x0 SWAP1 SLOAD SWAP1 PUSH2 0x100 EXP SWAP1 DIV PUSH20 0xFFFFFFFFFFFFFFFFFFFFFFFFFFFFFFFFFFFFFFFF AND PUSH20 0xFFFFFFFFFFFFFFFFFFFFFFFFFFFFFFFFFFFFFFFF AND PUSH20 0xFFFFFFFFFFFFFFFFFFFFFFFFFFFFFFFFFFFFFFFF AND DUP2 MSTORE PUSH1 0x20 ADD SWAP1 DUP2 MSTORE PUSH1 0x20 ADD PUSH1 0x0 KECCAK256 PUSH1 0x0 ADD DUP2 SWAP1 SSTORE POP PUSH1 0x0 JUMPDEST DUP2 MLOAD DUP2 LT ISZERO PUSH3 0x18A JUMPI PUSH1 0x0 PUSH1 0x40 MLOAD DUP1 PUSH1 0x40 ADD PUSH1 0x40 MSTORE DUP1 DUP5 DUP5 DUP2 MLOAD DUP2 LT PUSH3 0x10F JUMPI PUSH3 0x10E PUSH3 0x472 JUMP JUMPDEST JUMPDEST PUSH1 0x20 MUL PUSH1 0x20 ADD ADD MLOAD DUP2 MSTORE PUSH1 0x20 ADD PUSH1 0x0 DUP2 MSTORE POP SWAP1 POP PUSH1 0x2 DUP2 SWAP1 DUP1 PUSH1 0x1 DUP2 SLOAD ADD DUP1 DUP3 SSTORE DUP1 SWAP2 POP POP PUSH1 0x1 SWAP1 SUB SWAP1 PUSH1 0x0 MSTORE PUSH1 0x20 PUSH1 0x0 KECCAK256 SWAP1 PUSH1 0x2 MUL ADD PUSH1 0x0 SWAP1 SWAP2 SWAP1 SWAP2 SWAP1 SWAP2 POP PUSH1 0x0 DUP3 ADD MLOAD DUP2 PUSH1 0x0 ADD SWAP1 DUP2 PUSH3 0x166 SWAP2 SWAP1 PUSH3 0x6EC JUMP JUMPDEST POP PUSH1 0x20 DUP3 ADD MLOAD DUP2 PUSH1 0x1 ADD SSTORE POP POP POP DUP1 DUP1 PUSH3 0x181 SWAP1 PUSH3 0x802 JUMP JUMPDEST SWAP2 POP POP PUSH3 0xE2 JUMP JUMPDEST POP POP PUSH3 0x84F JUMP JUMPDEST PUSH1 0x0 PUSH1 0x40 MLOAD SWAP1 POP SWAP1 JUMP JUMPDEST PUSH1 0x0 DUP1 REVERT JUMPDEST PUSH1 0x0 DUP1 REVERT JUMPDEST PUSH1 0x0 DUP1 REVERT JUMPDEST PUSH1 0x0 PUSH1 0x1F NOT PUSH1 0x1F DUP4 ADD AND SWAP1 POP SWAP2 SWAP1 POP JUMP JUMPDEST PUSH32 0x4E487B7100000000000000000000000000000000000000000000000000000000 PUSH1 0x0 MSTORE PUSH1 0x41 PUSH1 0x4 MSTORE PUSH1 0x24 PUSH1 0x0 REVERT JUMPDEST PUSH3 0x1F6 DUP3 PUSH3 0x1AB JUMP JUMPDEST DUP2 ADD DUP2 DUP2 LT PUSH8 0xFFFFFFFFFFFFFFFF DUP3 GT OR ISZERO PUSH3 0x218 JUMPI PUSH3 0x217 PUSH3 0x1BC JUMP JUMPDEST JUMPDEST DUP1 PUSH1 0x40 MSTORE POP POP POP JUMP JUMPDEST PUSH1 0x0 PUSH3 0x22D PUSH3 0x192 JUMP JUMPDEST SWAP1 POP PUSH3 0x23B DUP3 DUP3 PUSH3 0x1EB JUMP JUMPDEST SWAP2 SWAP1 POP JUMP JUMPDEST PUSH1 0x0 PUSH8 0xFFFFFFFFFFFFFFFF DUP3 GT ISZERO PUSH3 0x25E JUMPI PUSH3 0x25D PUSH3 0x1BC JUMP JUMPDEST JUMPDEST PUSH1 0x20 DUP3 MUL SWAP1 POP PUSH1 0x20 DUP2 ADD SWAP1 POP SWAP2 SWAP1 POP JUMP JUMPDEST PUSH1 0x0 DUP1 REVERT JUMPDEST PUSH1 0x0 DUP1 REVERT JUMPDEST PUSH1 0x0 PUSH8 0xFFFFFFFFFFFFFFFF DUP3 GT ISZERO PUSH3 0x297 JUMPI PUSH3 0x296 PUSH3 0x1BC JUMP JUMPDEST JUMPDEST PUSH3 0x2A2 DUP3 PUSH3 0x1AB JUMP JUMPDEST SWAP1 POP PUSH1 0x20 DUP2 ADD SWAP1 POP SWAP2 SWAP1 POP JUMP JUMPDEST PUSH1 0x0 JUMPDEST DUP4 DUP2 LT ISZERO PUSH3 0x2CF JUMPI DUP1 DUP3 ADD MLOAD DUP2 DUP5 ADD MSTORE PUSH1 0x20 DUP2 ADD SWAP1 POP PUSH3 0x2B2 JUMP JUMPDEST PUSH1 0x0 DUP5 DUP5 ADD MSTORE POP POP POP POP JUMP JUMPDEST PUSH1 0x0 PUSH3 0x2F2 PUSH3 0x2EC DUP5 PUSH3 0x279 JUMP JUMPDEST PUSH3 0x221 JUMP JUMPDEST SWAP1 POP DUP3 DUP2 MSTORE PUSH1 0x20 DUP2 ADD DUP5 DUP5 DUP5 ADD GT ISZERO PUSH3 0x311 JUMPI PUSH3 0x310 PUSH3 0x274 JUMP JUMPDEST JUMPDEST PUSH3 0x31E DUP5 DUP3 DUP6 PUSH3 0x2AF JUMP JUMPDEST POP SWAP4 SWAP3 POP POP POP JUMP JUMPDEST PUSH1 0x0 DUP3 PUSH1 0x1F DUP4 ADD SLT PUSH3 0x33E JUMPI PUSH3 0x33D PUSH3 0x1A6 JUMP JUMPDEST JUMPDEST DUP2 MLOAD PUSH3 0x350 DUP5 DUP3 PUSH1 0x20 DUP7 ADD PUSH3 0x2DB JUMP JUMPDEST SWAP2 POP POP SWAP3 SWAP2 POP POP JUMP JUMPDEST PUSH1 0x0 PUSH3 0x370 PUSH3 0x36A DUP5 PUSH3 0x240 JUMP JUMPDEST PUSH3 0x221 JUMP JUMPDEST SWAP1 POP DUP1 DUP4 DUP3 MSTORE PUSH1 0x20 DUP3 ADD SWAP1 POP PUSH1 0x20 DUP5 MUL DUP4 ADD DUP6 DUP2 GT ISZERO PUSH3 0x396 JUMPI PUSH3 0x395 PUSH3 0x26F JUMP JUMPDEST JUMPDEST DUP4 JUMPDEST DUP2 DUP2 LT ISZERO PUSH3 0x3E4 JUMPI DUP1 MLOAD PUSH8 0xFFFFFFFFFFFFFFFF DUP2 GT ISZERO PUSH3 0x3BF JUMPI PUSH3 0x3BE PUSH3 0x1A6 JUMP JUMPDEST JUMPDEST DUP1 DUP7 ADD PUSH3 0x3CE DUP10 DUP3 PUSH3 0x326 JUMP JUMPDEST DUP6 MSTORE PUSH1 0x20 DUP6 ADD SWAP5 POP POP POP PUSH1 0x20 DUP2 ADD SWAP1 POP PUSH3 0x398 JUMP JUMPDEST POP POP POP SWAP4 SWAP3 POP POP POP JUMP JUMPDEST PUSH1 0x0 DUP3 PUSH1 0x1F DUP4 ADD SLT PUSH3 0x406 JUMPI PUSH3 0x405 PUSH3 0x1A6 JUMP JUMPDEST JUMPDEST DUP2 MLOAD PUSH3 0x418 DUP5 DUP3 PUSH1 0x20 DUP7 ADD PUSH3 0x359 JUMP JUMPDEST SWAP2 POP POP SWAP3 SWAP2 POP POP JUMP JUMPDEST PUSH1 0x0 PUSH1 0x20 DUP3 DUP5 SUB SLT ISZERO PUSH3 0x43A JUMPI PUSH3 0x439 PUSH3 0x19C JUMP JUMPDEST JUMPDEST PUSH1 0x0 DUP3 ADD MLOAD PUSH8 0xFFFFFFFFFFFFFFFF DUP2 GT ISZERO PUSH3 0x45B JUMPI PUSH3 0x45A PUSH3 0x1A1 JUMP JUMPDEST JUMPDEST PUSH3 0x469 DUP5 DUP3 DUP6 ADD PUSH3 0x3EE JUMP JUMPDEST SWAP2 POP POP SWAP3 SWAP2 POP POP JUMP JUMPDEST PUSH32 0x4E487B7100000000000000000000000000000000000000000000000000000000 PUSH1 0x0 MSTORE PUSH1 0x32 PUSH1 0x4 MSTORE PUSH1 0x24 PUSH1 0x0 REVERT JUMPDEST PUSH1 0x0 DUP2 MLOAD SWAP1 POP SWAP2 SWAP1 POP JUMP JUMPDEST PUSH32 0x4E487B7100000000000000000000000000000000000000000000000000000000 PUSH1 0x0 MSTORE PUSH1 0x22 PUSH1 0x4 MSTORE PUSH1 0x24 PUSH1 0x0 REVERT JUMPDEST PUSH1 0x0 PUSH1 0x2 DUP3 DIV SWAP1 POP PUSH1 0x1 DUP3 AND DUP1 PUSH3 0x4F4 JUMPI PUSH1 0x7F DUP3 AND SWAP2 POP JUMPDEST PUSH1 0x20 DUP3 LT DUP2 SUB PUSH3 0x50A JUMPI PUSH3 0x509 PUSH3 0x4AC JUMP JUMPDEST JUMPDEST POP SWAP2 SWAP1 POP JUMP JUMPDEST PUSH1 0x0 DUP2 SWAP1 POP DUP2 PUSH1 0x0 MSTORE PUSH1 0x20 PUSH1 0x0 KECCAK256 SWAP1 POP SWAP2 SWAP1 POP JUMP JUMPDEST PUSH1 0x0 PUSH1 0x20 PUSH1 0x1F DUP4 ADD DIV SWAP1 POP SWAP2 SWAP1 POP JUMP JUMPDEST PUSH1 0x0 DUP3 DUP3 SHL SWAP1 POP SWAP3 SWAP2 POP POP JUMP JUMPDEST PUSH1 0x0 PUSH1 0x8 DUP4 MUL PUSH3 0x574 PUSH32 0xFFFFFFFFFFFFFFFFFFFFFFFFFFFFFFFFFFFFFFFFFFFFFFFFFFFFFFFFFFFFFFFF DUP3 PUSH3 0x535 JUMP JUMPDEST PUSH3 0x580 DUP7 DUP4 PUSH3 0x535 JUMP JUMPDEST SWAP6 POP DUP1 NOT DUP5 AND SWAP4 POP DUP1 DUP7 AND DUP5 OR SWAP3 POP POP POP SWAP4 SWAP3 POP POP POP JUMP JUMPDEST PUSH1 0x0 DUP2 SWAP1 POP SWAP2 SWAP1 POP JUMP JUMPDEST PUSH1 0x0 DUP2 SWAP1 POP SWAP2 SWAP1 POP JUMP JUMPDEST PUSH1 0x0 PUSH3 0x5CD PUSH3 0x5C7 PUSH3 0x5C1 DUP5 PUSH3 0x598 JUMP JUMPDEST PUSH3 0x5A2 JUMP JUMPDEST PUSH3 0x598 JUMP JUMPDEST SWAP1 POP SWAP2 SWAP1 POP JUMP JUMPDEST PUSH1 0x0 DUP2 SWAP1 POP SWAP2 SWAP1 POP JUMP JUMPDEST PUSH3 0x5E9 DUP4 PUSH3 0x5AC JUMP JUMPDEST PUSH3 0x601 PUSH3 0x5F8 DUP3 PUSH3 0x5D4 JUMP JUMPDEST DUP5 DUP5 SLOAD PUSH3 0x542 JUMP JUMPDEST DUP3 SSTORE POP POP POP POP JUMP JUMPDEST PUSH1 0x0 SWAP1 JUMP JUMPDEST PUSH3 0x618 PUSH3 0x609 JUMP JUMPDEST PUSH3 0x625 DUP2 DUP5 DUP5 PUSH3 0x5DE JUMP JUMPDEST POP POP POP JUMP JUMPDEST JUMPDEST DUP2 DUP2 LT ISZERO PUSH3 0x64D JUMPI PUSH3 0x641 PUSH1 0x0 DUP3 PUSH3 0x60E JUMP JUMPDEST PUSH1 0x1 DUP2 ADD SWAP1 POP PUSH3 0x62B JUMP JUMPDEST POP POP JUMP JUMPDEST PUSH1 0x1F DUP3 GT ISZERO PUSH3 0x69C JUMPI PUSH3 0x666 DUP2 PUSH3 0x510 JUMP JUMPDEST PUSH3 0x671 DUP5 PUSH3 0x525 JUMP JUMPDEST DUP2 ADD PUSH1 0x20 DUP6 LT ISZERO PUSH3 0x681 JUMPI DUP2 SWAP1 POP JUMPDEST PUSH3 0x699 PUSH3 0x690 DUP6 PUSH3 0x525 JUMP JUMPDEST DUP4 ADD DUP3 PUSH3 0x62A JUMP JUMPDEST POP POP JUMPDEST POP POP POP JUMP JUMPDEST PUSH1 0x0 DUP3 DUP3 SHR SWAP1 POP SWAP3 SWAP2 POP POP JUMP JUMPDEST PUSH1 0x0 PUSH3 0x6C1 PUSH1 0x0 NOT DUP5 PUSH1 0x8 MUL PUSH3 0x6A1 JUMP JUMPDEST NOT DUP1 DUP4 AND SWAP2 POP POP SWAP3 SWAP2 POP POP JUMP JUMPDEST PUSH1 0x0 PUSH3 0x6DC DUP4 DUP4 PUSH3 0x6AE JUMP JUMPDEST SWAP2 POP DUP3 PUSH1 0x2 MUL DUP3 OR SWAP1 POP SWAP3 SWAP2 POP POP JUMP JUMPDEST PUSH3 0x6F7 DUP3 PUSH3 0x4A1 JUMP JUMPDEST PUSH8 0xFFFFFFFFFFFFFFFF DUP2 GT ISZERO PUSH3 0x713 JUMPI PUSH3 0x712 PUSH3 0x1BC JUMP JUMPDEST JUMPDEST PUSH3 0x71F DUP3 SLOAD PUSH3 0x4DB JUMP JUMPDEST PUSH3 0x72C DUP3 DUP3 DUP6 PUSH3 0x651 JUMP JUMPDEST PUSH1 0x0 PUSH1 0x20 SWAP1 POP PUSH1 0x1F DUP4 GT PUSH1 0x1 DUP2 EQ PUSH3 0x764 JUMPI PUSH1 0x0 DUP5 ISZERO PUSH3 0x74F JUMPI DUP3 DUP8 ADD MLOAD SWAP1 POP JUMPDEST PUSH3 0x75B DUP6 DUP3 PUSH3 0x6CE JUMP JUMPDEST DUP7 SSTORE POP PUSH3 0x7CB JUMP JUMPDEST PUSH1 0x1F NOT DUP5 AND PUSH3 0x774 DUP7 PUSH3 0x510 JUMP JUMPDEST PUSH1 0x0 JUMPDEST DUP3 DUP2 LT ISZERO PUSH3 0x79E JUMPI DUP5 DUP10 ADD MLOAD DUP3 SSTORE PUSH1 0x1 DUP3 ADD SWAP2 POP PUSH1 0x20 DUP6 ADD SWAP5 POP PUSH1 0x20 DUP2 ADD SWAP1 POP PUSH3 0x777 JUMP JUMPDEST DUP7 DUP4 LT ISZERO PUSH3 0x7BE JUMPI DUP5 DUP10 ADD MLOAD PUSH3 0x7BA PUSH1 0x1F DUP10 AND DUP3 PUSH3 0x6AE JUMP JUMPDEST DUP4 SSTORE POP JUMPDEST PUSH1 0x1 PUSH1 0x2 DUP9 MUL ADD DUP9 SSTORE POP POP POP JUMPDEST POP POP POP POP POP POP JUMP JUMPDEST PUSH32 0x4E487B7100000000000000000000000000000000000000000000000000000000 PUSH1 0x0 MSTORE PUSH1 0x11 PUSH1 0x4 MSTORE PUSH1 0x24 PUSH1 0x0 REVERT JUMPDEST PUSH1 0x0 PUSH3 0x80F DUP3 PUSH3 0x598 JUMP JUMPDEST SWAP2 POP PUSH32 0xFFFFFFFFFFFFFFFFFFFFFFFFFFFFFFFFFFFFFFFFFFFFFFFFFFFFFFFFFFFFFFFF DUP3 SUB PUSH3 0x844 JUMPI PUSH3 0x843 PUSH3 0x7D3 JUMP JUMPDEST JUMPDEST PUSH1 0x1 DUP3 ADD SWAP1 POP SWAP2 SWAP1 POP JUMP JUMPDEST PUSH2 0x1400 DUP1 PUSH3 0x85F PUSH1 0x0 CODECOPY PUSH1 0x0 RETURN INVALID PUSH1 0x80 PUSH1 0x40 MSTORE CALLVALUE DUP1 ISZERO PUSH2 0x10 JUMPI PUSH1 0x0 DUP1 REVERT JUMPDEST POP PUSH1 0x4 CALLDATASIZE LT PUSH2 0x7D JUMPI PUSH1 0x0 CALLDATALOAD PUSH1 0xE0 SHR DUP1 PUSH4 0x8760C761 GT PUSH2 0x5B JUMPI DUP1 PUSH4 0x8760C761 EQ PUSH2 0xEB JUMPI DUP1 PUSH4 0xA3EC138D EQ PUSH2 0x107 JUMPI DUP1 PUSH4 0xED34C6EE EQ PUSH2 0x13A JUMPI DUP1 PUSH4 0xF437BC59 EQ PUSH2 0x158 JUMPI PUSH2 0x7D JUMP JUMPDEST DUP1 PUSH4 0x121B93F EQ PUSH2 0x82 JUMPI DUP1 PUSH4 0x28ED6E3F EQ PUSH2 0x9E JUMPI DUP1 PUSH4 0x5C19A95C EQ PUSH2 0xCF JUMPI JUMPDEST PUSH1 0x0 DUP1 REVERT JUMPDEST PUSH2 0x9C PUSH1 0x4 DUP1 CALLDATASIZE SUB DUP2 ADD SWAP1 PUSH2 0x97 SWAP2 SWAP1 PUSH2 0xAA1 JUMP JUMPDEST PUSH2 0x176 JUMP JUMPDEST STOP JUMPDEST PUSH2 0xB8 PUSH1 0x4 DUP1 CALLDATASIZE SUB DUP2 ADD SWAP1 PUSH2 0xB3 SWAP2 SWAP1 PUSH2 0xAA1 JUMP JUMPDEST PUSH2 0x2F1 JUMP JUMPDEST PUSH1 0x40 MLOAD PUSH2 0xC6 SWAP3 SWAP2 SWAP1 PUSH2 0xB6D JUMP JUMPDEST PUSH1 0x40 MLOAD DUP1 SWAP2 SUB SWAP1 RETURN JUMPDEST PUSH2 0xE9 PUSH1 0x4 DUP1 CALLDATASIZE SUB DUP2 ADD SWAP1 PUSH2 0xE4 SWAP2 SWAP1 PUSH2 0xBFB JUMP JUMPDEST PUSH2 0x3AD JUMP JUMPDEST STOP JUMPDEST PUSH2 0x105 PUSH1 0x4 DUP1 CALLDATASIZE SUB DUP2 ADD SWAP1 PUSH2 0x100 SWAP2 SWAP1 PUSH2 0xC8D JUMP JUMPDEST PUSH2 0x747 JUMP JUMPDEST STOP JUMPDEST PUSH2 0x121 PUSH1 0x4 DUP1 CALLDATASIZE SUB DUP2 ADD SWAP1 PUSH2 0x11C SWAP2 SWAP1 PUSH2 0xBFB JUMP JUMPDEST PUSH2 0x8E5 JUMP JUMPDEST PUSH1 0x40 MLOAD PUSH2 0x131 SWAP5 SWAP4 SWAP3 SWAP2 SWAP1 PUSH2 0xD04 JUMP JUMPDEST PUSH1 0x40 MLOAD DUP1 SWAP2 SUB SWAP1 RETURN JUMPDEST PUSH2 0x142 PUSH2 0x942 JUMP JUMPDEST PUSH1 0x40 MLOAD PUSH2 0x14F SWAP2 SWAP1 PUSH2 0xEA1 JUMP JUMPDEST PUSH1 0x40 MLOAD DUP1 SWAP2 SUB SWAP1 RETURN JUMPDEST PUSH2 0x160 PUSH2 0xA3D JUMP JUMPDEST PUSH1 0x40 MLOAD PUSH2 0x16D SWAP2 SWAP1 PUSH2 0xEC3 JUMP JUMPDEST PUSH1 0x40 MLOAD DUP1 SWAP2 SUB SWAP1 RETURN JUMPDEST PUSH1 0x0 PUSH1 0x1 PUSH1 0x0 CALLER PUSH20 0xFFFFFFFFFFFFFFFFFFFFFFFFFFFFFFFFFFFFFFFF AND PUSH20 0xFFFFFFFFFFFFFFFFFFFFFFFFFFFFFFFFFFFFFFFF AND DUP2 MSTORE PUSH1 0x20 ADD SWAP1 DUP2 MSTORE PUSH1 0x20 ADD PUSH1 0x0 KECCAK256 SWAP1 POP PUSH1 0x0 DUP2 PUSH1 0x0 ADD SLOAD SUB PUSH2 0x200 JUMPI PUSH1 0x40 MLOAD PUSH32 0x8C379A000000000000000000000000000000000000000000000000000000000 DUP2 MSTORE PUSH1 0x4 ADD PUSH2 0x1F7 SWAP1 PUSH2 0xF50 JUMP JUMPDEST PUSH1 0x40 MLOAD DUP1 SWAP2 SUB SWAP1 REVERT JUMPDEST DUP1 PUSH1 0x1 ADD PUSH1 0x0 SWAP1 SLOAD SWAP1 PUSH2 0x100 EXP SWAP1 DIV PUSH1 0xFF AND ISZERO PUSH2 0x252 JUMPI PUSH1 0x40 MLOAD PUSH32 0x8C379A000000000000000000000000000000000000000000000000000000000 DUP2 MSTORE PUSH1 0x4 ADD PUSH2 0x249 SWAP1 PUSH2 0xFE2 JUMP JUMPDEST PUSH1 0x40 MLOAD DUP1 SWAP2 SUB SWAP1 REVERT JUMPDEST PUSH1 0x1 DUP2 PUSH1 0x1 ADD PUSH1 0x0 PUSH2 0x100 EXP DUP2 SLOAD DUP2 PUSH1 0xFF MUL NOT AND SWAP1 DUP4 ISZERO ISZERO MUL OR SWAP1 SSTORE POP DUP2 DUP2 PUSH1 0x2 ADD DUP2 SWAP1 SSTORE POP DUP1 PUSH1 0x0 ADD SLOAD PUSH1 0x2 DUP4 DUP2 SLOAD DUP2 LT PUSH2 0x291 JUMPI PUSH2 0x290 PUSH2 0x1002 JUMP JUMPDEST JUMPDEST SWAP1 PUSH1 0x0 MSTORE PUSH1 0x20 PUSH1 0x0 KECCAK256 SWAP1 PUSH1 0x2 MUL ADD PUSH1 0x1 ADD PUSH1 0x0 DUP3 DUP3 SLOAD PUSH2 0x2B1 SWAP2 SWAP1 PUSH2 0x1060 JUMP JUMPDEST SWAP3 POP POP DUP2 SWAP1 SSTORE POP PUSH32 0x71811A05F98C0D6A3EE4D373E7D62D53422D5BAF858D802816EFCE275DF7D3FA PUSH1 0x40 MLOAD PUSH2 0x2E5 SWAP1 PUSH2 0x10E0 JUMP JUMPDEST PUSH1 0x40 MLOAD DUP1 SWAP2 SUB SWAP1 LOG1 POP POP JUMP JUMPDEST PUSH1 0x2 DUP2 DUP2 SLOAD DUP2 LT PUSH2 0x301 JUMPI PUSH1 0x0 DUP1 REVERT JUMPDEST SWAP1 PUSH1 0x0 MSTORE PUSH1 0x20 PUSH1 0x0 KECCAK256 SWAP1 PUSH1 0x2 MUL ADD PUSH1 0x0 SWAP2 POP SWAP1 POP DUP1 PUSH1 0x0 ADD DUP1 SLOAD PUSH2 0x324 SWAP1 PUSH2 0x112F JUMP JUMPDEST DUP1 PUSH1 0x1F ADD PUSH1 0x20 DUP1 SWAP2 DIV MUL PUSH1 0x20 ADD PUSH1 0x40 MLOAD SWAP1 DUP2 ADD PUSH1 0x40 MSTORE DUP1 SWAP3 SWAP2 SWAP1 DUP2 DUP2 MSTORE PUSH1 0x20 ADD DUP3 DUP1 SLOAD PUSH2 0x350 SWAP1 PUSH2 0x112F JUMP JUMPDEST DUP1 ISZERO PUSH2 0x39D JUMPI DUP1 PUSH1 0x1F LT PUSH2 0x372 JUMPI PUSH2 0x100 DUP1 DUP4 SLOAD DIV MUL DUP4 MSTORE SWAP2 PUSH1 0x20 ADD SWAP2 PUSH2 0x39D JUMP JUMPDEST DUP3 ADD SWAP2 SWAP1 PUSH1 0x0 MSTORE PUSH1 0x20 PUSH1 0x0 KECCAK256 SWAP1 JUMPDEST DUP2 SLOAD DUP2 MSTORE SWAP1 PUSH1 0x1 ADD SWAP1 PUSH1 0x20 ADD DUP1 DUP4 GT PUSH2 0x380 JUMPI DUP3 SWAP1 SUB PUSH1 0x1F AND DUP3 ADD SWAP2 JUMPDEST POP POP POP POP POP SWAP1 DUP1 PUSH1 0x1 ADD SLOAD SWAP1 POP DUP3 JUMP JUMPDEST PUSH1 0x0 PUSH1 0x1 PUSH1 0x0 CALLER PUSH20 0xFFFFFFFFFFFFFFFFFFFFFFFFFFFFFFFFFFFFFFFF AND PUSH20 0xFFFFFFFFFFFFFFFFFFFFFFFFFFFFFFFFFFFFFFFF AND DUP2 MSTORE PUSH1 0x20 ADD SWAP1 DUP2 MSTORE PUSH1 0x20 ADD PUSH1 0x0 KECCAK256 SWAP1 POP DUP1 PUSH1 0x1 ADD PUSH1 0x0 SWAP1 SLOAD SWAP1 PUSH2 0x100 EXP SWAP1 DIV PUSH1 0xFF AND ISZERO PUSH2 0x442 JUMPI PUSH1 0x40 MLOAD PUSH32 0x8C379A000000000000000000000000000000000000000000000000000000000 DUP2 MSTORE PUSH1 0x4 ADD PUSH2 0x439 SWAP1 PUSH2 0x11D2 JUMP JUMPDEST PUSH1 0x40 MLOAD DUP1 SWAP2 SUB SWAP1 REVERT JUMPDEST DUP2 PUSH20 0xFFFFFFFFFFFFFFFFFFFFFFFFFFFFFFFFFFFFFFFF AND CALLER PUSH20 0xFFFFFFFFFFFFFFFFFFFFFFFFFFFFFFFFFFFFFFFF AND SUB PUSH2 0x4B0 JUMPI PUSH1 0x40 MLOAD PUSH32 0x8C379A000000000000000000000000000000000000000000000000000000000 DUP2 MSTORE PUSH1 0x4 ADD PUSH2 0x4A7 SWAP1 PUSH2 0x123E JUMP JUMPDEST PUSH1 0x40 MLOAD DUP1 SWAP2 SUB SWAP1 REVERT JUMPDEST JUMPDEST PUSH1 0x0 PUSH20 0xFFFFFFFFFFFFFFFFFFFFFFFFFFFFFFFFFFFFFFFF AND PUSH1 0x1 PUSH1 0x0 DUP5 PUSH20 0xFFFFFFFFFFFFFFFFFFFFFFFFFFFFFFFFFFFFFFFF AND PUSH20 0xFFFFFFFFFFFFFFFFFFFFFFFFFFFFFFFFFFFFFFFF AND DUP2 MSTORE PUSH1 0x20 ADD SWAP1 DUP2 MSTORE PUSH1 0x20 ADD PUSH1 0x0 KECCAK256 PUSH1 0x1 ADD PUSH1 0x1 SWAP1 SLOAD SWAP1 PUSH2 0x100 EXP SWAP1 DIV PUSH20 0xFFFFFFFFFFFFFFFFFFFFFFFFFFFFFFFFFFFFFFFF AND PUSH20 0xFFFFFFFFFFFFFFFFFFFFFFFFFFFFFFFFFFFFFFFF AND EQ PUSH2 0x61F JUMPI PUSH1 0x1 PUSH1 0x0 DUP4 PUSH20 0xFFFFFFFFFFFFFFFFFFFFFFFFFFFFFFFFFFFFFFFF AND PUSH20 0xFFFFFFFFFFFFFFFFFFFFFFFFFFFFFFFFFFFFFFFF AND DUP2 MSTORE PUSH1 0x20 ADD SWAP1 DUP2 MSTORE PUSH1 0x20 ADD PUSH1 0x0 KECCAK256 PUSH1 0x1 ADD PUSH1 0x1 SWAP1 SLOAD SWAP1 PUSH2 0x100 EXP SWAP1 DIV PUSH20 0xFFFFFFFFFFFFFFFFFFFFFFFFFFFFFFFFFFFFFFFF AND SWAP2 POP CALLER PUSH20 0xFFFFFFFFFFFFFFFFFFFFFFFFFFFFFFFFFFFFFFFF AND DUP3 PUSH20 0xFFFFFFFFFFFFFFFFFFFFFFFFFFFFFFFFFFFFFFFF AND EQ PUSH2 0x61A JUMPI PUSH1 0x40 MLOAD PUSH32 0x8C379A000000000000000000000000000000000000000000000000000000000 DUP2 MSTORE PUSH1 0x4 ADD PUSH2 0x611 SWAP1 PUSH2 0x12D0 JUMP JUMPDEST PUSH1 0x40 MLOAD DUP1 SWAP2 SUB SWAP1 REVERT JUMPDEST PUSH2 0x4B1 JUMP JUMPDEST PUSH1 0x1 DUP2 PUSH1 0x1 ADD PUSH1 0x0 PUSH2 0x100 EXP DUP2 SLOAD DUP2 PUSH1 0xFF MUL NOT AND SWAP1 DUP4 ISZERO ISZERO MUL OR SWAP1 SSTORE POP DUP2 DUP2 PUSH1 0x1 ADD PUSH1 0x1 PUSH2 0x100 EXP DUP2 SLOAD DUP2 PUSH20 0xFFFFFFFFFFFFFFFFFFFFFFFFFFFFFFFFFFFFFFFF MUL NOT AND SWAP1 DUP4 PUSH20 0xFFFFFFFFFFFFFFFFFFFFFFFFFFFFFFFFFFFFFFFF AND MUL OR SWAP1 SSTORE POP PUSH1 0x0 PUSH1 0x1 PUSH1 0x0 DUP5 PUSH20 0xFFFFFFFFFFFFFFFFFFFFFFFFFFFFFFFFFFFFFFFF AND PUSH20 0xFFFFFFFFFFFFFFFFFFFFFFFFFFFFFFFFFFFFFFFF AND DUP2 MSTORE PUSH1 0x20 ADD SWAP1 DUP2 MSTORE PUSH1 0x20 ADD PUSH1 0x0 KECCAK256 SWAP1 POP DUP1 PUSH1 0x1 ADD PUSH1 0x0 SWAP1 SLOAD SWAP1 PUSH2 0x100 EXP SWAP1 DIV PUSH1 0xFF AND ISZERO PUSH2 0x722 JUMPI DUP2 PUSH1 0x0 ADD SLOAD PUSH1 0x2 DUP3 PUSH1 0x2 ADD SLOAD DUP2 SLOAD DUP2 LT PUSH2 0x6F6 JUMPI PUSH2 0x6F5 PUSH2 0x1002 JUMP JUMPDEST JUMPDEST SWAP1 PUSH1 0x0 MSTORE PUSH1 0x20 PUSH1 0x0 KECCAK256 SWAP1 PUSH1 0x2 MUL ADD PUSH1 0x1 ADD PUSH1 0x0 DUP3 DUP3 SLOAD PUSH2 0x716 SWAP2 SWAP1 PUSH2 0x1060 JUMP JUMPDEST SWAP3 POP POP DUP2 SWAP1 SSTORE POP PUSH2 0x742 JUMP JUMPDEST DUP2 PUSH1 0x0 ADD SLOAD DUP2 PUSH1 0x0 ADD PUSH1 0x0 DUP3 DUP3 SLOAD PUSH2 0x73A SWAP2 SWAP1 PUSH2 0x1060 JUMP JUMPDEST SWAP3 POP POP DUP2 SWAP1 SSTORE POP JUMPDEST POP POP POP JUMP JUMPDEST PUSH1 0x0 DUP1 SLOAD SWAP1 PUSH2 0x100 EXP SWAP1 DIV PUSH20 0xFFFFFFFFFFFFFFFFFFFFFFFFFFFFFFFFFFFFFFFF AND PUSH20 0xFFFFFFFFFFFFFFFFFFFFFFFFFFFFFFFFFFFFFFFF AND CALLER PUSH20 0xFFFFFFFFFFFFFFFFFFFFFFFFFFFFFFFFFFFFFFFF AND EQ PUSH2 0x7D5 JUMPI PUSH1 0x40 MLOAD PUSH32 0x8C379A000000000000000000000000000000000000000000000000000000000 DUP2 MSTORE PUSH1 0x4 ADD PUSH2 0x7CC SWAP1 PUSH2 0x1362 JUMP JUMPDEST PUSH1 0x40 MLOAD DUP1 SWAP2 SUB SWAP1 REVERT JUMPDEST PUSH1 0x0 JUMPDEST DUP3 DUP3 SWAP1 POP DUP2 LT ISZERO PUSH2 0x8E0 JUMPI PUSH1 0x1 PUSH1 0x0 DUP5 DUP5 DUP5 DUP2 DUP2 LT PUSH2 0x7FA JUMPI PUSH2 0x7F9 PUSH2 0x1002 JUMP JUMPDEST JUMPDEST SWAP1 POP PUSH1 0x20 MUL ADD PUSH1 0x20 DUP2 ADD SWAP1 PUSH2 0x80F SWAP2 SWAP1 PUSH2 0xBFB JUMP JUMPDEST PUSH20 0xFFFFFFFFFFFFFFFFFFFFFFFFFFFFFFFFFFFFFFFF AND PUSH20 0xFFFFFFFFFFFFFFFFFFFFFFFFFFFFFFFFFFFFFFFF AND DUP2 MSTORE PUSH1 0x20 ADD SWAP1 DUP2 MSTORE PUSH1 0x20 ADD PUSH1 0x0 KECCAK256 PUSH1 0x1 ADD PUSH1 0x0 SWAP1 SLOAD SWAP1 PUSH2 0x100 EXP SWAP1 DIV PUSH1 0xFF AND PUSH2 0x8CD JUMPI PUSH1 0x1 DUP1 PUSH1 0x0 DUP6 DUP6 DUP6 DUP2 DUP2 LT PUSH2 0x876 JUMPI PUSH2 0x875 PUSH2 0x1002 JUMP JUMPDEST JUMPDEST SWAP1 POP PUSH1 0x20 MUL ADD PUSH1 0x20 DUP2 ADD SWAP1 PUSH2 0x88B SWAP2 SWAP1 PUSH2 0xBFB JUMP JUMPDEST PUSH20 0xFFFFFFFFFFFFFFFFFFFFFFFFFFFFFFFFFFFFFFFF AND PUSH20 0xFFFFFFFFFFFFFFFFFFFFFFFFFFFFFFFFFFFFFFFF AND DUP2 MSTORE PUSH1 0x20 ADD SWAP1 DUP2 MSTORE PUSH1 0x20 ADD PUSH1 0x0 KECCAK256 PUSH1 0x0 ADD DUP2 SWAP1 SSTORE POP JUMPDEST DUP1 DUP1 PUSH2 0x8D8 SWAP1 PUSH2 0x1382 JUMP JUMPDEST SWAP2 POP POP PUSH2 0x7D8 JUMP JUMPDEST POP POP POP JUMP JUMPDEST PUSH1 0x1 PUSH1 0x20 MSTORE DUP1 PUSH1 0x0 MSTORE PUSH1 0x40 PUSH1 0x0 KECCAK256 PUSH1 0x0 SWAP2 POP SWAP1 POP DUP1 PUSH1 0x0 ADD SLOAD SWAP1 DUP1 PUSH1 0x1 ADD PUSH1 0x0 SWAP1 SLOAD SWAP1 PUSH2 0x100 EXP SWAP1 DIV PUSH1 0xFF AND SWAP1 DUP1 PUSH1 0x1 ADD PUSH1 0x1 SWAP1 SLOAD SWAP1 PUSH2 0x100 EXP SWAP1 DIV PUSH20 0xFFFFFFFFFFFFFFFFFFFFFFFFFFFFFFFFFFFFFFFF AND SWAP1 DUP1 PUSH1 0x2 ADD SLOAD SWAP1 POP DUP5 JUMP JUMPDEST PUSH1 0x60 PUSH1 0x2 DUP1 SLOAD DUP1 PUSH1 0x20 MUL PUSH1 0x20 ADD PUSH1 0x40 MLOAD SWAP1 DUP2 ADD PUSH1 0x40 MSTORE DUP1 SWAP3 SWAP2 SWAP1 DUP2 DUP2 MSTORE PUSH1 0x20 ADD PUSH1 0x0 SWAP1 JUMPDEST DUP3 DUP3 LT ISZERO PUSH2 0xA34 JUMPI DUP4 DUP3 SWAP1 PUSH1 0x0 MSTORE PUSH1 0x20 PUSH1 0x0 KECCAK256 SWAP1 PUSH1 0x2 MUL ADD PUSH1 0x40 MLOAD DUP1 PUSH1 0x40 ADD PUSH1 0x40 MSTORE SWAP1 DUP2 PUSH1 0x0 DUP3 ADD DUP1 SLOAD PUSH2 0x999 SWAP1 PUSH2 0x112F JUMP JUMPDEST DUP1 PUSH1 0x1F ADD PUSH1 0x20 DUP1 SWAP2 DIV MUL PUSH1 0x20 ADD PUSH1 0x40 MLOAD SWAP1 DUP2 ADD PUSH1 0x40 MSTORE DUP1 SWAP3 SWAP2 SWAP1 DUP2 DUP2 MSTORE PUSH1 0x20 ADD DUP3 DUP1 SLOAD PUSH2 0x9C5 SWAP1 PUSH2 0x112F JUMP JUMPDEST DUP1 ISZERO PUSH2 0xA12 JUMPI DUP1 PUSH1 0x1F LT PUSH2 0x9E7 JUMPI PUSH2 0x100 DUP1 DUP4 SLOAD DIV MUL DUP4 MSTORE SWAP2 PUSH1 0x20 ADD SWAP2 PUSH2 0xA12 JUMP JUMPDEST DUP3 ADD SWAP2 SWAP1 PUSH1 0x0 MSTORE PUSH1 0x20 PUSH1 0x0 KECCAK256 SWAP1 JUMPDEST DUP2 SLOAD DUP2 MSTORE SWAP1 PUSH1 0x1 ADD SWAP1 PUSH1 0x20 ADD DUP1 DUP4 GT PUSH2 0x9F5 JUMPI DUP3 SWAP1 SUB PUSH1 0x1F AND DUP3 ADD SWAP2 JUMPDEST POP POP POP POP POP DUP2 MSTORE PUSH1 0x20 ADD PUSH1 0x1 DUP3 ADD SLOAD DUP2 MSTORE POP POP DUP2 MSTORE PUSH1 0x20 ADD SWAP1 PUSH1 0x1 ADD SWAP1 PUSH2 0x966 JUMP JUMPDEST POP POP POP POP SWAP1 POP SWAP1 JUMP JUMPDEST PUSH1 0x0 DUP1 SLOAD SWAP1 PUSH2 0x100 EXP SWAP1 DIV PUSH20 0xFFFFFFFFFFFFFFFFFFFFFFFFFFFFFFFFFFFFFFFF AND DUP2 JUMP JUMPDEST PUSH1 0x0 DUP1 REVERT JUMPDEST PUSH1 0x0 DUP1 REVERT JUMPDEST PUSH1 0x0 DUP2 SWAP1 POP SWAP2 SWAP1 POP JUMP JUMPDEST PUSH2 0xA7E DUP2 PUSH2 0xA6B JUMP JUMPDEST DUP2 EQ PUSH2 0xA89 JUMPI PUSH1 0x0 DUP1 REVERT JUMPDEST POP JUMP JUMPDEST PUSH1 0x0 DUP2 CALLDATALOAD SWAP1 POP PUSH2 0xA9B DUP2 PUSH2 0xA75 JUMP JUMPDEST SWAP3 SWAP2 POP POP JUMP JUMPDEST PUSH1 0x0 PUSH1 0x20 DUP3 DUP5 SUB SLT ISZERO PUSH2 0xAB7 JUMPI PUSH2 0xAB6 PUSH2 0xA61 JUMP JUMPDEST JUMPDEST PUSH1 0x0 PUSH2 0xAC5 DUP5 DUP3 DUP6 ADD PUSH2 0xA8C JUMP JUMPDEST SWAP2 POP POP SWAP3 SWAP2 POP POP JUMP JUMPDEST PUSH1 0x0 DUP2 MLOAD SWAP1 POP SWAP2 SWAP1 POP JUMP JUMPDEST PUSH1 0x0 DUP3 DUP3 MSTORE PUSH1 0x20 DUP3 ADD SWAP1 POP SWAP3 SWAP2 POP POP JUMP JUMPDEST PUSH1 0x0 JUMPDEST DUP4 DUP2 LT ISZERO PUSH2 0xB08 JUMPI DUP1 DUP3 ADD MLOAD DUP2 DUP5 ADD MSTORE PUSH1 0x20 DUP2 ADD SWAP1 POP PUSH2 0xAED JUMP JUMPDEST PUSH1 0x0 DUP5 DUP5 ADD MSTORE POP POP POP POP JUMP JUMPDEST PUSH1 0x0 PUSH1 0x1F NOT PUSH1 0x1F DUP4 ADD AND SWAP1 POP SWAP2 SWAP1 POP JUMP JUMPDEST PUSH1 0x0 PUSH2 0xB30 DUP3 PUSH2 0xACE JUMP JUMPDEST PUSH2 0xB3A DUP2 DUP6 PUSH2 0xAD9 JUMP JUMPDEST SWAP4 POP PUSH2 0xB4A DUP2 DUP6 PUSH1 0x20 DUP7 ADD PUSH2 0xAEA JUMP JUMPDEST PUSH2 0xB53 DUP2 PUSH2 0xB14 JUMP JUMPDEST DUP5 ADD SWAP2 POP POP SWAP3 SWAP2 POP POP JUMP JUMPDEST PUSH2 0xB67 DUP2 PUSH2 0xA6B JUMP JUMPDEST DUP3 MSTORE POP POP JUMP JUMPDEST PUSH1 0x0 PUSH1 0x40 DUP3 ADD SWAP1 POP DUP2 DUP2 SUB PUSH1 0x0 DUP4 ADD MSTORE PUSH2 0xB87 DUP2 DUP6 PUSH2 0xB25 JUMP JUMPDEST SWAP1 POP PUSH2 0xB96 PUSH1 0x20 DUP4 ADD DUP5 PUSH2 0xB5E JUMP JUMPDEST SWAP4 SWAP3 POP POP POP JUMP JUMPDEST PUSH1 0x0 PUSH20 0xFFFFFFFFFFFFFFFFFFFFFFFFFFFFFFFFFFFFFFFF DUP3 AND SWAP1 POP SWAP2 SWAP1 POP JUMP JUMPDEST PUSH1 0x0 PUSH2 0xBC8 DUP3 PUSH2 0xB9D JUMP JUMPDEST SWAP1 POP SWAP2 SWAP1 POP JUMP JUMPDEST PUSH2 0xBD8 DUP2 PUSH2 0xBBD JUMP JUMPDEST DUP2 EQ PUSH2 0xBE3 JUMPI PUSH1 0x0 DUP1 REVERT JUMPDEST POP JUMP JUMPDEST PUSH1 0x0 DUP2 CALLDATALOAD SWAP1 POP PUSH2 0xBF5 DUP2 PUSH2 0xBCF JUMP JUMPDEST SWAP3 SWAP2 POP POP JUMP JUMPDEST PUSH1 0x0 PUSH1 0x20 DUP3 DUP5 SUB SLT ISZERO PUSH2 0xC11 JUMPI PUSH2 0xC10 PUSH2 0xA61 JUMP JUMPDEST JUMPDEST PUSH1 0x0 PUSH2 0xC1F DUP5 DUP3 DUP6 ADD PUSH2 0xBE6 JUMP JUMPDEST SWAP2 POP POP SWAP3 SWAP2 POP POP JUMP JUMPDEST PUSH1 0x0 DUP1 REVERT JUMPDEST PUSH1 0x0 DUP1 REVERT JUMPDEST PUSH1 0x0 DUP1 REVERT JUMPDEST PUSH1 0x0 DUP1 DUP4 PUSH1 0x1F DUP5 ADD SLT PUSH2 0xC4D JUMPI PUSH2 0xC4C PUSH2 0xC28 JUMP JUMPDEST JUMPDEST DUP3 CALLDATALOAD SWAP1 POP PUSH8 0xFFFFFFFFFFFFFFFF DUP2 GT ISZERO PUSH2 0xC6A JUMPI PUSH2 0xC69 PUSH2 0xC2D JUMP JUMPDEST JUMPDEST PUSH1 0x20 DUP4 ADD SWAP2 POP DUP4 PUSH1 0x20 DUP3 MUL DUP4 ADD GT ISZERO PUSH2 0xC86 JUMPI PUSH2 0xC85 PUSH2 0xC32 JUMP JUMPDEST JUMPDEST SWAP3 POP SWAP3 SWAP1 POP JUMP JUMPDEST PUSH1 0x0 DUP1 PUSH1 0x20 DUP4 DUP6 SUB SLT ISZERO PUSH2 0xCA4 JUMPI PUSH2 0xCA3 PUSH2 0xA61 JUMP JUMPDEST JUMPDEST PUSH1 0x0 DUP4 ADD CALLDATALOAD PUSH8 0xFFFFFFFFFFFFFFFF DUP2 GT ISZERO PUSH2 0xCC2 JUMPI PUSH2 0xCC1 PUSH2 0xA66 JUMP JUMPDEST JUMPDEST PUSH2 0xCCE DUP6 DUP3 DUP7 ADD PUSH2 0xC37 JUMP JUMPDEST SWAP3 POP SWAP3 POP POP SWAP3 POP SWAP3 SWAP1 POP JUMP JUMPDEST PUSH1 0x0 DUP2 ISZERO ISZERO SWAP1 POP SWAP2 SWAP1 POP JUMP JUMPDEST PUSH2 0xCEF DUP2 PUSH2 0xCDA JUMP JUMPDEST DUP3 MSTORE POP POP JUMP JUMPDEST PUSH2 0xCFE DUP2 PUSH2 0xBBD JUMP JUMPDEST DUP3 MSTORE POP POP JUMP JUMPDEST PUSH1 0x0 PUSH1 0x80 DUP3 ADD SWAP1 POP PUSH2 0xD19 PUSH1 0x0 DUP4 ADD DUP8 PUSH2 0xB5E JUMP JUMPDEST PUSH2 0xD26 PUSH1 0x20 DUP4 ADD DUP7 PUSH2 0xCE6 JUMP JUMPDEST PUSH2 0xD33 PUSH1 0x40 DUP4 ADD DUP6 PUSH2 0xCF5 JUMP JUMPDEST PUSH2 0xD40 PUSH1 0x60 DUP4 ADD DUP5 PUSH2 0xB5E JUMP JUMPDEST SWAP6 SWAP5 POP POP POP POP POP JUMP JUMPDEST PUSH1 0x0 DUP2 MLOAD SWAP1 POP SWAP2 SWAP1 POP JUMP JUMPDEST PUSH1 0x0 DUP3 DUP3 MSTORE PUSH1 0x20 DUP3 ADD SWAP1 POP SWAP3 SWAP2 POP POP JUMP JUMPDEST PUSH1 0x0 DUP2 SWAP1 POP PUSH1 0x20 DUP3 ADD SWAP1 POP SWAP2 SWAP1 POP JUMP JUMPDEST PUSH1 0x0 DUP3 DUP3 MSTORE PUSH1 0x20 DUP3 ADD SWAP1 POP SWAP3 SWAP2 POP POP JUMP JUMPDEST PUSH1 0x0 PUSH2 0xD91 DUP3 PUSH2 0xACE JUMP JUMPDEST PUSH2 0xD9B DUP2 DUP6 PUSH2 0xD75 JUMP JUMPDEST SWAP4 POP PUSH2 0xDAB DUP2 DUP6 PUSH1 0x20 DUP7 ADD PUSH2 0xAEA JUMP JUMPDEST PUSH2 0xDB4 DUP2 PUSH2 0xB14 JUMP JUMPDEST DUP5 ADD SWAP2 POP POP SWAP3 SWAP2 POP POP JUMP JUMPDEST PUSH2 0xDC8 DUP2 PUSH2 0xA6B JUMP JUMPDEST DUP3 MSTORE POP POP JUMP JUMPDEST PUSH1 0x0 PUSH1 0x40 DUP4 ADD PUSH1 0x0 DUP4 ADD MLOAD DUP5 DUP3 SUB PUSH1 0x0 DUP7 ADD MSTORE PUSH2 0xDEB DUP3 DUP3 PUSH2 0xD86 JUMP JUMPDEST SWAP2 POP POP PUSH1 0x20 DUP4 ADD MLOAD PUSH2 0xE00 PUSH1 0x20 DUP7 ADD DUP3 PUSH2 0xDBF JUMP JUMPDEST POP DUP1 SWAP2 POP POP SWAP3 SWAP2 POP POP JUMP JUMPDEST PUSH1 0x0 PUSH2 0xE17 DUP4 DUP4 PUSH2 0xDCE JUMP JUMPDEST SWAP1 POP SWAP3 SWAP2 POP POP JUMP JUMPDEST PUSH1 0x0 PUSH1 0x20 DUP3 ADD SWAP1 POP SWAP2 SWAP1 POP JUMP JUMPDEST PUSH1 0x0 PUSH2 0xE37 DUP3 PUSH2 0xD49 JUMP JUMPDEST PUSH2 0xE41 DUP2 DUP6 PUSH2 0xD54 JUMP JUMPDEST SWAP4 POP DUP4 PUSH1 0x20 DUP3 MUL DUP6 ADD PUSH2 0xE53 DUP6 PUSH2 0xD65 JUMP JUMPDEST DUP1 PUSH1 0x0 JUMPDEST DUP6 DUP2 LT ISZERO PUSH2 0xE8F JUMPI DUP5 DUP5 SUB DUP10 MSTORE DUP2 MLOAD PUSH2 0xE70 DUP6 DUP3 PUSH2 0xE0B JUMP JUMPDEST SWAP5 POP PUSH2 0xE7B DUP4 PUSH2 0xE1F JUMP JUMPDEST SWAP3 POP PUSH1 0x20 DUP11 ADD SWAP10 POP POP PUSH1 0x1 DUP2 ADD SWAP1 POP PUSH2 0xE57 JUMP JUMPDEST POP DUP3 SWAP8 POP DUP8 SWAP6 POP POP POP POP POP POP SWAP3 SWAP2 POP POP JUMP JUMPDEST PUSH1 0x0 PUSH1 0x20 DUP3 ADD SWAP1 POP DUP2 DUP2 SUB PUSH1 0x0 DUP4 ADD MSTORE PUSH2 0xEBB DUP2 DUP5 PUSH2 0xE2C JUMP JUMPDEST SWAP1 POP SWAP3 SWAP2 POP POP JUMP JUMPDEST PUSH1 0x0 PUSH1 0x20 DUP3 ADD SWAP1 POP PUSH2 0xED8 PUSH1 0x0 DUP4 ADD DUP5 PUSH2 0xCF5 JUMP JUMPDEST SWAP3 SWAP2 POP POP JUMP JUMPDEST PUSH32 0xE58584E5BC9FE4BDA0E983BDE6B2A1E69C89E7A5A8EFBC8CE4BDA0E68A95E4B8 PUSH1 0x0 DUP3 ADD MSTORE PUSH32 0xAAE994A4E5AD90EFBC81EFBC81EFBC8100000000000000000000000000000000 PUSH1 0x20 DUP3 ADD MSTORE POP JUMP JUMPDEST PUSH1 0x0 PUSH2 0xF3A PUSH1 0x30 DUP4 PUSH2 0xAD9 JUMP JUMPDEST SWAP2 POP PUSH2 0xF45 DUP3 PUSH2 0xEDE JUMP JUMPDEST PUSH1 0x40 DUP3 ADD SWAP1 POP SWAP2 SWAP1 POP JUMP JUMPDEST PUSH1 0x0 PUSH1 0x20 DUP3 ADD SWAP1 POP DUP2 DUP2 SUB PUSH1 0x0 DUP4 ADD MSTORE PUSH2 0xF69 DUP2 PUSH2 0xF2D JUMP JUMPDEST SWAP1 POP SWAP2 SWAP1 POP JUMP JUMPDEST PUSH32 0xE58584E5BC9FE4BDA0E5B7B2E7BB8FE68A95E8BF87E4BA86E5958AEFBC81EFBC PUSH1 0x0 DUP3 ADD MSTORE PUSH32 0x8100000000000000000000000000000000000000000000000000000000000000 PUSH1 0x20 DUP3 ADD MSTORE POP JUMP JUMPDEST PUSH1 0x0 PUSH2 0xFCC PUSH1 0x21 DUP4 PUSH2 0xAD9 JUMP JUMPDEST SWAP2 POP PUSH2 0xFD7 DUP3 PUSH2 0xF70 JUMP JUMPDEST PUSH1 0x40 DUP3 ADD SWAP1 POP SWAP2 SWAP1 POP JUMP JUMPDEST PUSH1 0x0 PUSH1 0x20 DUP3 ADD SWAP1 POP DUP2 DUP2 SUB PUSH1 0x0 DUP4 ADD MSTORE PUSH2 0xFFB DUP2 PUSH2 0xFBF JUMP JUMPDEST SWAP1 POP SWAP2 SWAP1 POP JUMP JUMPDEST PUSH32 0x4E487B7100000000000000000000000000000000000000000000000000000000 PUSH1 0x0 MSTORE PUSH1 0x32 PUSH1 0x4 MSTORE PUSH1 0x24 PUSH1 0x0 REVERT JUMPDEST PUSH32 0x4E487B7100000000000000000000000000000000000000000000000000000000 PUSH1 0x0 MSTORE PUSH1 0x11 PUSH1 0x4 MSTORE PUSH1 0x24 PUSH1 0x0 REVERT JUMPDEST PUSH1 0x0 PUSH2 0x106B DUP3 PUSH2 0xA6B JUMP JUMPDEST SWAP2 POP PUSH2 0x1076 DUP4 PUSH2 0xA6B JUMP JUMPDEST SWAP3 POP DUP3 DUP3 ADD SWAP1 POP DUP1 DUP3 GT ISZERO PUSH2 0x108E JUMPI PUSH2 0x108D PUSH2 0x1031 JUMP JUMPDEST JUMPDEST SWAP3 SWAP2 POP POP JUMP JUMPDEST PUSH32 0xE68A95E7A5A8E68890E58A9FEFBC81EFBC810000000000000000000000000000 PUSH1 0x0 DUP3 ADD MSTORE POP JUMP JUMPDEST PUSH1 0x0 PUSH2 0x10CA PUSH1 0x12 DUP4 PUSH2 0xAD9 JUMP JUMPDEST SWAP2 POP PUSH2 0x10D5 DUP3 PUSH2 0x1094 JUMP JUMPDEST PUSH1 0x20 DUP3 ADD SWAP1 POP SWAP2 SWAP1 POP JUMP JUMPDEST PUSH1 0x0 PUSH1 0x20 DUP3 ADD SWAP1 POP DUP2 DUP2 SUB PUSH1 0x0 DUP4 ADD MSTORE PUSH2 0x10F9 DUP2 PUSH2 0x10BD JUMP JUMPDEST SWAP1 POP SWAP2 SWAP1 POP JUMP JUMPDEST PUSH32 0x4E487B7100000000000000000000000000000000000000000000000000000000 PUSH1 0x0 MSTORE PUSH1 0x22 PUSH1 0x4 MSTORE PUSH1 0x24 PUSH1 0x0 REVERT JUMPDEST PUSH1 0x0 PUSH1 0x2 DUP3 DIV SWAP1 POP PUSH1 0x1 DUP3 AND DUP1 PUSH2 0x1147 JUMPI PUSH1 0x7F DUP3 AND SWAP2 POP JUMPDEST PUSH1 0x20 DUP3 LT DUP2 SUB PUSH2 0x115A JUMPI PUSH2 0x1159 PUSH2 0x1100 JUMP JUMPDEST JUMPDEST POP SWAP2 SWAP1 POP JUMP JUMPDEST PUSH32 0xE4BDA0E5B7B2E7BB8FE68A95E8BF87E7A5A8E4BA86EFBC8CE6B2A1E69C89E8B5 PUSH1 0x0 DUP3 ADD MSTORE PUSH32 0x84E6A0BCE7BB99E4BDA0E5A794E68998E4BA8600000000000000000000000000 PUSH1 0x20 DUP3 ADD MSTORE POP JUMP JUMPDEST PUSH1 0x0 PUSH2 0x11BC PUSH1 0x33 DUP4 PUSH2 0xAD9 JUMP JUMPDEST SWAP2 POP PUSH2 0x11C7 DUP3 PUSH2 0x1160 JUMP JUMPDEST PUSH1 0x40 DUP3 ADD SWAP1 POP SWAP2 SWAP1 POP JUMP JUMPDEST PUSH1 0x0 PUSH1 0x20 DUP3 ADD SWAP1 POP DUP2 DUP2 SUB PUSH1 0x0 DUP4 ADD MSTORE PUSH2 0x11EB DUP2 PUSH2 0x11AF JUMP JUMPDEST SWAP1 POP SWAP2 SWAP1 POP JUMP JUMPDEST PUSH32 0xE4B88DE883BDE5A794E68998E7BB99E887AAE5B7B10000000000000000000000 PUSH1 0x0 DUP3 ADD MSTORE POP JUMP JUMPDEST PUSH1 0x0 PUSH2 0x1228 PUSH1 0x15 DUP4 PUSH2 0xAD9 JUMP JUMPDEST SWAP2 POP PUSH2 0x1233 DUP3 PUSH2 0x11F2 JUMP JUMPDEST PUSH1 0x20 DUP3 ADD SWAP1 POP SWAP2 SWAP1 POP JUMP JUMPDEST PUSH1 0x0 PUSH1 0x20 DUP3 ADD SWAP1 POP DUP2 DUP2 SUB PUSH1 0x0 DUP4 ADD MSTORE PUSH2 0x1257 DUP2 PUSH2 0x121B JUMP JUMPDEST SWAP1 POP SWAP2 SWAP1 POP JUMP JUMPDEST PUSH32 0xE4B88DE883BDE68E88E69D83EFBC8CE59BA0E4B8BAE5A794E68998E4B880E59C PUSH1 0x0 DUP3 ADD MSTORE PUSH32 0x88E5908EE7A5A8E4BC9AE59B9EE588B0E887AAE5B7B1E6898BE4B8AD00000000 PUSH1 0x20 DUP3 ADD MSTORE POP JUMP JUMPDEST PUSH1 0x0 PUSH2 0x12BA PUSH1 0x3C DUP4 PUSH2 0xAD9 JUMP JUMPDEST SWAP2 POP PUSH2 0x12C5 DUP3 PUSH2 0x125E JUMP JUMPDEST PUSH1 0x40 DUP3 ADD SWAP1 POP SWAP2 SWAP1 POP JUMP JUMPDEST PUSH1 0x0 PUSH1 0x20 DUP3 ADD SWAP1 POP DUP2 DUP2 SUB PUSH1 0x0 DUP4 ADD MSTORE PUSH2 0x12E9 DUP2 PUSH2 0x12AD JUMP JUMPDEST SWAP1 POP SWAP2 SWAP1 POP JUMP JUMPDEST PUSH32 0xE58FAAE69C89E4B8BBE68C81E4BABAE6898DE69C89E8BF99E4B8AAE69D83E58A PUSH1 0x0 DUP3 ADD MSTORE PUSH32 0x9B00000000000000000000000000000000000000000000000000000000000000 PUSH1 0x20 DUP3 ADD MSTORE POP JUMP JUMPDEST PUSH1 0x0 PUSH2 0x134C PUSH1 0x21 DUP4 PUSH2 0xAD9 JUMP JUMPDEST SWAP2 POP PUSH2 0x1357 DUP3 PUSH2 0x12F0 JUMP JUMPDEST PUSH1 0x40 DUP3 ADD SWAP1 POP SWAP2 SWAP1 POP JUMP JUMPDEST PUSH1 0x0 PUSH1 0x20 DUP3 ADD SWAP1 POP DUP2 DUP2 SUB PUSH1 0x0 DUP4 ADD MSTORE PUSH2 0x137B DUP2 PUSH2 0x133F JUMP JUMPDEST SWAP1 POP SWAP2 SWAP1 POP JUMP JUMPDEST PUSH1 0x0 PUSH2 0x138D DUP3 PUSH2 0xA6B JUMP JUMPDEST SWAP2 POP PUSH32 0xFFFFFFFFFFFFFFFFFFFFFFFFFFFFFFFFFFFFFFFFFFFFFFFFFFFFFFFFFFFFFFFF DUP3 SUB PUSH2 0x13BF JUMPI PUSH2 0x13BE PUSH2 0x1031 JUMP JUMPDEST JUMPDEST PUSH1 0x1 DUP3 ADD SWAP1 POP SWAP2 SWAP1 POP JUMP INVALID LOG2 PUSH5 0x6970667358 0x22 SLT KECCAK256 DUP15 EXP PUSH23 0xB58323C3261ED271A7E53641E62E079636B928F23F351B 0xCA 0xB9 BLOCKHASH LT DUP13 PUSH3 0x64736F PUSH13 0x63430008120033000000000000 "
				},
				"gasEstimates": {
					"creation": {
						"codeDepositCost": "1024000",
						"executionCost": "infinite",
						"totalCost": "infinite"
					},
					"external": {
						"board(uint256)": "infinite",
						"delegate(address)": "infinite",
						"getBoardInfo()": "infinite",
						"host()": "2577",
						"mandate(address[])": "infinite",
						"vote(uint256)": "infinite",
						"voters(address)": "infinite"
					}
				},
				"methodIdentifiers": {
					"board(uint256)": "28ed6e3f",
					"delegate(address)": "5c19a95c",
					"getBoardInfo()": "ed34c6ee",
					"host()": "f437bc59",
					"mandate(address[])": "8760c761",
					"vote(uint256)": "0121b93f",
					"voters(address)": "a3ec138d"
				}
			},
			"storageLayout": {
				"storage": [
					{
						"astId": 17,
						"contract": "contracts/Vote/Vote.sol:Vote",
						"label": "host",
						"offset": 0,
						"slot": "0",
						"type": "t_address"
					},
					{
						"astId": 22,
						"contract": "contracts/Vote/Vote.sol:Vote",
						"label": "voters",
						"offset": 0,
						"slot": "1",
						"type": "t_mapping(t_address,t_struct(Voter)10_storage)"
					},
					{
						"astId": 26,
						"contract": "contracts/Vote/Vote.sol:Vote",
						"label": "board",
						"offset": 0,
						"slot": "2",
						"type": "t_array(t_struct(Board)15_storage)dyn_storage"
					}
				],
				"types": {
					"t_address": {
						"encoding": "inplace",
						"label": "address",
						"numberOfBytes": "20"
					},
					"t_array(t_struct(Board)15_storage)dyn_storage": {
						"base": "t_struct(Board)15_storage",
						"encoding": "dynamic_array",
						"label": "struct Vote.Board[]",
						"numberOfBytes": "32"
					},
					"t_bool": {
						"encoding": "inplace",
						"label": "bool",
						"numberOfBytes": "1"
					},
					"t_mapping(t_address,t_struct(Voter)10_storage)": {
						"encoding": "mapping",
						"key": "t_address",
						"label": "mapping(address => struct Vote.Voter)",
						"numberOfBytes": "32",
						"value": "t_struct(Voter)10_storage"
					},
					"t_string_storage": {
						"encoding": "bytes",
						"label": "string",
						"numberOfBytes": "32"
					},
					"t_struct(Board)15_storage": {
						"encoding": "inplace",
						"label": "struct Vote.Board",
						"members": [
							{
								"astId": 12,
								"contract": "contracts/Vote/Vote.sol:Vote",
								"label": "name",
								"offset": 0,
								"slot": "0",
								"type": "t_string_storage"
							},
							{
								"astId": 14,
								"contract": "contracts/Vote/Vote.sol:Vote",
								"label": "totalAmount",
								"offset": 0,
								"slot": "1",
								"type": "t_uint256"
							}
						],
						"numberOfBytes": "64"
					},
					"t_struct(Voter)10_storage": {
						"encoding": "inplace",
						"label": "struct Vote.Voter",
						"members": [
							{
								"astId": 3,
								"contract": "contracts/Vote/Vote.sol:Vote",
								"label": "amount",
								"offset": 0,
								"slot": "0",
								"type": "t_uint256"
							},
							{
								"astId": 5,
								"contract": "contracts/Vote/Vote.sol:Vote",
								"label": "isVoted",
								"offset": 0,
								"slot": "1",
								"type": "t_bool"
							},
							{
								"astId": 7,
								"contract": "contracts/Vote/Vote.sol:Vote",
								"label": "delegator",
								"offset": 1,
								"slot": "1",
								"type": "t_address"
							},
							{
								"astId": 9,
								"contract": "contracts/Vote/Vote.sol:Vote",
								"label": "targetId",
								"offset": 0,
								"slot": "2",
								"type": "t_uint256"
							}
						],
						"numberOfBytes": "96"
					},
					"t_uint256": {
						"encoding": "inplace",
						"label": "uint256",
						"numberOfBytes": "32"
					}
				}
			},
			"userdoc": {
				"kind": "user",
				"methods": {},
				"version": 1
			}
		}
	}
}